:020000040800F2
:10000000388900201103000879480008E5440008F9
:1000100075480008D91F0008794A00080000000050
:10002000000000000000000000000000ED48000893
:100030003D20000800000000E9480008454900088C
:100040002B0300082B0300082B0300082B030008D8
:100050002B0300082B0300082B0300082B030008C8
:100060002B0300082B0300082B0300082B030008B8
:100070002B0300082B0300082B0300082B030008A8
:100080002B0300082B0300082B030008FD1F0008AA
:10009000DD1F0008ED1F00082B0300082B030008DC
:1000A0002B0300082B0300082B0300082B03000878
:1000B0002B0300082B0300082B0300082B03000868
:1000C0002B0300082B0300082B0300082B03000858
:1000D0002B0300082B0300082B0300082B03000848
:1000E0002B0300082B0300082B0300082B03000838
:1000F0002B0300082B0300082B0300082B03000828
:100100002B0300082B0300082B0300082B03000817
:100110002B0300082B0300082B0300082B03000807
:100120002B0300082B0300082B0300082B030008F7
:100130002B03000800000000000000002D20000834
:100140000D2000081D2000082B0300082B030008C9
:100150002B0300082B0300082B0300082B030008C7
:100160002B0300082B0300082B0300082B030008B7
:100170002B0300082B030008000000000000000013
:100180002B0300082B03000800F002F800F0B0F881
:1001900014A696E8000CB244B344DA4501D100F04D
:1001A000A7F8BAE80F000FA696E83000A5EB040503
:1001B00004EB0607AAEB0704A7F101074FEA1515A0
:1001C0004FEA3414A4F10104AC4201D300F090F8DA
:1001D00013F0010F18BFFB1A43F0010300F001F800
:1001E000DBE718477C5900009C590000103A24BFF7
:1001F00078C878C1FAD8520724BF30C830C144BF8C
:1002000004680C6070470000704700000023002461
:1002100000250026103A28BF78C1FBD8520728BF16
:1002200030C148BF0B6070476E2900F061827029B1
:1002300000F09783662905F0C683652905F0C3831E
:10024000672905F0C083612905F0BF8303681B0A95
:1002500028BF41F08001692900F00E82642900F076
:100260000B82752900F008826F2900F02583782918
:1002700000F06383E92900F0BF82E42900F0BC822A
:10028000F52900F0B982EF2900F02283F82900F067
:1002900062830368DB0928BF41F08001632901F014
:1002A000AD80732901F0B280E32901F0BD80F3290C
:1002B00001F0C280002070471FB505F077FB9DE874
:1002C000030001F06FFC01F0ADF9040000200021F3
:1002D00005F056FB401C60600020002105F03AFB51
:1002E000E06001F0B1F81FBD10B501F016F910BDC6
:1002F00001F06AF91146FFF7DFFF04F0FBFD01F0A2
:1003000021FC03B4FFF7F0FF03BC01F0C9FD0000BE
:100310000948804709480047FEE7FEE7FEE7FEE799
:10032000FEE7FEE7FEE7FEE7FEE7FEE704480549D5
:10033000054A064B704700000D4A00088901000875
:100340003883002038890020388500203885002037
:1003500053EA020C00F069802DE9F04B4FF00006E3
:10036000002B1FBFB3FA83F503FA05F424FA05F650
:100370005E4012BF1643B2FA82F502FA05F4C5F1E7
:1003800020051EBF22FA05FC44EA0C04203556EA7B
:10039000044C4FEA144418BF641C4FF000084FF09F
:1003A0000009904271EB030C39D3002919BFB1FA4F
:1003B00081F701FA07F6B0FA80F700FA07F6C7F1FD
:1003C00020071EBF20FA07FC46EA0C062037B6FBC2
:1003D000F4FCA7EB0507103F07F01F0BCBF120063D
:1003E0002CFA06F60CFA0BFB44BFB3460026202F6E
:1003F000A4BF5E464FF0000B5BEA060C08BF4FF04F
:10040000010B19EB0B0948EB0608ABFB027C06FB62
:1004100002CC0BFB03CCC01B71EB0C01C1E70B46FC
:10042000024641464846BDE8F08B13B5084318BF65
:100430004FF0FF300146AFF30080BDE81C4070472D
:100440000FB4044910B503AA029800F065F910BC76
:100450005DF814FB94000020032A40F2308010F075
:10046000030C00F0158011F8013BBCF1020F62444F
:1004700098BF11F801CB00F8013B38BF11F8013BE0
:10048000A2F1040298BF00F801CB38BF00F8013B8D
:1004900011F0030300F03483083AC0F0088051F8EB
:1004A000043B083A51F804CBA0E80810F5E7121D08
:1004B0005CBF51F8043B40F8043BAFF30080D20727
:1004C00024BF11F8013B11F801CB48BF11F8012BF3
:1004D00024BF00F8013B00F801CB48BF00F8012B16
:1004E00070474FF0000200B51346944696462039F7
:1004F00022BFA0E80C50A0E80C50B1F12001BFF4DD
:10050000F7AF090728BFA0E80C5048BF0CC05DF842
:1005100004EB890028BF40F8042B08BF704748BF90
:1005200020F8022B11F0804F18BF00F8012B704704
:1005300030B44FF0013C50F8042B51F8043BCCFA96
:1005400052F4D51A20D1FCB950F8042B51F8043BD1
:10055000CCFA52F4D51A17D1B4B950F8042B51F88B
:10056000043BCCFA52F4D51A0ED16CB950F8042BD6
:1005700051F8043BCCFA52F4D51A05D1002CDAD04C
:1005800030BC4FF00000704729BAB1FA81F111F088
:100590001801D1F120008440F2D1CA40CB4012F0C2
:1005A000FF0213F0FF0330BCD01A7047704770474A
:1005B000704770B5044685690068C10601D53026CC
:1005C00000E02026C00707D070BDD4E901213046E5
:1005D0009047206A401C20626D1EF6D570BD70B534
:1005E000044685690078C00707D170BDD4E90121B0
:1005F00020209047206A401C20626D1EF6D570BDF9
:1006000009684A0501D540B27047C905FCD500B25A
:10061000704709684A0501D5C0B27047C905FCD5C5
:1006200080B2704770B50C460546012A05D028787F
:10063000800600D5EA69002302E0012305E05B1C87
:10064000934202D2E05C0028F9D1A869E618C01AEA
:10065000A861286A184428622846FFF7AAFF04E028
:10066000D5E9012114F8010B9047B442F8D328468C
:10067000FFF7B5FF70BD00002DE9F04106460024EC
:1006800010687529314616A510D0FFF7B9FF00286C
:1006900002DA404213A507E031688A0701D512A5A6
:1006A00002E0490704D511A5012401E0FFF7B1FFDD
:1006B00000210A2206F1240709E0B0FBF2FCB0FB9E
:1006C000F2F302FB1C00303078541846491C002815
:1006D000F3D123462A463046BDE8F04100F087BA00
:1006E000000000002D0000002B0000002000000092
:1006F00011680268006A530501D508700AE0D30545
:1007000001D5088006E0130603D5C217C1E900022F
:1007100000E0086001207047074B70B50D467B4430
:1007200000F04FFE0446284600F08AFE10B14FF05C
:10073000FF3070BD204670BD155200002DE9FF5FEF
:1007400015468A460446DFF8AC80F8440027D8E90D
:1007500000103E46CDE9001010E03AF816106A4647
:1007600002A800F00DFF411C07D02178890603D5AF
:10077000E269391891420DD80744761C207880062A
:1007800002D5E069B84205DDAE42E6DB3AF8160074
:100790000028E2D1A069C01BA0612046FFF709FF35
:1007A000D8E90010CDE90010002017E03AF8181041
:1007B0006A4602A800F0E4FEB0F1FF3F81460BD08C
:1007C00000250DF1080B05E0D4E901211BF8050017
:1007D00090476D1C4D45F7D308F10100B0428046AB
:1007E000E4DB206A384420622046FFF7F8FEBDE8CB
:1007F000FF9F0000825200002DE9F0418046D21D8B
:1008000022F007020025D2E90002F52915A614D02E
:10081000011E72F1000106DA0023D0EB030063EB46
:10082000020211A608E0D8F800108B0701D50FA628
:1008300002E0490701D50EA601251146002408F162
:10084000240704E000F08EF930323A55641C50EA77
:100850000102F7D12B46324621464046BDE8F04121
:1008600000F0C5B9000000002D0000002B000000C2
:100870002000000030B4002100F1240408E002F060
:100880000705D208303542EA4372DB086554491C3B
:1008900052EA0305F3D10468002310A2250708D506
:1008A00004F020040C4304D0C46901230CA2641E8C
:1008B000C46130BC00F09BB910B5044621461068F5
:1008C000FFF7A7FE02462046BDE810400023D1E70F
:1008D000D21D22F00701D1E90023CBE70000000080
:1008E00030000000F0B40D460188090502D5214C06
:1008F0007C4402E01F4C7C440E34002100F12406AD
:1009000008E002F00F071209E75D42EA03721B09D3
:100910007754491C52EA0307F3D1027800231207E7
:1009200004D5702D06D009B1022311342246F0BC43
:1009300000F05DB901231034F8E770B504460D46A8
:1009400021461068FFF765FE024629462046BDE8AD
:1009500070400023C6E7D21D22F00703D3E900232D
:10096000C0E70368126843F0200303600823C361F3
:100970000023B7E7E45000002DE9F05F8946044604
:100980004FF0000ADFF874B1FB44C0F820A0204605
:10099000E1688847002874D0252806D0D4E90121D1
:1009A0009047206A401C2062F1E700265F462046FF
:1009B000E16888472028054607DB312D05D27819E4
:1009C00010F8200C08B10643F1E7B00701D526F076
:1009D0000406C4F81CA00027C4F818A02A2D09D0CA
:1009E000284604F0A1FF38B304EB8708303DC8F86F
:1009F000185019E059F8041B204604EB8702916156
:100A0000E1688847012F054618D1E069002820DAFF
:100A100026F020061DE0D8F8180000EB800005EB5A
:100A200040003038C8F818002046E168884705467D
:100A300004F07AFF0028EED1012F0AD02E2D08D124
:100A40002046E16888477F1C0546022F46F02006B5
:100A5000C4DBA069002803DA404246F00106A06129
:100A6000F00701D026F010066C2D0BD0682D09D0B0
:100A70004C2D39D06A2D35D0742D35D07A2D33D008
:100A800016E038E0E1682F4620468847B842054620
:100A900009D16C2F26D04FF48060E16806432046D0
:100AA0008847054604E06C2F1AD04FF48070064347
:100AB0000DB3A5F14100192802D8203546F400668F
:100AC0004A462946204626604E46FFF7ADFB80B1D8
:100AD00001280BD0F61D26F0070000F1080956E7A3
:100AE0004020E4E78020D8E70020D6E706F104099B
:100AF0004DE7284652E7206ABDE8F09F7450000099
:100B000010B5203AC0F00B80B1E81850A0E818509A
:100B1000B1E81850A0E81850203ABFF4F5AF5FEAEA
:100B2000027C24BFB1E81850A0E8185044BF18C98F
:100B300018C0BDE810405FEA827C24BF51F8043B36
:100B400040F8043B08BF7047D20728BF31F8023B8A
:100B500048BF11F8012B28BF20F8023B48BF00F81E
:100B6000012B704730B5B0F10A0271F100034FEA72
:100B7000900E4EEA817EB0EB0E0061EB91014FEAE0
:100B8000101E4EEA017E10EB0E0041EB11114FEAF0
:100B9000102E4EEA016E10EB0E0041EB11214FEAD0
:100BA000104E4EEA014E10EB0E0041EB1141401881
:100BB00041F100014FEAD00040EA41704FEAD10113
:100BC0004FEA810444EA907410EB800544EB010481
:100BD0006D1944EB0404521BA3414FF0000348BFBE
:100BE0000A3200D530BD401C41F1000130BD2DE975
:100BF000F0470D4699469246044600F124080168E4
:100C0000880604D5E06921F01001216000E0012090
:100C1000A84201DD471B00E00027A1697A1902EB19
:100C20000900081AA0612078C00602D42046FFF708
:100C3000C0FC002608E0D4E901211AF8060090471C
:100C4000206A401C761C20624E45F4DB2078C006EA
:100C50000AD52046FFF7ADFC06E0D4E9012130209B
:100C60009047206A401C2062381EA7F10107F4DC7F
:100C700007E0D4E9012118F805009047206A401CDC
:100C80002062281EA5F10105F3DC2046FFF7A7FC32
:100C90002078000602D50220BDE8F0870120FBE79E
:100CA0002DE9FF4F0C461E464FF0FF378BB0D2E9BF
:100CB0000001DDF860800A908A46C1F30A5505B943
:100CC0003D46002108464FF00000BAF1000F00F445
:100CD000400005DA00EB80004FF4400101EA5000CB
:100CE0004FEA9059B9F1010F00DDB9460A9850EA70
:100CF0004A000ED044F61050A5F2FF3545432F149C
:100D0000B8F1000F1ED07542291E1EDDC9F1000288
:100D10001CE0B8F1010F4FF0000001D0302103E0DA
:100D2000F24305E02154401CB042FBDB3046002278
:100D3000002121540B99C1F80880C1E900200FB0AF
:100D4000BDE8F08FBD1B6D1CDEE74A4600DA694244
:100D500006A800F0D3FC06AB93E8070003AB83E8DA
:100D6000070050460A9904F0FFF98DE80700A0F546
:100D700000501F3800900398002D0ADD42F21F0139
:100D80004A460844002303A90390684604F068FC1F
:100D900009E0A0F500504A461F38002303A903903C
:100DA000684604F072FC8DE807000004000C03D0D4
:100DB0004FF0FF30410800E01046B8F1000F03D0BB
:100DC0000022009215461EE0751E05D4FFF7CAFEEC
:100DD000303262556D1EF9D5B3460122084302D068
:100DE00000227F1C04E02078302801D100227F1EE1
:100DF000002A099784D01DE0112D07DAFFF7B2FE13
:100E0000303262556D1C50EA0102F5D1084302D020
:100E10000098C8B10EE00021681E05E0235C625C0A
:100E200063542254401E491C8142F7DBAB46A81B89
:100E3000401E0990002004F80B000B98099AC0F896
:100E40000880C0E9002B7AE711264FF0000857E729
:100E50002DE9F04F88460446D21D22F0070191B0DB
:100E6000D1E90001CDE90A0104F046FD02460B98E4
:100E7000C00F01D02D2007E02068810701D52B206D
:100E800002E0202101EAC000032A099001D0072ACC
:100E900005DB03464146204600F0F0FB0BE12078DD
:100EA000800601D5E06900E00620B8F1650F8146B3
:100EB00006D0B8F1660F18D0B8F1670F70D131E0E5
:100EC0000020B9F1110F009001DB112301E009F1BD
:100ED00001030AAA01A90CA8FFF7E2FEDDE90C70E4
:100EE000002609F10105834647E001204B460090AA
:100EF0004FF000470AAA01A90CA8FFF7D1FEDDE9CF
:100F00000DB00C995D46002610B909F101000D18CD
:100F1000B9EB050003D4C0F1FF3609F10105A5EBDB
:100F200009002BE0B9F1010F01DA4FF001090020AF
:100F3000B9F1110F0090484601DD112300E003468E
:100F40000AAA01A90CA8FFF7ABFEDDE90C704D461B
:100F500000268346207800070AD4AB4500DA5D46B8
:100F600001A8012D04DD411911F8011C302907D019
:100F70004F4502DA17F1040F04DA012082460FE030
:100F80006D1EEEE7002F02DCED1B3E4403E0781CF3
:100F9000A84200DD7D1CB81B00F1010A4FF000479C
:100FA0002078000703D4AA4501DB4FF0FF3A002167
:100FB000B7F1004F0DF143088DF8431024D0022003
:100FC0002B23002F01DA7F422D230A21021EA0F1DC
:100FD000010000DC5FB197FBF1FC97FBF1F201FB34
:100FE0001C7C17460CF1300C08F801CDEEE7A8F197
:100FF000010003702188090501D5452100E0652124
:10100000A0F1010800F8011C09980FA9A1EB08073D
:10101000FF1D00B10120411901EBEA70A1693844BC
:10102000081A401EA0612078C00602D42046FFF7AF
:10103000C0FA099828B1D4E901219047206A401CE0
:1010400020622078C00622D52046FFF7B2FA1EE0C3
:10105000002E04DBB34502DD01A8805D00E03020F6
:10106000D4E901219047206A401C2062761CAAF135
:1010700001005FEA000A0AD100F0D4FAC0680168F2
:10108000405CD4E901219047206A401C2062281E60
:10109000A5F10105DCDC07E0D4E9012118F8010B1A
:1010A0009047206A401C2062381EA7F10107F3DC3C
:1010B0002046FFF794FA032011B041E62DE9F04FE6
:1010C00004460D46D21D22F0070089B0D0E90097F2
:1010D0004846394604F010FC0246F80F01D02D2393
:1010E00007E02068810701D52B2302E0202101EAD7
:1010F000C0038DF820300BB1012000E00020032A4E
:10110000824601D0072A04DB2946204600F0B6FAC1
:101110003FE12078800601D40D2500E0E569C7F3A2
:101120000A560D2D49DA00214FEA175B08464FF0A9
:101130000000002F00F4400007DA00EB80004FF4BD
:10114000400100EBD07001EA60008115012901DD4A
:101150004FF0FF3100224FEA850CBCF1180F06D387
:101160001346ACF118004FF08052C24003E04FF438
:10117000801323FA0CF30CF10C0CBCF1200F04D3F8
:10118000ACF1200C09FA0CF001E007FA0CF0002990
:101190004FF0004801DD18B90FE00ED140450CD3E7
:1011A00019EB02095F4121B9404502D19F4329EA69
:1011B0000209BBEB175F00D0761C2088000502D522
:1011C0007B48784402E07A487844193808AA3023EA
:1011D00002F80A30037C0AF10101002E0AF1020A2A
:1011E00053546A4602DC4FF0300101E04FF0310108
:1011F0004FF001088DF8001002D0A6F2FF3603E090
:1012000059EA470100D06B4E002D02DC2178090716
:1012100004D54FF002082E218DF80110C44600219C
:101220000BE0C7F303433F01C35C491C6D1E02F88A
:101230000830052908F1010801DA002DF1DC002150
:101240000CE000EB1973491C1B786D1E082902F88D
:1012500008304FEA091908F1010801DA002DF0DC25
:1012600021688B0602D516E0A8F10108E04505DDEE
:1012700002EB080313F8013C302BF5D0B8F1000F56
:1012800009DD02EB080313F8013C2E2B03D10907FB
:1012900001D4A8F10108002D05DD3E2102F8081057
:1012A0006D1E08F10108407C002E02F8080008F1CC
:1012B000010804DA2D20764202F8080002E02B2013
:1012C00002F808000A214FF47A70864208F10108FA
:1012D0000BDB96FBF0F3303302F8083096FBF0F3AB
:1012E00008F1010800FB136601E0642E0CDB6420AA
:1012F00096FBF0F3303302F8083096FBF0F308F178
:10130000010800FB136601E00A2E06DB96FBF1F0F4
:10131000303002F8080008F1010896FBF1F001FBFB
:101320001060303002F80800A16908F1010808EBEC
:10133000050202EB0A00081AA0612078C00602D458
:101340002046FFF736F9216A08AE01EB0A00206259
:1013500004E0D4E9012116F8010B9047BAF1010A23
:10136000F7D22078C00602D52046FFF722F96E4654
:1013700009E016F8010B3E280FD0D4E9012190476F
:10138000206A401C2062B8F10108F2D22046FFF723
:1013900026F909B00320BDE8F08F206A28442062B6
:1013A00003E0D4E90121302090476D1EEBD3F8E72C
:1013B0005E48000002FCFFFF01694A1C02610878D8
:1013C000704700B58FB0CDE9013100210591054985
:1013D0007944CDE9031011466846FFF7CDFA0FB006
:1013E00000BD0000E5FFFFFF10B5436913B1AFF387
:1013F000008001E0FFF716F9012010BD127800F11E
:1014000024010A7000224A700122EDE711684FF0B2
:10141000FF32E9E710B5436913B1AFF3008001E093
:10142000FFF78CF9012010BD128800F1240182849D
:101430000022C2840122EDE711684FF0FF32E9E794
:10144000007B00F08000704710B542485421FFF740
:1014500048F841485421FFF744F840485421FFF729
:1014600040F83F493B483C4A3F4B08603D490A60D1
:101470003A491960531C0365481C10650120086532
:101480003B48344A39A1784400F0BEFA20B93848C4
:1014900078440A3800F05FFB37482F4A35A178447A
:1014A00000F0B2FA20B9344878440A3800F053FB0F
:1014B00032482A4A2FA1784400F0A6FA20B92F48D2
:1014C00078440A3800F047FB40232248DC00002122
:1014D000224600F076FA20B125487844543800F0CE
:1014E0003AFB1D4822464023002100F06AFA20B151
:1014F00021487844543800F02EFB18482246102327
:10150000002100F05EFA002806D01C487844BDE8AF
:101510001040563800F01FBB10BD104870B5006D6C
:1015200020F001040B4800F0E7FA0B4800F0E4FA61
:101530000A4800F0E1FA09E0206D20F0010520469C
:1015400000F0DAFA204600F071F82C46002CF3D1B6
:1015500070BD00004000002094000020E800002042
:10156000000000200400002008000020720000009D
:101570007246000077000000614600003A46000015
:101580002DE9F04116460C46054600F043F8036885
:1015900093F80101012807D0FF2C12D8185D80B103
:1015A00001202C70BDE8F081D3F8070132462146B6
:1015B00003F20713C7182846BC46BDE8F0410023D4
:1015C00060474FF0FF30EDE7754600F0CBFAAE46CE
:1015D00005006946534620F00700854618B020B53F
:1015E000FEF7A4FEBDE820404FF000064FF00007D4
:1015F0004FF000084FF0000BAC46ACE8C009ACE877
:10160000C009ACE8C009ACE8C00921F007018D466B
:101610007047000010B500F005F8001D10BD00BFB8
:1016200061430000004870475C01002070B504462B
:10163000051F00F09BFA0068002C14BF446870BDC1
:10164000002C18BFAC423CBF20466468F8D3016848
:101650000A18AA4218BF456003D12A6805461144FA
:10166000016028684119A1421CBF6C6070BD6168AF
:10167000696021680844286070BD00002DE9F041D0
:101680001F46044603260168072A01F4006004DBB4
:1016900008B116A505E016A503E008B115A500E000
:1016A00015A521F010002060A069C01EA0610FB137
:1016B000401EA0612046FEF77CFF4FB1D4E9012116
:1016C00038469047206A401C2062C01C206206E019
:1016D000206AFAE7D4E9012115F8010B9047761E3C
:1016E000F8D22046FEF77BFFBDE8F0814E414E0068
:1016F0006E616E00494E4600696E66002DE9F04746
:10170000814616468AB0354878440DC88DE80D00EC
:1017100032487844801C03AC0DC884E80D0041F6C3
:101720009B300844372190FBF1F290FBF1F5A5F1D5
:10173000800501FB12041B3C02D56442012000E03D
:101740000020DFF898A080460027FA44AAF1BE0ADC
:101750000EE0E0070AD03246684607EB4701012356
:101760000AEB810103F091FF8DE8070064107F1CF4
:10177000002CEED1194F7F44AE3F19E0E80715D099
:1017800007EB04100DF1180A90E80E008AE80E002D
:10179000C068F04201D1981908903246012306A989
:1017A00003A803F072FF03AB83E807006D10641C0D
:1017B000002DE3D14FF0010332466946B8F1000F26
:1017C00003A802D003F04CFF01E003F05EFFC9E97B
:1017D0000001C9F808200AB0BDE8F087A84300005E
:1017E0002DE9F05F054617460C46C86820F4201026
:1017F00040F48000C860800602D5084600F00FFB68
:10180000E06841F282014FF0FF3A0140022903D023
:10181000204600F0A1FAB9E000F42041B1F5004FF4
:101820000FD1C00306D56168E06A884200D8084637
:10183000606006E02069E0626060606903F0A4F91E
:10184000A061A0680022EEB200280DDAE1688B05E5
:101850000AD4C043A06041F490302260E060606828
:10186000411C61600670AAE0E0689146226040F485
:101870000050E060206978BB606903F0ABF904F1C7
:1018800024054FF00108A8B1A08910F4407F08D0CA
:10189000E06900F0B6F9206118B1E06840F400603A
:1018A00017E0C4F81C802561E06820F4407040F423
:1018B00080600EE0E06900F0A4F900282061F0D01B
:1018C000E06840F4006010F4407FE06002D140F432
:1018D0008070E06020696060E06825696FF0010B4E
:1018E000C1051ED56168E06A884200D80846411BE0
:1018F00004D02246284600F039FAE8BB1FB1E56261
:10190000C4E9015959E0681CE0626060E069401E6A
:10191000A060E06840F48030E06030462E70BDE8A2
:10192000F09F17B100F480320AE06068411C6160EA
:101930000670E0680A2E40F48030E06006D0002295
:10194000E16A6068814203D90B4602E00122F7E7B1
:101950000346B4F80CC05B1B5FEA4C5C04D4D4F8BB
:101960001CC09C4500DD02B3814200D80146002B1B
:10197000A1EB0008E56200E008E0C4E9015907DDD9
:1019800022461946284600F0F1F908B15046C6E74C
:10199000B8F1000F09D0A169E5626560A1EB08000C
:1019A000A061E06840F01000E06047B16168A069A4
:1019B000E562491B08446560A0615846AFE73046C0
:1019C000ADE770B5C468A50713D0650211D4B2F5B0
:1019D000807F09D0B2F5007F06D0B2F5806F08D1C4
:1019E000012300F1240106E05D1E6FF07F46B54241
:1019F00001D3012070BD0161C361416024F47061B5
:101A00001143C160002070BD2DE9F0410C4616461F
:101A1000070047D0104600F06FF82078611C61285D
:101A20000AD0722802D077283CD102E00125002498
:101A300005E00225042402E0082448F2020511F81A
:101A4000010B2B2806D0622809D011F8010C74284C
:101A50000AD00BE045F0030544F00204EFE745F03F
:101A6000040544F00104EAE744F010043846214636
:101A700003F0D4F8411C15D00021316171604FF49E
:101A80000071F560F1617061200704D530460222D3
:101A9000002100F0E5F8306D40F00100306530467F
:101AA000BDE8F0810020FBE72DE9F0410D46064638
:101AB000104C206DC10704D0410804D020F001046F
:101AC000F7E722460EE0542000F09BF807000ED006
:101AD000206D47F001010843542120653846FEF788
:101AE00000FD3A4629463046BDE8F0418CE700202B
:101AF000D6E70000400000202DE9F04704464FF0F3
:101B0000FF380026C568D4E90497A80718D02046F6
:101B100000F062F9384603F011F8002800DA464672
:101B2000280502D54846FFF781FD4C212046FEF7E7
:101B3000D8FC206D20F0010020653046BDE8F0871C
:101B40004046FBE710B50446AFF300802046BDE8F1
:101B50001040FEF7D6BB10B500F088F9BDE8104084
:101B600000F07EB9004870473C01002000487047F3
:101B700044010020704770477047704738B50446ED
:101B80000A4600206946AFF30080002808BF38BD30
:101B900002460099204600F08FF9012038BD01204F
:101BA00000F0DEB9F8B5AFF30080054600200C4622
:101BB0000C2000BF0646A819A0420DD9324669463E
:101BC0000020AFF30080070008BF00F0C9F90098BB
:101BD000A04218BF0546C419FFF7C8FF05600746B5
:101BE000F01D20F007004619284600F05FF9B442C6
:101BF00008BFF8BDA21B31463868BDE8F84000F0C8
:101C00005BB970B50646FFF7B1FF056806F10B003A
:101C100020F00704B4429CBF002070BD2B466A68C8
:101C2000BAB11068A04210D304F1080188423CBF49
:101C30005068586007D35168101941601168091B3A
:101C4000016058601460101D70BD13465268002A70
:101C5000E7D121462846FFF791FF0028DED170BD6D
:101C60002DE9F041044616460D464769007B800782
:101C70002ED0384602F0AEFF50BB3EB3012E02D04C
:101C8000022E25D104E0204600F030F905441DE085
:101C9000384602F079FFE168002841F01001E16068
:101CA00005DA204600F058F80120BDE8F081C903AC
:101CB0000BD56268E16A914200D81146A2691144CD
:101CC0002269891A814200DD08460544002D01DAA7
:101CD0000220EAE7E16A6068E268814206D2910385
:101CE000E06203D522F4003141F01002A66900271A
:101CF000AE4213DCE16A814201D90B4600E00346A3
:101D000003EB060C2369ACEB030CAC4506DD81420A
:101D100001D98C4600E084469C4505D1A760276028
:101D200042F02000A5620DE0AD1BE669AE1B8142CA
:101D3000A66000D90846C01A281A206058196060A9
:101D400022F0200003490840E060002084F8487039
:101D5000ABE70000BFCFD7FFC16821F4001141F00D
:101D60008001C16000218160016070472DE9F74F5B
:101D700015460C464FF0FF3B3848D768D2F814A000
:101D8000074209D05046A96902F08AFF002819DBF2
:101D90003248C0430740EF604FF000496FF0004801
:101DA0004C4501D3464600E0264600993B46504646
:101DB000324602F09FFFA96920F00042B21A114496
:101DC000A96128B12846FFF7C7FF5846BDE8FE8F36
:101DD000A41BE5D10020F9E770B504460569C06A87
:101DE0006168884200D80846E16821F42011E1606A
:101DF000C90312D5A84208D02246411B2846FFF746
:101E0000B5FF10B14FF0FF3070BD0020E562C4E9AE
:101E10000150E06820F48030E060002070BD10B513
:101E20000446C06820F02000E060A16AA0698842F2
:101E30000DD02046FFF7D0FFE06820F4405040F07E
:101E40001000E060A06AA0612069E062606044F276
:101E50004001E0688843E06010BD0000100002000F
:101E6000002801D000F01CB87047000010B50146F2
:101E700002A000F05CF8012010BD00005349475259
:101E8000545245443A2052656469726563743A203D
:101E900063616E2774206F70656E3A200000000049
:101EA00001491820ABBEFEE72600020000210160B8
:101EB000416070470C207047034640688C460028FC
:101EC00018BF88423CBF03464068F8D318681844DE
:101ED000884207D00CF1030020F00700001D411AD2
:101EE000521A0146081D0A60FFF7A0BB10B5014653
:101EF000C268900703D0900607D5886A0AE000F010
:101F00003FF801210160881E10BD8B6948681844A4
:101F10000B69C01A91F848301BB191F84910401A6A
:101F200010BD1103FCD50028FADD401E10BD70B5B0
:101F300005460C460A2000E06D1C00F018F835B18B
:101F400028780028F8D102E0641C00F010F814B1E1
:101F500020780028F8D1BDE870400A2000F007B8CA
:101F600010B500F011F8BDE81040FFF779BF08B5D3
:101F700069468DF800000320ABBE08BD7047000025
:101F8000004870473C01002010B5012805D0002111
:101F900003A0FFF7CCFF012010BD09A1F8E7000066
:101FA00053494752544D454D3A204F7574206F6642
:101FB0002068656170206D656D6F727900000000AA
:101FC0003A2048656170206D656D6F727920636F8E
:101FD0007272757074656400FFE7FEE780B540F2C9
:101FE000F410C2F2000000F00BFE80BD80B540F29C
:101FF000F410C2F2000000F003FE80BD80B540F294
:10200000F410C2F2000000F0FBFD80BD80B540F28C
:102010001C20C2F2000000F0F3FD80BD80B540F24C
:102020001C20C2F2000000F0EBFD80BD80B540F244
:102030001C20C2F2000000F0E3FD80BD70470000EC
:1020400072B6FFE7FEE7000082B0019048F2003070
:10205000C2F20000007818B9FFE7002000900EE0FF
:102060000199C1F3C62248F28020C2F20000805CD0
:10207000C1F30221C84000F001000090FFE7009882
:1020800002B0704780B586B048F20030C2F200005E
:1020900080690390FFE700F0CDFA0490049803995B
:1020A00088422CD2FFE7EFF310800590059802904C
:1020B00072B648F20030C2F20000806901900198C7
:1020C000039988420ED1FFE7049848F20031C2F22A
:1020D00000018861086901300861BFF35F8F01204A
:1020E000009002E000200090FFE7029810B9FFE79F
:1020F00062B6FFE7009808B9FFE701E00CE0FFE7F0
:10210000049A48F20030C2F20000183003A902F02D
:102110002DFE0028BFD0FFE7049806B080BD000068
:1021200080B58CB0099008910792089828B1FFE714
:102130000798B0F5807F03D9FFE700200A90AFE051
:102140000998FFF781FF18B9FFE701200A90A7E07F
:10215000FFF798FF0590BDF824000990EFF3058084
:102160000B900B9A099840F40021002A18BF0846EA
:10217000099008980690079850B9FFE709980599C3
:1021800000231A4600F090F8019001980A9087E029
:10219000079808281BD8FFE70020029003900699B3
:1021A000079A02A8FEF758F9079800F00701099866
:1021B00040EA01400990099840F040700599029A60
:1021C000039B00F071F8019001980A9068E000F01C
:1021D0004FFA01464FF4E02000EA014004900699CE
:1021E000086849680391029006980830069007989D
:1021F000083807900499099808430990099840F015
:1022000080700599029A039B00F04EF801900198A6
:1022100018B9FFE700200A9042E004984FF60171D8
:1022200008430990FFE7079809281CD3FFE70699A0
:10223000086849680391029006980830069007984C
:102240000838079009980599029A039B00F02CF82A
:102250000190099801300990019818B9FFE7002012
:102260000A901DE0DFE70020029003900699079A8C
:1022700002A8FEF7F1F8099820F47F400990079929
:10228000099840EA01200990099840F000700599EA
:10229000029A039B00F008F8019001980A90FFE76A
:1022A0000A980CB080BD000080B58CB00A900991EE
:1022B0000892079307200590FFE70598002863D050
:1022C000FFE700F0DFF9049004996FF3DF2140F29B
:1022D0008020C2F2000000EB0110069004994FF438
:1022E000700000EA412001900A9801990843099A78
:1022F0004FF0805101EAD2010843089A4FF0005193
:1023000001EA92010843079A4FF0804101EA520125
:10231000084340F00060039006980C30039902F0E7
:10232000F7F803909DF80F004007002827D5FFE736
:10233000039880F000400390039800F00040029062
:10234000099820F00040029908430699086008980F
:1023500020F000400299084306994860079820F051
:102360000040029908430699886006980C3003994A
:1023700002F056FB02F0C2F801200B9009E0FFE7E3
:1023800005980138059098E702F0AEF800200B9010
:10239000FFE70B980CB080BD87B0059004910392C5
:1023A0000498FE2804D8FFE70398FF2803D3FFE72B
:1023B0000020069036E0002002900190FFE701988F
:1023C00003282CD8FFE705980199C840C007F0B151
:1023D000FFE704980090FFE700980399884215D81A
:1023E000FFE7009901F00702012000FA02F30298CA
:1023F00000EBD10248F28021C2F20001885C184350
:102400008854FFE7009801300090E5E7FFE7029865
:1024100020300290FFE7019801300190CFE70120C2
:102420000690FFE7069807B07047000080B58AB0B5
:102430000990089148F20031C2F200010191002098
:10244000087048F28020C2F200008021FEF749F8AF
:1024500045F6DC20C0F60000182102F009FD014617
:102460000198ADF81A10006A42F26B71CEF2A51114
:1024700088420FD0FFE748F20031C2F2000142F279
:102480006B70CEF2A5100862BDF81A0048800120DA
:10249000C8611CE048F20030C2F200004088BDF87C
:1024A0001A1088420AD0FFE7BDF81A0048F200313E
:1024B000C2F2000148800120C86107E048F2003103
:1024C000C2F20001C8690130C861FFE7FFE748F2C6
:1024D0000030C2F20000C069012812D1FFE748F2C3
:1024E0000031C2F200010020487048608860C86076
:1024F00040F28020C2F200004FF40041FDF7F1FFEE
:1025000022E000200290FFE702990020B0EBD12FDB
:1025100019D1FFE7029940F28020C2F2000000EBDF
:10252000011007900798C07B4007002806D5FFE7F9
:102530000799C86820F04060C860FFE7FFE702988D
:1025400001300290E0E7FFE748F20030C2F20000FD
:10255000C069012817D1FFE700F078F804900498CB
:1025600020B1FFE700F06CF8059002E00020059034
:10257000FFE7059848F20031C2F2000148610020EF
:102580008861086103E000F061F80490FFE70498B7
:1025900038B3FFE709980021FE220092FFF7FCFE06
:1025A0000F20EF221146FFF7F7FE009A0420114694
:1025B000FFF7F2FEFFF766FD0390039948F2003043
:1025C000C2F200004369C2694FF60070C0F20030E9
:1025D000FFF76AFE089818B1FFE700F005F8FFE77B
:1025E000FFE704980AB080BD80B584B048F200309F
:1025F000C2F20000007818B1FFE70120039015E057
:1026000048F20031C2F20001012001900870FFF78A
:1026100039FD029002994FF60170C0F2003000239C
:102620001A46FFF741FE01980390FFE7039804B0B4
:1026300080BD000041F20400CEF200000068704747
:1026400040F20C00C2F20000006870474EF6FC51E8
:10265000CEF20001086840F08070086041F200018D
:10266000CEF20001086840F00100086001207047C8
:1026700080B548F20030C2F20000013002F0CCFB1D
:1026800080BD000080B548F20030C2F20000043086
:1026900002F09CFB80BD000084B002900191029882
:1026A00090F820008DF803009DF80300012805D064
:1026B000FFE79DF8030002280AD1FFE7019A02987C
:1026C000016848691043486100208DF80F0008E058
:1026D0000299486A40F48020486201208DF80F007A
:1026E000FFE79DF80F0004B07047000088B0069027
:1026F000059104920393069890F820008DF8070046
:1027000006980068806800900598806808B9FFE71F
:1027100000E0FFE79DF80700012806D0FFE79DF8DD
:102720000700022840F08080FFE79DF80300400783
:1027300000280CD4FFE79DF803000007002806D40A
:10274000FFE79DF80300C006002864D5FFE7009866
:10275000C0F301600290029901208840039908604B
:102760000598806868B9FFE705980168C06840EA85
:10277000415006990968029A01EB0211C1F88001E3
:102780000EE005994A688868C96840EAC2000843B3
:1027900006990968029A01EB0211C1F88001FFE76E
:1027A0000598006906990968029A01EB0211C1F8BF
:1027B00084010598007D01280CD1FFE70698006888
:1027C000029900EB0111D1F8840140F48070C1F846
:1027D0008401FFE70498406806990968029A01EBB2
:1027E0000211C1F88C010498006806990968029AE0
:1027F00001EB0211C1F8880106980068029900EB0C
:102800000111D1F8800140F00100C1F880010020E1
:102810008DF81F0011E00699486A40F400104862E4
:1028200001208DF81F0008E00699486A40F48020D6
:10283000486201208DF81F00FFE79DF81F0008B0D7
:102840007047000086B004900391049890F820002F
:102850008DF803009DF80300012806D0FFE79DF8DE
:102860000300022840F0B080FFE746F20040C4F2C7
:10287000000001900199D1F8000240F00100C1F878
:1028800000020199D1F8000220F47C50C1F8000246
:102890000398426A0199D1F8000240EA0220C1F887
:1028A00000020398406900F01F0101208840029057
:1028B000029A0199D1F81C029043C1F81C020398B6
:1028C000C069F0B9FFE7029A0199D1F80C02904370
:1028D000C1F80C02039A9088D168526940EA01401D
:1028E000019901EBC201C1F84002039A1088916876
:1028F000526940EA0140019901EBC201C1F844026A
:10290000FFE70398C06901281ED1FFE7029A0199E9
:10291000D1F80C021043C1F80C02039A9088116898
:10292000526940EA0140019901EBC201C1F840023D
:10293000039A90899168526940EA0140019901EB3C
:10294000C201C1F84402FFE70398806940B9FFE77C
:10295000029A0199D1F804029043C1F8040207E0F9
:10296000029A0199D1F804021043C1F80402FFE76A
:102970000398006940B9FFE7029A0199D1F814025F
:102980009043C1F8140207E0029A0199D1F81402A9
:102990001043C1F81402FFE70398006A012808D128
:1029A000FFE7029A0199D1F81C021043C1F81C02FA
:1029B000FFE70199D1F8000220F00100C1F8000200
:1029C00000208DF8170008E00499486A40F4802040
:1029D000486201208DF81700FFE79DF8170006B048
:1029E0007047000081B0009001B0704786B004903D
:1029F000039102920193049890F820008DF803004F
:102A00009DF80300012806D0FFE79DF80300022887
:102A100040F0E880FFE7039880B9FFE7049800687A
:102A2000C068800748B9FFE70499486A40F400107D
:102A3000486201208DF81700DDE00FE0049800687F
:102A40000069800748B9FFE70499486A40F400101C
:102A5000486201208DF81700CDE0FFE70498006878
:102A6000039900EB0110D0F8B00100F004000299C6
:102A700088600298806858B9FFE704980068039955
:102A800000EB0110D0F8B001400D029908600AE097
:102A900004980068039900EB0110D0F8B001C00859
:102AA00002994860FFE704980068039900EB011061
:102AB000D0F8B00100F002000299C86004980068E4
:102AC000039900EB0110D0F8B40100F00F000828C2
:102AD00004D3FFE70299082008610BE0049800681E
:102AE000039900EB0110D0F8B40100F00F00029937
:102AF0000861FFE704980068039900EB0110D0F823
:102B0000B40180B2000A02998861049800680399B0
:102B100000EB0110D0F8B401000C02994861049850
:102B20000068039900EB0110D0F8B8010199087012
:102B300004980068039900EB0110D0F8B801000A6E
:102B40000199487004980068039900EB0110D0F8CF
:102B5000B801000C0199887004980068039900EB93
:102B60000110D0F8B801000E0199C87004980068EF
:102B7000039900EB0110D0F8BC0101990871049889
:102B80000068039900EB0110D0F8BC01000A01991C
:102B9000487104980068039900EB0110D0F8BC015B
:102BA000000C0199887104980068039900EB0110EA
:102BB000D0F8BC01000E0199C871039838B9FFE73D
:102BC00004980168C86840F02000C86006E00498D6
:102BD0000168086940F020000861FFE700208DF8D7
:102BE000170008E00499486A40F4802048620120F8
:102BF0008DF81700FFE79DF8170006B0704700003A
:102C000080B58AB009900020089009980068406952
:102C100007900998006840680690099800688068E5
:102C2000059009980068C0680490099800680069D8
:102C3000039009980068806902909DF81C00C00705
:102C4000002800F09480FFE79DF81400C00758B3F7
:102C5000FFE709980168012088609DF8140080074B
:102C6000002804D5FFE7099800F05EFC1BE09DF802
:102C700014004007002805D5FFE7089840F40060DD
:102C800008900FE09DF814000007002805D5FFE725
:102C9000089840F48050089003E0099800F040FC48
:102CA000FFE7FFE7FFE7FFE79DF81500C00760B308
:102CB000FFE7099801684FF4807088609DF815005F
:102CC0008007002804D5FFE7099800F035FC1BE0D9
:102CD0009DF815004007002805D5FFE7089840F447
:102CE000005008900FE09DF815000007002805D55A
:102CF000FFE7089840F48040089003E0099800F04E
:102D000017FCFFE7FFE7FFE7FFE79DF81600C007A6
:102D100060B3FFE7099801684FF4803088609DF840
:102D200016008007002804D5FFE7099800F00CFC86
:102D30001BE09DF816004007002805D5FFE708981E
:102D400040F4004008900FE09DF8160000070028AE
:102D500005D5FFE7089840F48030089003E0099813
:102D600000F0EEFBFFE7FFE7FFE7FFE7FFE79DF877
:102D70001C000007002810D5FFE79DF81000C006D2
:102D8000002809D5FFE7089840F4007008900998DA
:102D900001681020C860FFE7FFE79DF81C004007AE
:102DA00000280FD5FFE79DF810000007002808D580
:102DB000FFE7099801680820C860099800F0F2FA56
:102DC000FFE7FFE79DF81C00800700280BD5FFE711
:102DD00009980068C068800720B1FFE7099800F0F3
:102DE000E5FAFFE7FFE79DF81C004006002810D534
:102DF000FFE79DF80C00C006002809D5FFE70898FA
:102E000040F4806008900998016810200861FFE78D
:102E1000FFE79DF81C00800600280FD5FFE79DF80E
:102E20000C000007002808D5FFE709980168082072
:102E30000861099800F0F0FAFFE7FFE79DF81C0031
:102E4000C00600280BD5FFE70998006800698007D5
:102E500020B1FFE7099800F0E3FAFFE7FFE79DF8EC
:102E60001E00800700280FD5FFE79DF81800C00658
:102E7000002808D5FFE709980168102048600998E4
:102E800000F004FBFFE7FFE79DF81E00C00778B1E4
:102E9000FFE79DF818000007002808D5FFE709980C
:102EA000016808204860099800F052FBFFE7FFE73F
:102EB0009DF81D000006002840F18D80FFE79DF879
:102EC00018004007002840F18180FFE79DF81D00B1
:102ED000C00750B1FFE79DF80800C00728B1FFE721
:102EE000089840F001000890FFE79DF81D0080075A
:102EF00000280BD5FFE79DF808008007002805D5BE
:102F0000FFE7089840F002000890FFE79DF81D00D9
:102F1000400700280BD5FFE79DF808004007002870
:102F200005D5FFE7089840F004000890FFE79DF8FA
:102F30001D000007002848D5FFE79DF8080010F0A5
:102F4000700F42D0FFE7029800F070000146019137
:102F5000102814D0FFE70198202815D0FFE701982A
:102F6000302816D0FFE70198402817D0FFE70198D6
:102F7000502818D0FFE70198602819D01DE0089864
:102F800040F00800089019E0089840F01000089000
:102F900014E0089840F0200008900FE0089840F0F6
:102FA000400008900AE0089840F08000089005E092
:102FB000089840F48070089000E0FFE709980168E5
:102FC000886920F070008861FFE7FFE709980168D1
:102FD00004204860FFE7089848B1FFE7089A09997C
:102FE000486A104348620998FFF7FCFCFFE70AB003
:102FF00080BD000080B584B00290029820B9FFE740
:1030000001208DF80F00E0E0029890F8200020B930
:10301000FFE7029800F0DEF8FFE702980168086811
:1030200040F00100086000F095FC0190FFE7029875
:1030300000684068C007A8B9FFE700F08BFC019961
:10304000401A0B280DD3FFE70299486A40F400307C
:1030500048620299052081F8200001208DF80F00B8
:10306000B3E0E4E702980168086820F00200086015
:1030700000F070FC0190FFE702980068406880074C
:10308000002815D5FFE700F065FC0199401A0B28D0
:103090000DD3FFE70299486A40F400304862029974
:1030A000052081F8200001208DF80F008DE0E3E776
:1030B0000298007E012807D1FFE70298016808689E
:1030C00040F08000086006E002980168086820F07F
:1030D00080000860FFE70298407E012807D1FFE7E3
:1030E00002980168086840F04000086006E0029815
:1030F0000168086820F040000860FFE70298807EC1
:10310000012807D1FFE702980168086840F0200015
:10311000086006E002980168086820F02000086056
:10312000FFE70298C07E012807D1FFE702980168F7
:10313000086820F01000086006E00298016808683E
:1031400040F010000860FFE70298007F012807D1D7
:10315000FFE702980168086840F00800086006E090
:1031600002980168086820F008000860FFE70298EC
:10317000407F012807D1FFE702980168086840F006
:103180000400086006E002980168086820F0040066
:103190000860FFE7029B19685A689868D3F80CC06A
:1031A00040EA0C00D3F810C040EA0C005B691843F9
:1031B000013A1043C861029900204862029A012135
:1031C00082F820108DF80F00FFE79DF80F0004B083
:1031D00080BD000080B594B0139000201290119033
:1031E00010900F900E901398006846F20041C4F2C0
:1031F000000188425CD1FFE740F2D010C2F200002B
:103200000168013101600068012812D1FFE7FFE782
:1032100000200D9043F64000C4F20200016841F026
:1032200000710160006800F000700D900D98FFE7DC
:10323000FFE7FFE700200C9043F63000C4F20200E5
:10324000016841F001010160006800F001000C908C
:103250000C98FFE74FF4C0500E9002200F90002012
:103260000790109003201190092012900020C4F2C2
:1032700002000EA900F092F9079A1320059011465A
:1032800000F000FC059800F0F3FB079A142006906C
:10329000114600F0F7FB069800F0EAFB079A1520AC
:1032A0000890114600F0EEFB089800F0E1FB76E094
:1032B0001398006846F60001C4F2000188426DD1FF
:1032C000FFE7FFE700200B9043F64000C4F2020046
:1032D000016841F080610160006800F080600B903F
:1032E0000B98FFE740F2D010C2F2000001680131F4
:1032F00001600068012812D1FFE7FFE700200A9073
:1033000043F64000C4F20200016841F00071016020
:10331000006800F000700A900A98FFE7FFE7FFE7F7
:103320000020099043F63000C4F20200016841F029
:1033300002010160006800F0020009900998FFE7AF
:1033400060200E9002200F90002003901090032028
:1033500011900920129040F20040C4F202000EA920
:1033600000F01CF9039A3F200190114600F08AFBFF
:10337000019800F07DFB039A40200290114600F076
:1033800081FB029800F074FB039A412004901146DF
:1033900000F078FB049800F06BFBFFE7FFE714B048
:1033A00080BD000081B0009001B0704780B582B050
:1033B0000190019840F29C12C2F2000240F2E01328
:1033C000C2F200030021FFF711FB18B1FFE7FEF77F
:1033D00037FEFFE70198006846F20041C4F20001A1
:1033E000884207D1FFE745F61530C0F60000FDF72B
:1033F00027F8FFE70198006846F60001C4F20001D3
:10340000884207D1FFE745F62230C0F60000FDF7FD
:1034100017F8FFE702B080BD81B0009001B070479F
:1034200080B582B00190019840F29C12C2F2000275
:1034300040F2E013C2F200030121FFF7D7FA18B1FE
:10344000FFE7FEF7FDFDFFE70198006846F2004147
:10345000C4F20001884207D1FFE745F62F30C0F6DD
:103460000000FCF7EDFFFFE70198006846F6000159
:10347000C4F20001884207D1FFE745F63C30C0F6B0
:103480000000FCF7DDFFFFE702B080BD81B00090D7
:1034900001B0704780B584B00290029890F8200087
:1034A00001282FD1FFE70299022081F8200002981D
:1034B0000168086820F00100086000F04BFA0190F4
:1034C000FFE7029800684068C007A8B1FFE700F076
:1034D00041FA0199401A0B280DD3FFE70299486A77
:1034E00040F4003048620299052081F82000012054
:1034F0008DF80F000FE0E4E70299002048628DF894
:103500000F0008E00299486A40F400204862012058
:103510008DF80F00FFE79DF80F0004B080BD00009C
:1035200081B0009001B0704781B0009001B0704749
:1035300081B0009001B0704781B0009001B0704739
:1035400081B0009001B0704781B0009001B0704729
:1035500081B0009001B0704780B584B0039000F056
:10356000F9F90290039801900198013048B1FFE702
:1035700040F21000C2F20000017801980844019066
:10358000FFE7FFE700F0E6F90299401A0199884247
:1035900001D2FFE7F6E704B080BD00008EB00D90C9
:1035A0000C9100200A90099008900B90FFE70B986F
:1035B0000F2800F2CC81FFE70B99012088400A9088
:1035C0000C9800680A990840099009980A9988425D
:1035D00040F0B881FFE70C98406800F00300012834
:1035E00007D0FFE70C98406800F0030002282FD1B5
:1035F000FFE70D98806808900B984100032000FABF
:1036000001F10898884308900C98C0680B9949000C
:1036100000FA01F108980843089008980D9988600D
:103620000D98406808900B99012000FA01F1089864
:10363000884308900C984068C0F300100B9900FA7A
:1036400001F108980843089008980D994860FFE731
:103650000C98406800F00300032818D0FFE70D988D
:10366000C06808900B984100032000FA01F1089807
:10367000884308900C9880680B99490000FA01F182
:1036800008980843089008980D99C860FFE70C98BF
:10369000406800F00300022826D1FFE70D980B993F
:1036A0006FF0030202EA51010844006A08900B9887
:1036B00000F0070081000F2000FA01F1089888430C
:1036C00008900C9800690B9901F00701890000FA35
:1036D00001F108980843089008980D990B9B02EA9D
:1036E000530211440862FFE70D98006808900B9898
:1036F0004100032000FA01F10898884308900C98D3
:10370000406800F003000B99490000FA01F10898A5
:103710000843089008980D9908600C9880798007F4
:10372000002800F00E81FFE7FFE70020079043F636
:103730004400C4F20200016841F480410160006865
:1037400000F4804007900798FFE70B9820F00300F3
:1037500043F60801C4F20101405808900B9800F0AC
:10376000030081000F2000FA01F1089888430890B7
:103770000D980021C4F20201884203D1FFE7002026
:1037800006905EE00D9840F20041C4F202018842CA
:1037900003D1FFE70120059050E00D9840F60001AD
:1037A000C4F20201884203D1FFE70220049042E004
:1037B0000D9840F60041C4F20201884203D1FFE7B0
:1037C0000320039034E00D9841F20001C4F202019D
:1037D000884203D1FFE70420029026E00D9841F2D1
:1037E0000041C4F20201884203D1FFE705200190A5
:1037F00018E00D9841F60001C4F20201884203D19D
:10380000FFE7062000900AE00D9941F60042C4F25D
:1038100002020820914208BF07200090FFE70098AD
:103820000190FFE701980290FFE702980390FFE7FD
:1038300003980490FFE704980590FFE70598069029
:10384000FFE70698C0B20B9901F00301890000FA66
:1038500001F108980843089008980B9921F003019A
:1038600043F60802C4F20102885043F60840C4F24D
:1038700001000068089009990898884308900C98FE
:103880008079C006002805D5FFE709990898084304
:103890000890FFE7089843F60841C4F20101086068
:1038A00043F60C40C4F2010000680890099908989A
:1038B000884308900C9880798006002805D5FFE79A
:1038C0000999089808430890FFE7089843F60C41C7
:1038D000C4F20101086043F60440C4F2010000682C
:1038E000089009990898884308900C988079800777
:1038F000002805D5FFE70999089808430890FFE7D5
:10390000089843F60441C4F20101086043F6004000
:10391000C4F201000068089009990898884308904B
:103920000C988079C00728B1FFE7099908980843E7
:103930000890FFE7089843F60041C4F201010860CF
:10394000FFE7FFE7FFE70B9801300B902FE60EB083
:103950007047000048F23030C2F200000068704743
:1039600040F21000C2F20000027848F23031C2F298
:1039700000010868104408607047000080B543F6F5
:103980000041C4F20201086840F400700860086851
:1039900040F480600860086840F48070086003208C
:1039A00000F08AF80F2000F005F800F03BF8002046
:1039B00080BD000080B582B0009040F20C00C2F2E1
:1039C0000000006840F21001C2F200010A784FF4D2
:1039D0007A71B1FBF2F1B0FBF1F000F07BFD20B1A8
:1039E000FFE701208DF8070018E000980F280DD898
:1039F000FFE700994FF0FF30002200F043F80098F5
:103A000040F21401C2F20001086003E001208DF8C9
:103A1000070003E000208DF80700FFE79DF807008E
:103A200002B080BD82B0FFE70020019043F6440061
:103A3000C4F20200016841F480410160006800F4B2
:103A4000804001900198FFE7FFE70020009043F6D7
:103A50004000C4F20200016841F08051016000683A
:103A600000F0805000900098FFE702B0704700001F
:103A700080B582B08DF807009DF9070000F0FEFFC9
:103A800002B080BD80B586B08DF817000491039216
:103A90000020029001F00AF802909DF917000190B1
:103AA00002980499039A00F0E9FE0146019801F09A
:103AB00005F806B080BD000080B582B00190019885
:103AC00001F01EF802B080BD80B584B00290019173
:103AD000029820B9FFE701208DF80F0021E101983D
:103AE00043F60041C4F20201096801F0070188426F
:103AF00012D9FFE7019943F60040C4F202000170B9
:103B0000006800F007000199884204D0FFE7012017
:103B10008DF80F0005E1FFE7029800788007002884
:103B20002AD5FFE7029800784007002809D5FFE76B
:103B300043F60801C4F20201086840F4E05008604E
:103B4000FFE7029800780007002809D5FFE743F651
:103B50000801C4F20201086840F460400860FFE711
:103B600043F60801C4F20201086820F0F000029A4E
:103B7000926810430860FFE702980078C0070028A9
:103B80006ED0FFE702984068012811D1FFE743F6A5
:103B90000000C4F20200006800F400310020B0EB25
:103BA000514F04D1FFE701208DF80F00B9E02CE060
:103BB00002984068022805D0FFE702984068032871
:103BC00011D1FFE743F60000C4F20200006800F0E4
:103BD00000710020B0EB516F04D1FFE701208DF898
:103BE0000F009EE010E043F60000C4F202000068FF
:103BF00000F002010020B0EB510F04D1FFE70120DB
:103C00008DF80F008DE0FFE7FFE743F60801C4F2EF
:103C10000201086820F00300029A5268104308600D
:103C2000FFF798FE0090FFE743F60800C4F2020099
:103C3000006800F00C0002994968B0EB810F0ED0CB
:103C4000FFE7FFF787FE0099401A41F28931884269
:103C500004D3FFE703208DF80F0062E0E4E7FFE7FD
:103C6000019843F60041C4F20201096801F007011E
:103C7000884212D2FFE7019943F60040C4F20200E5
:103C80000170006800F007000199884204D0FFE746
:103C900001208DF80F0044E0FFE70298007840070C
:103CA00000280CD5FFE743F60801C4F202010868BA
:103CB00020F4E050029AD26810430860FFE70298AF
:103CC0000078000700280DD5FFE743F60801C4F28D
:103CD0000201086820F46040029A126940EAC200BA
:103CE0000860FFE700F022F843F60801C4F2020181
:103CF0000968C9B20A0945F6CC21C0F60001895C01
:103D0000C84040F20C01C2F20001086040F2140009
:103D1000C2F200000068FFF74DFE00208DF80F0092
:103D2000FFE79DF80F0004B080BD000080B586B0AD
:103D30000020059004900390029043F60800C4F21E
:103D40000200006800F00C000146019140B1FFE75D
:103D5000019804280AD0FFE7019808280CD04FE00A
:103D600042F20040C0F2F40002904FE047F64000FB
:103D7000C0F27D10029049E043F60400C4F2020054
:103D8000016801F03F01059100684002002813D549
:103D9000FFE743F60400C4F202000068C0F3881095
:103DA00047F64001C0F27D11A0FB0101059A0023F6
:103DB000FCF7CEFA049012E043F60400C4F20200CD
:103DC0000068C0F3881042F20041C0F2F401A0FB89
:103DD0000101059A0023FCF7BBFA0490FFE743F6C4
:103DE0000400C4F20200006800F44031022000EB3D
:103DF000D130039004980399B0FBF1F0029005E0F4
:103E000042F20040C0F2F4000290FFE7029806B0D0
:103E100080BD000080B586B00490049820B9FFE70B
:103E200001208DF8170050E304980078C00700289F
:103E300000F0A580FFE743F60800C4F20200006826
:103E400000F00C00042813D0FFE743F60800C4F28A
:103E50000200006800F00C0008281ED1FFE743F6BE
:103E60000400C4F2020000684002002815D5FFE7F4
:103E700043F60000C4F20200006800F400310020A4
:103E8000B0EB514F08D0FFE70498406820B9FFE736
:103E900001208DF8170018E370E0FFE704984068F0
:103EA000B0F5803F09D1FFE743F60001C4F20201FB
:103EB000086840F48030086020E004984068B0F55D
:103EC000A02F0DD1FFE743F60001C4F202010868FC
:103ED00040F480200860086840F4803008600CE0FE
:103EE00043F60001C4F20201086820F48030086043
:103EF000086820F480200860FFE7FFE7FFE70498E8
:103F00004068E8B1FFE7FFF725FD0390FFE743F6C0
:103F10000000C4F20200006800F400310020B0EBA1
:103F2000514F0CD1FFE7FFF715FD0399401A6528A3
:103F300004D3FFE703208DF81700C6E2E7E71CE093
:103F4000FFF708FD0390FFE743F60000C4F202000C
:103F5000006800F400310020B0EB514F0CD0FFE7B7
:103F6000FFF7F8FC0399401A652804D3FFE7032004
:103F70008DF81700A9E2E7E7FFE7FFE7FFE70498FE
:103F800000788007002840F19680FFE743F608009C
:103F9000C4F20200006810F00C0F13D0FFE743F6E4
:103FA0000800C4F20200006800F00C0008282CD1C0
:103FB000FFE743F60400C4F2020000684002002854
:103FC00023D4FFE743F60000C4F20200006800F0CB
:103FD00002010020B0EB510F09D0FFE70498C06840
:103FE000012804D0FFE701208DF817006DE243F6A9
:103FF0000001C4F20201086820F0F800049A126976
:1040000040EAC2000860FFE754E00498C06870B35B
:10401000FFE70021C4F2472101200860FFF79AFC66
:104020000390FFE743F60000C4F20200006800F0CE
:1040300002010020B0EB510F0CD1FFE7FFF78AFC23
:104040000399401A032804D3FFE703208DF81700D3
:104050003BE2E7E743F60001C4F20201086820F002
:10406000F800049A126940EAC200086021E00021C9
:10407000C4F2472100200860FFF76CFC0390FFE7C3
:1040800043F60000C4F20200006800F002010020C4
:10409000B0EB510F0CD0FFE7FFF75CFC0399401A1F
:1040A000032804D3FFE703208DF817000DE2E7E7AC
:1040B000FFE7FFE7FFE704980078000700284BD5EB
:1040C000FFE70498406918B3FFE740F68061C4F247
:1040D000472101200860FFF73DFC0390FFE743F60E
:1040E0007400C4F20200006800F002010020B0EB8E
:1040F000510F0CD1FFE7FFF72DFC0399401A03285D
:1041000004D3FFE703208DF81700DEE1E7E722E0A4
:1041100040F68061C4F2472100200860FFF71AFCD6
:104120000390FFE743F67400C4F20200006800F059
:1041300002010020B0EB510F0CD0FFE7FFF70AFCA3
:104140000399401A032804D3FFE703208DF81700D2
:10415000BBE1E7E7FFE7FFE70498007840070028A6
:1041600040F1CE80FFE700208DF8070043F64000C5
:10417000C4F202000068C000002815D4FFE7FFE782
:104180000020009043F64000C4F20200016841F0B4
:1041900080510160006800F0805000900098FFE7B7
:1041A00001208DF80700FFE747F20000C4F200008D
:1041B0000068C005002822D4FFE747F20001C4F2DE
:1041C0000001086840F480700860FFF7C3FB0390AB
:1041D000FFE747F20000C4F200000068C0050028B5
:1041E0000CD4FFE7FFF7B6FB0399401A032804D36A
:1041F000FFE703208DF8170067E1EAE7FFE7FFE735
:1042000004988068012809D1FFE743F67001C4F2E1
:104210000201086840F0010008601FE0049880680F
:1042200005280DD1FFE743F67001C4F202010868CA
:1042300040F004000860086840F0010008600CE0ED
:1042400043F67001C4F20201086820F00100086022
:10425000086820F004000860FFE7FFE7FFE7049824
:104260008068F8B1FFE7FFF775FB0390FFE743F6BF
:104270007000C4F20200006800F002010020B0EB00
:10428000510F0ED1FFE7FFF765FB0399401A41F28A
:104290008931884204D3FFE703208DF8170014E129
:1042A000E5E71EE0FFF756FB0390FFE743F67000DB
:1042B000C4F20200006800F002010020B0EB510FD0
:1042C0000ED0FFE7FFF746FB0399401A41F2893110
:1042D000884204D3FFE703208DF81700F5E0E5E7F7
:1042E000FFE79DF80700012809D1FFE743F64001E9
:1042F000C4F20201086820F080500860FFE7FFE781
:1043000004988069002800F0DC80FFE743F608008D
:10431000C4F20200006800F00C00082800F085805C
:10432000FFE70498806902285CD1FFE76021C4F2AE
:10433000472100200860FFF70DFB0390FFE743F6DD
:104340000000C4F20200006800F000710020B0EB31
:10435000516F0CD0FFE7FFF7FDFA0399401A0328CD
:1043600004D3FFE703208DF81700AEE0E7E70499D8
:10437000C869D1F820C04B6A8A6A40EA0C0040EA5A
:104380008310D2034FF6FF739A43A2F58032104395
:10439000C96A40EA016043F60401C4F20201086000
:1043A0006021C4F2472101200860FFF7D3FA03908F
:1043B000FFE743F60000C4F20200006800F000715D
:1043C0000020B0EB516F0CD1FFE7FFF7C3FA039960
:1043D000401A032804D3FFE703208DF8170074E088
:1043E000E7E721E06021C4F2472100200860FFF7E1
:1043F000B1FA0390FFE743F60000C4F20200006840
:1044000000F000710020B0EB516F0CD0FFE7FFF718
:10441000A1FA0399401A032804D3FFE703208DF87B
:10442000170052E0E7E7FFE74AE0049880690128B7
:1044300004D1FFE701208DF8170046E043F60400A1
:10444000C4F202000068029004988069012831D00B
:10445000FFE7029800F480000499C969884229D1D5
:10446000FFE7029800F03F000499096A884221D1D1
:10447000FFE7029847F6C07108400499496AB0EB1B
:10448000811F17D1FFE7029800F440300499896A30
:10449000C9034FF6FF729143A1F58031884209D1DB
:1044A000FFE7029800F070600499C96AB0EB016FF1
:1044B00004D0FFE701208DF8170006E0FFE7FFE7D3
:1044C000FFE700208DF81700FFE79DF8170006B002
:1044D00080BD000080B582B00190019800F008FA1C
:1044E00002B080BDFFE7FEE780B548F20030C2F2BF
:1044F00000000C3000F06AFC80BD000080B548F27E
:104500000030C2F20000083000F060FC80BD000006
:1045100089B007900691079800680590FFE79DF81D
:1045200017004007002803D5FFE70020089032E07D
:104530000698059901F00041084340F0806004901E
:10454000FFE7079B049803900599DDF80CC053E83A
:10455000000F084503D143E800C2002AF7D10090BC
:10456000401AB0FA80F04009BFF35F8F0146019115
:1045700018B9FFE700980590FFE7019800F00100E7
:104580008DF80B009DF80B00C0070028C7D0FFE78F
:1045900004980890FFE7089809B0704780B58CB080
:1045A00040F2F410C2F20000019046F20041C4F261
:1045B000000101600321416000218160C1604FF46E
:1045C000002202614FF440124261017641760122DD
:1045D0008276C17601774177FEF70CFD18B1FFE7CF
:1045E000FDF72EFDFFE701200790089000210991BB
:1045F0004FF4A07202924FF4B07204924FF4C07262
:1046000003924FF4D072059206910A900E200B90FF
:1046100040F2F410C2F2000002A9FEF713F918B13B
:10462000FFE7FDF70DFDFFE702200790002008904F
:1046300009904FF4AE5002904EF2E010C0F201002B
:1046400004904FF4AF5103910590012006900A9019
:104650000E200B9040F2F410C2F2000002A9FEF707
:10466000F1F818B1FFE7FDF7EBFCFFE70320079037
:104670000120089009904FF40161029142F20C026E
:104680000392049142F21C010591002106910A90C7
:104690000E200B9040F2F410C2F2000002A9FEF7C7
:1046A000D1F818B1FFE7FDF7CBFCFFE70420079036
:1046B00000200890012009904FF40161029147F613
:1046C000FF71049142F22801039148F2F8710591BB
:1046D00006900A900E200B9040F2F410C2F20000F7
:1046E00002A9FEF7AFF818B1FFE7FDF7A9FCFFE755
:1046F00040F2F410C2F20000FEF7CCFE18B1FFE762
:10470000FDF79EFCFFE740F2F410C2F20000022128
:10471000FDF7C2FF18B1FFE7FDF792FCFFE740F29B
:10472000F410C2F200001021FDF7B6FF18B1FFE748
:10473000FDF786FCFFE70CB080BD000080B58CB0B3
:1047400040F21C20C2F20000019046F60001C4F2C3
:1047500000010160032141604FF080418160002130
:10476000C1604FF4002202614FF4401242610176B1
:10477000417601228276C17601774177FEF73AFCD5
:1047800018B1FFE7FDF75CFCFFE70E200790002162
:1047900008910991029104910391059106910121DB
:1047A0000A910B9040F21C20C2F2000002A9FEF711
:1047B00049F818B1FFE7FDF743FCFFE740F21C2082
:1047C000C2F20000FEF766FE18B1FFE7FDF738FC05
:1047D000FFE740F21C20C2F200000221FDF75CFF5F
:1047E00018B1FFE7FDF72CFCFFE740F21C20C2F2F6
:1047F00000001021FDF750FF18B1FFE7FDF720FC86
:10480000FFE70CB080BD000083B0FFE700200290FE
:1048100043F63000C4F20200016841F080010160FB
:10482000006800F0800002900298FFE7FFE7002098
:10483000019043F63000C4F20200016841F001012A
:104840000160006800F0010001900198FFE7FFE7B8
:104850000020009043F63000C4F20200016841F0ED
:1048600002010160006800F0020000900098FFE77C
:1048700003B07047FFE7FEE7FFE7FEE788B0079069
:1048800006910592079800F0070004900498C0F183
:104890000700052803D3FFE70420019004E00498F3
:1048A000C0F107000190FFE70198039004980430DD
:1048B000062803D8FFE70020009003E0049803389F
:1048C0000090FFE70098029006980399012202FAEF
:1048D00001F101390840029B984005999A40013A3C
:1048E0001140084308B0704770470000704700004F
:1048F00080B582B0009000980138B0F1807F03D37A
:10490000FFE70120019019E0009801384EF21401F0
:10491000CEF2000108604FF0FF300F2100F0CEF81A
:104920004EF21801CEF20001002008604EF2100293
:10493000CEF20002072111600190FFE7019802B05A
:1049400080BD000080B5FFF70BF880BD80B594B046
:1049500008A83021FBF7C5FD0020079006900590C0
:1049600004900390FFE70020029043F64000C4F259
:104970000200016841F080510160006800F0805041
:1049800002900298FFE7FFE70020019047F2000045
:10499000C4F20000016841F480410160006800F445
:1049A000804001900198FFE7012008904FF480308B
:1049B000099002200E904FF480010F91192110915F
:1049C0004FF4A871119112900420139008A8FFF7DA
:1049D00021FA18B1FFE7FDF733FBFFE70F20039043
:1049E00002200490002005904FF4A05006904FF450
:1049F0008050079003A80521FFF766F818B1FFE77C
:104A0000FDF71EFBFFE714B080BD00004EF6885195
:104A1000CEF20001086840F47000086070470000A2
:104A200089B008900791079820F080600690089858
:104A300001900699059105990291BFF35F8F006877
:104A40000390FFE70399019BDDF808C053E8000FCE
:104A5000084503D143E800C2002AF7D10090411A6B
:104A6000B1FA81F1490901290390EBD1FFE70098E0
:104A7000049009B070470000FFE7FEE781B08DF8B1
:104A800003009DF9030000280ED4FFE79DF90310F1
:104A900001F01F02012090404A094EF20011CEF2AF
:104AA000000141F82200FFE701B070474EF60C50BC
:104AB000CEF200000068C0F30220704782B08DF88B
:104AC000070000919DF9070000280AD4FFE700982D
:104AD00000019DF907104EF20042CEF20002885408
:104AE0000BE0009800019DF8071001F00F014EF651
:104AF0001452CEF200028854FFE702B07047000063
:104B000083B00290029800F0070000904EF60C511E
:104B1000CEF200010868019001984FF6FF021040A4
:104B200001900198009A40EA02200022C0F2FA5255
:104B3000104301900198086003B0704783B0019062
:104B40000198009048F2010188420CD0FFE70098DC
:104B500048F20201884209D0FFE7009848F20301B9
:104B6000884206D008E00020029009E00020029070
:104B700006E00020029003E04FF0FF300290FFE7D4
:104B8000029803B07047000083B001900198009034
:104B900048F2010188420CD0FFE7009848F2020178
:104BA000884209D0FFE7009848F20301884206D006
:104BB00008E00020029009E00020029006E00020BA
:104BC000029003E04FF0FF300290FFE7029803B03D
:104BD0007047000083B001900198009048F20101F5
:104BE00088420CD0FFE7009848F20201884209D0C1
:104BF000FFE7009848F20301884206D008E0012050
:104C0000029008E00120029005E00120029002E0FD
:104C100000200290FFE7029803B0704780B584B08F
:104C200002900191029820B9FFE74FF0FF30039006
:104C300033E0029800783A282BD1FFE7029845F636
:104C40004931C0F60001FBF773FC20B9FFE748F2D9
:104C50000100039021E0029845F65831C0F60001AA
:104C6000FBF766FC20B9FFE748F20200039014E06E
:104C7000029845F65031C0F60001FBF759FC20B907
:104C8000FFE748F20300039007E04FF0FF30039086
:104C900003E04FF0FF300390FFE7039804B080BDBE
:104CA00084B0029001910298009048F2010188427C
:104CB0000CD0FFE7009848F2020188420AD0FFE7D3
:104CC000009848F20301884208D00BE04FF0FF3013
:104CD00003900BE04FF0FF30039007E04FF0FF3000
:104CE000039003E04FF0FF300390FFE7039804B018
:104CF0007047000080B588B0069005910492039338
:104D00000698019048F2010188420CD0FFE7019813
:104D100048F2020188420AD0FFE7019848F20301F5
:104D2000884218D01AE04FF0FF3007901AE0FFE7F2
:104D3000049868B1FFE70598411C0591007802903E
:104D4000029800F0D3F9FFE7049801380490EFE7E8
:104D50000020079006E00020079003E04FF0FF30AE
:104D60000790FFE7079808B080BD000088B0079063
:104D700006910592079B0698009005990491016899
:104D8000DDF810C0BFF35F8F53E8000F084503D173
:104D900043E800C2002AF7D10190401AB0FA80F02F
:104DA0004009BFF35F8F0146029120B9FFE70198E8
:104DB00000990860FFE7029800F001008DF80F00ED
:104DC0009DF80F0000F0010008B0704787B0069012
:104DD00006980190012105910599029100680390C0
:104DE000FFE70399019B029801EB000C53E8000FC9
:104DF000084503D143E800C2002AF7D10090411AC8
:104E0000B1FA81F1490901290390EAD1FFE700983D
:104E10000490049807B0704786B0059005980190FB
:104E200001218DF813109DF8131002910078039062
:104E3000FFE70399019B029801EB000CC9B2D3E88C
:104E40004F0F084503D1C3E842CF002AF7D10090A5
:104E5000C9B2411AB1FA81F1490901290390E8D197
:104E6000FFE700988DF812009DF8120006B0704719
:104E700084B0039002914FF6FF70ADF80600FFE793
:104E8000029890B3FFE70398411C03910178BDF8A5
:104E9000060080EA0120ADF8060008200090FFE738
:104EA0000098F0B1FFE7BDF80600000400280DD51A
:104EB000FFE7BDF806004000ADF80600BDF80600AB
:104EC00041F221014840ADF8060005E0BDF80600BA
:104ED0004000ADF80600FFE7FFE7009801380090BA
:104EE000DEE7029801380290CAE7BDF8060004B078
:104EF0007047000080B586B00020039005900F2019
:104F00000121FDF793FAFDF76FFBFEF737FDFFF781
:104F10001DFDFFF779FCFFF741FBFFF70FFC03983E
:104F200040F2D812C2F20002049263211170612192
:104F300051706E2191703221D170202111716D213B
:104F40005171732191716721D17140F2B811C2F290
:104F50000001886009220A6008220A61C86045F6DB
:104F60000B30C0F60000FBF76BFAFFE740F2F010E1
:104F7000C2F2000000680290072800F278800299CF
:104F8000DFE801F004101C283545556540F2B811E2
:104F9000C2F200010020886009220A6008220A612A
:104FA000C86065E040F2B811C2F2000100208860DC
:104FB0000A220A6008220A61C86059E040F2B8116A
:104FC000C2F2000100208860CE220A6008220A6135
:104FD000C8604DE040F2B811C2F2000100208860C4
:104FE00040F2CF120A6008220A61C86040E040F235
:104FF000B811C2F200010420886040F20140C0F202
:1050000002104860082008610020C86030E040F2CB
:10501000B811C2F200010420886040F20240C0F2E0
:1050200002104860082008610020C86020E040F2BB
:10503000B811C2F200010420886040F60570C0F289
:1050400002104860082008610020C86010E040F2AB
:10505000B811C2F200010420886040F60570C0F269
:1050600003104860082008610020C86000E0FFE7E6
:1050700040F2EC10C2F200000068019040B1FFE77E
:105080000198012805D0FFE70198022814D026E0F6
:1050900026E040F2F410C2F2000040F2B811C2F271
:1050A000000140F2D812C2F2000240F2D413C2F260
:1050B0000003FDF71BFB13E040F21C20C2F20000CE
:1050C00040F2B811C2F2000140F2D812C2F200025E
:1050D00040F2D413C2F20003FDF708FB00E0FFE743
:1050E00040F2DC50FEF738FA40E7000080B584B0AB
:1050F000029048F22C30C2F200000068082804D365
:10510000FFE74FF0FF3003902BE0029948F22C307C
:10511000C2F2000003685A1C026048F22432C2F254
:105120000002D1540068082804D0FFE702980A283A
:1051300014D1FFE748F22C30C2F20000019002685F
:1051400048F22431C2F200014FF60060C0F20200C2
:10515000FCF7E6FF019900200860FFE70298039042
:10516000FFE7039804B080BD5FEA400C08BF91F0F0
:10517000000F4FEA8C234FEAC12243EA51514FEA14
:105180001C5018BF00F5F0404FEA300018BF41F046
:1051900000415FEA6C5C00F02980BCF1FF3F08BF72
:1051A00040F080407047130C06BF12044FF0100C03
:1051B0004FF0000C130E04BF12020CF1080C130F79
:1051C00004BF12010CF1040C930F04BF92000CF108
:1051D000020CD30F04BF52000CF1010C11464FF02A
:1051E0000002A0F11F00A0EB0C00704711F0004F6F
:1051F00008BF704731F000413FF4D5AF0B0C06BF3C
:1052000009044FF0100C4FF0000C0B0E04BF090204
:105210000CF1080C0B0F04BF09010CF1040C8B0FEF
:1052200004BF89000CF1020CCB0F04BF49000CF144
:10523000010CCCF1200322FA03F341EA030102FA44
:105240000CF2A0EB0C0000F10100704723F07F4747
:1052500020F07F4C80EA030000F00040ACEB070335
:1052600003F57C5303F1FF032DE9804909B44FEAAC
:10527000144324EA03484FEA154B25EA0B4E0FF27C
:10528000042606EB13273E7803FB0667C7F50007E5
:1052900007FB06F64FEAD64606F102064FEA5437F8
:1052A00007FB066CCCF1005C4FEA1C472CEA074C6C
:1052B0000CFB06F507FB06F404EB15464FEA9616C1
:1052C00049085FEA320234BF00204FF000404FEA45
:1052D000D13706FB07FC4FEA1C4C0CFB0BF7D21B2B
:1052E00003FB0CF761EB07010CFB0EF7B0EB07407B
:1052F00072EB17420CFB08F734BFA2EB0742B2EB8C
:10530000074261EB17414FEA0C444FEA910706FB55
:1053100007FC4FEA1C4C0CFB0BF7B0EBC74072EBE1
:10532000573203FB0CF734BFA2EBC742B2EBC742C4
:1053300061EB57310CFB0EF7B0EBC70072EB577205
:105340000CFB08F734BFA2EBC702B2EBC70261EB5C
:1053500057714FEA816141EA92114FEA826242EA53
:1053600090124FEA806004EBCC04039F4FEAD137E0
:1053700006FB07FC4FEA1C4C0CFB0BF7D21B03FB94
:105380000CF761EB07010CFB0EF7B0EB074072EB7B
:1053900017420CFB08F734BFA2EB0742B2EB0742FF
:1053A00061EB17414FEA8C5504EB9C244FEA9107BF
:1053B00006FB07FC4FEA1C4C0CFB0BF7B0EBC7409D
:1053C00072EB573203FB0CF734BFA2EBC742B2EBD0
:1053D000C74261EB57310CFB0EF7B0EBC70072EB25
:1053E00057720CFB08F734BFA2EBC702B2EBC7023F
:1053F00061EB57714FEA816141EA92114FEA826293
:1054000042EA90124FEA806015EB4C2544F100040B
:105410004FEAD13706FB07FC4FEA1C4C0CFB0BF79D
:10542000D21B03FB0CF761EB07010CFB0EF7B0EB93
:10543000074072EB17420CFB08F734BFA2EB0742A0
:10544000B2EB074261EB17414FEA813141EA9241E9
:105450004FEA823242EA90424FEA80304FEA0C76BD
:1054600015EB1C1544F1000448EA03434EEA0B48CF
:105470004FF0000EB2EB080C71EB030724BF62463D
:1054800039464EEB0E0E4FF0000B001852414941C9
:105490004BEB0B0BB2EB080C71EB03077BF1000B32
:1054A00024BF624639464EEB0E0E4FF0000B00183B
:1054B000524149414BEB0B0BB2EB080C71EB03076C
:1054C0007BF1000B24BF624639464EEB0E0E51EACB
:1054D000020718BF46F0010616EB0E7655F10002E2
:1054E00054F1000103D5BDE88901BDE80088BDE89D
:1054F0008901BDE80048B619524141EB0101A3F111
:105500000103704780807F7E7D7C7B7A7978777617
:1055100076757473727171706F6E6E6D6C6C6B6A90
:105520006A6968686766666564646363626161602E
:10553000605F5F5E5E5D5D5C5C5B5B5A5A595958AB
:105540005857575656555555545453535252525115
:10555000515050504F4F4F4E4E4D4D4D4C4C4C4B6B
:105560004B4B4A4A4A4949494848484747474746B2
:1055700046464545454444444443434343424242EE
:10558000424141419C46002B30D477002BD04FEA5A
:1055900037071CB503B44FF010004FF01001BAF1FB
:1055A000000F06D0BCF1000FDCBF40F0080040F057
:1055B00008014FF000000FBCBDE810400BF1010BDB
:1055C000BBF1010F08BF5FEA170722BF12F101020A
:1055D00011F101014FF0004143F1000300F00040E0
:1055E00043EA00007047F9D35708D0E746EA064679
:1055F0004FEA164613F1400F1FDD13F1200FDFBFF6
:1056000016430A46002120335B42BED0C3F1200777
:1056100046EA06464FEA164602FA07F746EA070642
:1056200022FA03F2C3F1200701FA07F742EA070260
:1056300021FA03F14FF00003A7E746EA020646EA23
:1056400006464FEA164646EA0106BCBF46EA06464B
:10565000360C4FF000034FF000024FF0000194E7CA
:105660002DE9804C70B49A46934691E8380007C8FB
:1056700031EA400C48BF34EA430C03D5FFF7E6FD9E
:10568000FFF780FFF0BCBDE8008C2DE9804C70B4C2
:105690009A46934691E8380007C810F0804F08BF3B
:1056A00013F0804F03D100F005F8FFF76BFFF0BC5B
:1056B000BDE8008C20F07F4723F07F4C80EA030098
:1056C00000F0004007EB0C03A3F57C53A3F1FE03AD
:1056D00092F0000F00F0B38095F0000F00F077809B
:1056E0002DE901494FEA114021EA00484FEA1446EA
:1056F00024EA064700FB06FC08FB06F607FB08F851
:1057000018EB06484CEB164C00FB07F718EB074864
:105710004CEB17404FEA124B22EA0B4E4FEA15466C
:1057200025EA06470BFB06FC0EFB06F607FB0EFE02
:105730001EEB064E4CEB164C0BFB07F71EEB074E11
:105740004CEB174B18EB0B0840F1000018EB0E0B5D
:1057500058EB000840F100008F1A4FF000014FF0A5
:1057600000063CBFC943661B14BFB5EB040C002107
:105770003CBFC943F61B4FEA174427EA04454FEAEA
:105780001C472CEA074C04FB076205FB07F70CFBE0
:1057900005F616EB074642EB174204FB0CFC16EB32
:1057A0000C4642EB1C421BEB060658EB0202414141
:1057B0004EEA8E0E46EA9E0601D5BDE80189B6196D
:1057C000524141EB0101A3F10103BDE801894FEA18
:1057D000144524EA05464FEA114721EA074C05FB28
:1057E00007F406FB07F70CFB06F111EB074144EB4E
:1057F000174405FB0CFC11EB0C4144EB1C444FEA35
:10580000124722EA074C05FB07F206FB07F70CFBE1
:1058100006F616EB074642EB174205FB0CFC16EBAF
:105820000C4642EB1C456A1854F1000148BF704712
:10583000B619524141EB0101A3F10103704795F004
:10584000000F37D04FEA114221EA02464FEA1447CF
:1058500024EA074C02FB07F106FB07F70CFB06F4F2
:1058600014EB074441EB174102FB0CFC14EB0C4416
:1058700041EB1C414FEA154725EA074C02FB07F5AF
:1058800006FB07F70CFB06F616EB074645EB17453C
:1058900002FB0CFC16EB0C4645EB1C42121951F1B5
:1058A000000148BF7047B619524141EB0101A3F115
:1058B000010370474FEA144524EA05464FEA1147B1
:1058C00021EA074C05FB07F106FB07F70CFB06F284
:1058D00012EB074241EB174105FB0CFC12EB0C42AB
:1058E00051EB1C414FF0000648BF7047921841EB46
:1058F0000101A3F10103704703B40198410000982E
:1059000050EAC12018BF04204A0D18BF40F0010022
:1059100040F2FF72B2EB515F08BF40F00200012875
:1059200008BF052002B0704730380A2801D2012094
:105930007047002070478A68002A02DC0022FBF7CB
:105940004FBF521E8A604A68C0B2531C4B60107031
:105950007047000010B500290AD00878002807D049
:1059600005487844FAF7E4FD002801D0002010BD76
:105970000248784410BD00001E020000160200001C
:1059800010B500290AD00878002807D005487844C7
:10599000FAF7CEFD002801D0002010BD024878445F
:1059A00010BD00000E02000006020000F1EE100A19
:1059B0004FF6FF71C0F2C03120EA010040F04070A4
:1059C000E1EE100A7047FBF743BAFBF777BB000024
:1059D000000000000000000030313233343536372B
:1059E0003839414243444546403058003031323323
:1059F0003435363738396162636465664030780023
:105A00000400000800000000000000020001000087
:105A1000103031323334353637383961626364657A
:105A20006678700030313233343536373839414298
:105A3000434445465850000002400000000000A0CA
:105A40000000000005400000000000C80000000049
:105A50000C4000000000409C0000000019400000C5
:105A60000020BCBE0000000034400000BFC91B8EF7
:105A700000000004B5400000504BCFD06607E2CFD5
:105A8000010000006C4100003E8251AADFEEA73405
:105A900001000000D9420000DCB5A0E23A301F97B7
:105AA000FFFFFFFFB4450000FD25A0C8E9A3C14FDB
:105AB000FFFFFFFFFF3F000000000080000000002C
:105AC000FF3F000000000080000000000000000018
:105AD000000000000102030406070809010001019B
