:020000040800F2
:10000000B81200206D0200084D290008652800087C
:10001000492900084D110008552B00080000000078
:10002000000000000000000000000000552900084A
:10003000511100080000000051290008592900084A
:10004000870200088702000887020008870200086C
:10005000870200088702000887020008870200085C
:10006000870200088702000887020008870200084C
:10007000870200088702000887020008870200083C
:10008000870200088702000887020008870200082C
:10009000870200088702000887020008870200081C
:1000A000870200081D2A000887020008870200084E
:1000B00087020008870200088702000887020008FC
:1000C00087020008870200088702000887020008EC
:1000D00087020008870200088702000887020008DC
:1000E00087020008870200088702000887020008CC
:1000F00087020008870200088702000887020008BC
:1001000087020008870200088702000887020008AB
:10011000870200088702000887020008870200089B
:10012000870200088702000887020008870200088B
:10013000870200080000000000000000870200089D
:10014000870200088702000887020008870200086B
:10015000870200088702000887020008870200085B
:10016000870200088702000887020008870200084B
:10017000870200088702000800000000000000005D
:10018000870200088702000800F002F800F05FF81C
:1001900014A696E8000CB244B344DA4501D100F04D
:1001A00056F8BAE80F000FA696E83000A5EB040554
:1001B00004EB0607AAEB0704A7F101074FEA1515A0
:1001C0004FEA3414A4F10104AC4201D300F03FF82B
:1001D00013F0010F18BFFB1A43F0010300F001F800
:1001E000DBE71847982B0000B82B0000103A24BF1B
:1001F00078C878C1FAD8520724BF30C830C144BF8C
:1002000004680C6070470000704700000023002461
:1002100000250026103A28BF78C1FBD8520728BF16
:1002200030C148BF0B607047642900F0F7800020A0
:1002300070471FB502F066FD9DE8030000F05CFD0D
:1002400000F090FA1FBD10B500F0F5FA10BD00F0F7
:1002500025FB1146FFF7EDFF02F0E4FC00F01CFD6A
:1002600003B4FFF7F0FF03BC00F0C4FE0948804769
:1002700009480047FEE7FEE7FEE7FEE7FEE7FEE788
:10028000FEE7FEE7FEE7FEE704480549054A064BA0
:1002900070470000092A000889010008B8060020FC
:1002A000B8120020B80A0020B80A002053EA020C55
:1002B00000F069802DE9F04B4FF00006002B1FBFC6
:1002C000B3FA83F503FA05F424FA05F65E4012BF8B
:1002D0001643B2FA82F502FA05F4C5F120051EBFF5
:1002E00022FA05FC44EA0C04203556EA044C4FEA95
:1002F000144418BF641C4FF000084FF000099042EE
:1003000071EB030C39D3002919BFB1FA81F701FA57
:1003100007F6B0FA80F700FA07F6C7F120071EBF0C
:1003200020FA07FC46EA0C062037B6FBF4FCA7EBE4
:100330000507103F07F01F0BCBF120062CFA06F63D
:100340000CFA0BFB44BFB3460026202FA4BF5E4629
:100350004FF0000B5BEA060C08BF4FF0010B19EBE6
:100360000B0948EB0608ABFB027C06FB02CC0BFB3F
:1003700003CCC01B71EB0C01C1E70B4602464146A2
:100380004846BDE8F08B13B5084318BF4FF0FF3067
:100390000146AFF30080BDE81C4070470FB404492C
:1003A00010B503AA029800F07DF910BC5DF814FBAB
:1003B000940000202DE9F0410E4604460020206202
:1003C0002046E168884730B3252805D0D4E90121CB
:1003D0009047206A401CF2E7E168204600278847E2
:1003E000050018D0A5F14100192802D820354FF496
:1003F00000673246294620462760FFF715FF40B1C7
:10040000012804D0F61D26F007060836D8E7361D69
:10041000D6E72846DAE7206ABDE8F0812DE9F04109
:100420000646002410687529314616A510D0AFF392
:100430000080002802DA404213A507E031688A07ED
:1004400001D512A502E0490704D511A5012401E058
:10045000AFF3008000210A2206F1240709E0B0FB77
:10046000F2FCB0FBF2F302FB1C003030785418466B
:10047000491C0028F3D123462A463046BDE8F04106
:1004800000F0B7B8000000002D0000002B000000B5
:1004900020000000032A40F2308010F0030C00F02E
:1004A000158011F8013BBCF1020F624498BF11F8AE
:1004B00001CB00F8013B38BF11F8013BA2F1040267
:1004C00098BF00F801CB38BF00F8013B11F00303DF
:1004D00000F0FA80083AC0F0088051F8043B083A6E
:1004E00051F804CBA0E80810F5E7121D5CBF51F8E5
:1004F000043B40F8043BAFF30080D20724BF11F85F
:10050000013B11F801CB48BF11F8012B24BF00F8C3
:10051000013B00F801CB48BF00F8012B70474FF0BA
:10052000000200B5134694469646203922BFA0E843
:100530000C50A0E80C50B1F12001BFF4F7AF09074F
:1005400028BFA0E80C5048BF0CC05DF804EB890040
:1005500028BF40F8042B08BF704748BF20F8022B83
:1005600011F0804F18BF00F8012B70470000000009
:1005700030B44FF0013C50F8042B51F8043BCCFA56
:1005800052F4D51A20D1FCB950F8042B51F8043B91
:10059000CCFA52F4D51A17D1B4B950F8042B51F84B
:1005A000043BCCFA52F4D51A0ED16CB950F8042B96
:1005B00051F8043BCCFA52F4D51A05D1002CDAD00C
:1005C00030BC4FF00000704729BAB1FA81F111F048
:1005D0001801D1F120008440F2D1CA40CB4012F082
:1005E000FF0213F0FF0330BCD01A7047704770470A
:1005F00070472DE9F0470D4699469246044600F1B2
:1006000024080168880604D5E06921F01001216002
:1006100000E00120A84201DD471B00E00027A1699E
:100620007A1902EB0900081AA0612078C00602D4EA
:100630002046AFF30080002608E0D4E901211AF833
:1006400006009047206A401C761C20624E45F4DB71
:100650002078C0060AD52046AFF3008006E0D4E932
:10066000012130209047206A401C2062381EA7F1EB
:100670000107F4DC07E0D4E9012118F805009047F0
:10068000206A401C2062281EA5F10105F3DC2046EB
:10069000AFF300802078000602D50220BDE8F08785
:1006A0000120FBE7074B70B50D467B4400F043F893
:1006B0000446284600F052F810B14FF0FF3070BDEC
:1006C000204670BD3B26000010B5203AC0F00B80DC
:1006D000B1E81850A0E81850B1E81850A0E8185038
:1006E000203ABFF4F5AF5FEA027C24BFB1E81850AE
:1006F000A0E8185044BF18C918C0BDE810405FEA10
:10070000827C24BF51F8043B40F8043B08BF70478B
:10071000D20728BF31F8023B48BF11F8012B28BF90
:1007200020F8023B48BF00F8012B704701694A1CC2
:1007300002610878704700B58FB0CDE90131002122
:10074000059105497944CDE9031011466846FFF744
:1007500031FE0FB000BD0000E5FFFFFF007B00F0A1
:100760008000704710B542485421FFF7D8FE414839
:100770005421FFF7D4FE40485421FFF7D0FE3F49F3
:100780003B483C4A3F4B08603D490A603A49196082
:10079000531C0365481C1065012008653B48344A1A
:1007A00039A1784400F0DAF920B9384878440A3899
:1007B00000F07BFA37482F4A35A1784400F0CEF993
:1007C00020B9344878440A3800F06FFA32482A4A8F
:1007D0002FA1784400F0C2F920B92F4878440A3894
:1007E00000F063FA40232248DC000021224600F09A
:1007F00092F920B125487844543800F056FA1D4843
:1008000022464023002100F086F920B12148784497
:10081000543800F04AFA184822461023002100F00C
:100820007AF9002806D01C487844BDE810405638B4
:1008300000F03BBA10BD104870B5006D20F0010407
:100840000B4800F003FA0B4800F000FA0A4800F0E9
:10085000FDF909E0206D20F00105204600F0F6F9D1
:10086000204600F040F82C46002CF3D170BD00006B
:100870004000002094000020E8000020000000203C
:10088000040000200800002072000000B2250000D3
:1008900077000000A12500007A250000754600F0D1
:1008A0000BFAAE4605006946534620F00700854620
:1008B00018B020B5FFF7E8FCBDE820404FF0000677
:1008C0004FF000074FF000084FF0000BAC46ACE8CB
:1008D000C009ACE8C009ACE8C009ACE8C00921F027
:1008E00007018D46704770B50446051F00F0E8F912
:1008F0000068002C14BF446870BD002C18BFAC42C7
:100900003CBF20466468F8D301680A18AA4218BFA1
:10091000456003D12A6805461144016028684119E1
:10092000A1421CBF6C6070BD6168696021680844A9
:10093000286070BD2DE9F05F054617460C46C86873
:1009400020F4201040F48000C860800602D50846DC
:1009500000F00FFBE06841F282014FF0FF3A0140E6
:10096000022903D0204600F0A1FAB9E000F42041AA
:10097000B1F5004F0FD1C00306D56168E06A884227
:1009800000D80846606006E02069E0626060606947
:1009900002F0ECF8A061A0680022EEB200280DDAA7
:1009A000E1688B050AD4C043A06041F49030226016
:1009B000E0606068411C61600670AAE0E0689146F2
:1009C000226040F40050E060206978BB606902F06A
:1009D000D7F804F124054FF00108A8B1A08910F45C
:1009E000407F08D0E06900F0B6F9206118B1E068F6
:1009F00040F4006017E0C4F81C802561E06820F432
:100A0000407040F480600EE0E06900F0A4F9002836
:100A10002061F0D0E06840F4006010F4407FE060B6
:100A200002D140F48070E06020696060E068256970
:100A30006FF0010BC1051ED56168E06A884200D8DD
:100A40000846411B04D02246284600F039FAE8BB8C
:100A50001FB1E562C4E9015959E0681CE0626060B9
:100A6000E069401EA060E06840F48030E0603046FD
:100A70002E70BDE8F09F17B100F480320AE0606884
:100A8000411C61600670E0680A2E40F48030E0602E
:100A900006D00022E16A6068814203D90B4602E079
:100AA0000122F7E70346B4F80CC05B1B5FEA4C5C1D
:100AB00004D4D4F81CC09C4500DD02B3814200D8A8
:100AC0000146002BA1EB0008E56200E008E0C4E964
:100AD000015907DD22461946284600F0F1F908B110
:100AE0005046C6E7B8F1000F09D0A169E56265601C
:100AF000A1EB0800A061E06840F01000E06047B1A1
:100B00006168A069E562491B08446560A0615846B8
:100B1000AFE73046ADE770B5C468A50713D06502EE
:100B200011D4B2F5807F09D0B2F5007F06D0B2F5BE
:100B3000806F08D1012300F1240106E05D1E6FF0F3
:100B40007F46B54201D3012070BD0161C3614160A0
:100B500024F470611143C160002070BD2DE9F041A3
:100B60000C461646070047D0104600F06FF8207874
:100B7000611C61280AD0722802D077283CD102E09B
:100B80000125002405E00225042402E0082448F29F
:100B9000020511F8010B2B2806D0622809D011F8A4
:100BA000010C74280AD00BE045F0030544F0020460
:100BB000EFE745F0040544F00104EAE744F01004CF
:100BC0003846214601F0E4FF411C15D00021316177
:100BD00071604FF40071F560F1617061200704D518
:100BE00030460222002100F0E5F8306D40F00100AF
:100BF00030653046BDE8F0810020FBE72DE9F0418B
:100C00000D460646104C206DC10704D0410804D0A3
:100C100020F00104F7E722460EE0542000F09BF894
:100C200007000ED0206D47F00101084354212065D4
:100C30003846FFF774FC3A4629463046BDE8F04195
:100C40008CE70020D6E70000400000202DE9F047A7
:100C500004464FF0FF380026C568D4E90497A8077A
:100C600018D0204600F062F9384601F075FF0028E0
:100C700000DA4646280502D54846FFF734FE4C21E7
:100C80002046FFF74CFC206D20F001002065304627
:100C9000BDE8F0874046FBE710B50446AFF300809F
:100CA0002046BDE81040FFF7DBBA10B500F088F928
:100CB000BDE8104000F07EB9004870473C010020BC
:100CC00000487047440100207047704770477047E4
:100CD00038B504460A4600206946AFF30080002874
:100CE00008BF38BD02460099204600F08FF9012068
:100CF00038BD012000F0DEB9F8B5AFF3008005463D
:100D000000200C460C2000BF0646A819A0420DD9B1
:100D1000324669460020AFF30080070008BF00F0AC
:100D2000C9F90098A04218BF0546C419FFF7C8FFCB
:100D300005600746F01D20F007004619284600F020
:100D40005FF9B44208BFF8BDA21B31463868BDE860
:100D5000F84000F05BB970B50646FFF7B1FF0568D3
:100D600006F10B0020F00704B4429CBF002070BDC8
:100D70002B466A68BAB11068A04210D304F108018A
:100D800088423CBF5068586007D3516810194160D1
:100D90001168091B016058601460101D70BD134676
:100DA0005268002AE7D121462846FFF791FF002824
:100DB000DED170BD2DE9F041044616460D46476967
:100DC000007B80072ED0384601F0DAFE50BB3EB3E0
:100DD000012E02D0022E25D104E0204600F030F989
:100DE00005441DE0384601F0C1FEE168002841F0ED
:100DF0001001E16005DA204600F058F80120BDE856
:100E0000F081C9030BD56268E16A914200D81146AE
:100E1000A26911442269891A814200DD084605440D
:100E2000002D01DA0220EAE7E16A6068E2688142A7
:100E300006D29103E06203D522F4003141F01002A2
:100E4000A6690027AE4213DCE16A814201D90B4654
:100E500000E0034603EB060C2369ACEB030CAC4546
:100E600006DD814201D98C4600E084469C4505D1CF
:100E7000A760276042F02000A5620DE0AD1BE66987
:100E8000AE1B8142A66000D90846C01A281A20600D
:100E90005819606022F0200003490840E0600020FB
:100EA00084F84870ABE70000BFCFD7FFC16821F4DA
:100EB000001141F08001C160002181600160704734
:100EC0002DE9F74F15460C464FF0FF3B3848D768E1
:100ED000D2F814A0074209D05046A96901F086FE55
:100EE000002819DB3248C0430740EF604FF000494B
:100EF0006FF000484C4501D3464600E02646009975
:100F00003B465046324601F075FEA96920F000428A
:100F1000B21A1144A96128B12846FFF7C7FF584605
:100F2000BDE8FE8FA41BE5D10020F9E770B50446AB
:100F30000569C06A6168884200D80846E16821F402
:100F40002011E160C90312D5A84208D02246411BF6
:100F50002846FFF7B5FF10B14FF0FF3070BD0020FD
:100F6000E562C4E90150E06820F48030E0600020D0
:100F700070BD10B50446C06820F02000E060A16A92
:100F8000A06988420DD02046FFF7D0FFE06820F42A
:100F9000405040F01000E060A06AA0612069E0626B
:100FA000606044F24001E0688843E06010BD0000EA
:100FB00010000200002801D000F01CB870470000AB
:100FC00010B5014602A000F05CF8012010BD000041
:100FD00053494752545245443A20526564697265F8
:100FE00063743A2063616E2774206F70656E3A20D7
:100FF0000000000001491820ABBEFEE726000200F9
:1010000000210160416070470C2070470346406832
:101010008C46002818BF88423CBF03464068F8D37E
:1010200018681844884207D00CF1030020F007002C
:10103000001D411A521A0146081D0A60FFF753BCF1
:1010400010B50146C268900703D0900607D5886A9C
:101050000AE000F03FF801210160881E10BD8B6995
:10106000486818440B69C01A91F848301BB191F8D0
:101070004910401A10BD1103FCD50028FADD401EAE
:1010800010BD70B505460C460A2000E06D1C00F04E
:1010900018F835B128780028F8D102E0641C00F077
:1010A00010F814B120780028F8D1BDE870400A206B
:1010B00000F007B810B500F011F8BDE81040FFF7D8
:1010C00079BF08B569468DF800000320ABBE08BDA6
:1010D00070470000004870473C01002010B501280F
:1010E00005D0002103A0FFF7CCFF012010BD09A10E
:1010F000F8E7000053494752544D454D3A204F758B
:1011000074206F662068656170206D656D6F7279FF
:10111000000000003A2048656170206D656D6F72B7
:101120007920636F72727570746564000020C4F278
:1011300002004FF48071002200F098BE0020C4F23B
:1011400002004FF48071012200F090BEFEE7000023
:10115000704700002DE9F04740F28067C2F20007B7
:1011600090463A78002A3DD0894640F20061064612
:10117000C0F3C620C2F20001085CC6F30221C840D9
:10118000C0072FD0BC6904E0BFF32F8F00220C46AC
:101190005ABB00F06FFDA04216D2EFF3108272B678
:1011A000B969A14204D05AB1A1420DD11DE000BFDE
:1011B0003B69B86101333B61BFF35F8F002AF3D114
:1011C00062B6A14211D000BF57E8061FA142DBD191
:1011D000BFF35F8F47E80602002AD7D1BFF35F8FC6
:1011E0000122D4E70120BDE8F087B1B24FF00056EC
:1011F00006EA99064FF080454FF0805305EA5805FE
:101200003144EFF3058203EAD003294440F2002C75
:1012100001EB030E002A4FF00702C2F2000C18BFC8
:101220000EF5002E57E8011F4B1C47E80134002C37
:10123000F8D101F03F030CEB031A564601F470732A
:1012400056F80C1F4EEA833506E000BFBFF32F8F20
:1012500000210029214613D14B0110D401F0004395
:1012600056E8004F2B448C4243F07063EED146E8C1
:1012700000310029ECD1BFF35F8F0121E9E70023A2
:10128000590105D4013ACDD107F10C0100201FE02E
:1012900083F0004101F0004220F0004029F00043BB
:1012A00028F00045104413442A44CAE90003CAF850
:1012B000082021F0806007F10801BFF35F8F00BFB5
:1012C00056E8002F46E80002002AF9D1012000BFAD
:1012D00051E8002F013241E80023002BF8D1BDE88E
:1012E000F08700002DE9F04F89B088460146B8F13B
:1012F000000F4FF0000000F0AA82802A00F2A782BF
:1013000040F28066C2F20006307800283ED01746D0
:1013100040F20062C1F3C620C2F20002105CC1F3C9
:101320000222D040C00731D0B5690C4605E000BFAD
:10133000BFF32F8F00220D4662BB00F09BFCA8423A
:1013400016D2EFF3108272B6B169A94204D05AB135
:10135000A9420DD11EE000BF3369B0610133336192
:10136000BFF35F8F002AF3D162B6A94212D000BF4B
:1013700056E8061FA942DBD1BFF35F8F46E806029D
:10138000002AD7D1BFF35F8F0122D4E7012009B033
:10139000BDE8F08FEFF305812246C0F20804002972
:1013A00008BF94B24FF08051002F5AD0092F01EAA4
:1013B000D00B80F097800021CDE9061106A90546E3
:1013C000084641463A46FFF765F8DDE906AE4FF0BC
:1013D000005000EA9A004FF0804101EA5E0167F395
:1013E0001240AC4600EB0109072700BF56E8010F89
:1013F000411C46E80112002AF8D140F2002200F018
:101400003F01C2F2000202EB0118414600F4707085
:1014100051F80C2F49EA803306E000BFBFF32F8F4D
:101420000022002A024616D1500113D402F00040D7
:10143000184440EA0B0551E8000F2543904245F05F
:101440007065EBD141E80052002AE9D1BFF35F8F0C
:101450000122E6E70025680100F1B380013FC5D114
:101460003CE001EAD00C4FF0070E00BF56E8011F28
:101470004A1C46E80123002BF8D140F2002301F07A
:101480003F02C2F2000303EB021801F470734146FD
:1014900051F80C2F4CEA833506E000BFBFF32F8FC5
:1014A0000022002A3A4614D1530111D402F000431D
:1014B0002B4451E8007F2343974243F04063EDD132
:1014C00041E80032002AEBD1BFF35F8F0122E8E749
:1014D00000235A016BD4BEF1010EC7D106F10C02F4
:1014E0000020ADE1711C0397D1E84F2F531CC1E8D8
:1014F000473F002FF8D14FF4E02101EA0249D8F824
:101500000430D8F800204FF00051CDE906230192B5
:1015100001EA92014FF0804202EA530211444FF077
:10152000070ACDF814800293049100BF56E8011F0A
:101530004A1C46E80123002BF8D140F2002301F0B9
:101540003F02C2F2000303EB021E7246049F01F445
:10155000707152F80C3F47EA813505E0BFF32F8FD9
:101560000023002B0B4619D1590115D403F000417B
:101570002944214341EA0B0752E8001F47EA0907C3
:10158000994247F05068E9D142E80083002BE7D147
:10159000BFF35F8F0123E4E74FF000085FEA481CC8
:1015A0001ED4BAF1010AC1D106F10C0338E083F070
:1015B000004404F0004220F000401044C8E900025A
:1015C0002EE185F0004404F000402CF000422AF0A7
:1015D000004302440344C8E900232EF000421EE108
:1015E000019D029F88F0004101F0004320F000447B
:1015F00025F0004527F000471C441D443B44CEE93C
:101600000045CEF8083021F0806106F10803BFF3F1
:101610005F8F00BF52E8007F42E80017002FF9D12A
:10162000059900BF53E8002F571C43E80072002AB9
:10163000F8D1BCF1000F03D4002009B0BDE8F08F51
:101640004FF60172039D49EA020420F00040049025
:10165000083D092D01F10801C0F07F80D1F804E0B8
:10166000D1F8008005914FF000504FF0804100EA22
:10167000980001EA5E0100EB010907220395CDE91C
:10168000068E00BF56E8010F411C46E80113002BEF
:10169000F8D140F2002300F03F01C2F2000303EB57
:1016A000011A554600F4707055F80C1F49EA803055
:1016B00006E000BFBFF32F8F00210029394616D165
:1016C0004B0113D401F000430344234355E8007F4A
:1016D00043EA0B038F4243F04063EBD145E800310E
:1016E0000029E9D1BFF35F8F0121E6E700235FEA1C
:1016F000431C05D4013AC5D106F10C001CE000BF23
:1017000083F00040049A00F0004128F000432EF0DE
:1017100000470A440B443944CAE90023CAF80810B8
:1017200020F08060BFF35F8F55E8001F45E800019F
:101730000029F9D106F10800039D059950E8002F12
:10174000531C40E80032002AF8D10134BCF1000FEC
:101750004FF000003FF57CAF79E00020CDE90600B6
:1017600006A82A46FEF796FEFF20C7F2FF10DDE925
:1017700006EC20404FF0005140EA052001EA9E01AE
:101780004FF0804202EA5C02084340EA0205072467
:1017900056E8010F411C46E80112002AF8D140F238
:1017A000002200F03F01C2F2000202EB01184146A4
:1017B00000F4707051F80C7F45EA803006E000BFFD
:1017C000BFF32F8F0027002F174616D17A0113D4AD
:1017D00007F0004240EA020351E8002F43EA0B03FE
:1017E000BA4243F06063EBD141E80037002FE9D102
:1017F000BFF35F8F0127E6E70023580102D4013CC5
:10180000C6D16BE683F00044049A04F000402EF049
:10181000004302440344C8E900232CF00042024480
:10182000C8F8082024F0806006F10802BFF35F8F3B
:1018300051E8003F41E80003002BF9D1012000BF2F
:1018400052E8001F013142E80013002BF8D109B023
:10185000BDE8F08F2DE9F04F83B040F2806A40F28E
:1018600000668046C2F2000A0020C2F200068946E5
:101870008AF8000030468021FEF751FE42F63851CA
:10188000C0F6000118224FF6FF7741F2210300BF96
:101890000D7887EA05276FF0070500BF3CB2384690
:1018A0007F00002C48BF83EA40070135F6D3013A98
:1018B00001F10101ECD1DAF8200042F26B71CEF2B5
:1018C000A511884208D1BAF80200B9B2884205D100
:1018D000DAF81C00451C04E0CAF82010AAF80270CF
:1018E000012540F20027012DC2F200074FF0000051
:1018F000CAF81C500ED18AF80100CAE90100CAF8E2
:101900000C0040F20020C2F200004FF48061FEF7AC
:1019100006FE0AE03918CA681030530144BF22F0AD
:101920004062CA60B0F5806FF4D100F0AFF9012DCC
:1019300004460AD1002C4FF000050CBF002000F037
:101940009FF9CAE90450CAF81850002C00F0E8804A
:10195000002001210022029405E000BF013004288C
:1019600002F1200211D028FA00F3DB07F6D00023A1
:1019700002EBD30503F00707745D01FA07F70133A3
:101980002743FF2B7755F3D1E8E7002031184A7F32
:10199000203042F0800280284A77F7D1002002E010
:1019A0002030802807D04028FAD13118CA7F42F071
:1019B0004002CA77F4E7CDF80490DAF8185004E052
:1019C000BFF32F8F00220D4652BB00F053F9A842FF
:1019D00018D2EFF3108272B6DAF81810A94203D0C9
:1019E0006AB1A9420ED11BE0DAF81030CAF818002B
:1019F0000133CAF81030BFF35F8F002AF1D162B60D
:101A0000A9420DD05AE8061FA942D9D1BFF35F8F72
:101A10004AE80602002AD5D1BFF35F8F0122D2E740
:101A2000DAF81CE0DAF814404FF080514FF0005221
:101A300001EAD00102EA9E024FF0804303EA540318
:101A400011444FF6007601EB030B0727C0F6007632
:101A5000009400BF5AE8011F4A1C4AE80123002BEA
:101A6000F8D140F2002301F03F02C2F2000303EB81
:101A7000021C01F47072614651F80C8F4BEA8235FA
:101A800005E000BFBFF32F8F0022C846A2B95FEA6E
:101A9000481210D408F0004251E8009F2A44C14582
:101AA00042EA0603EED141E80032002AECD1BFF34E
:101AB0005F8F0122E9E700235A0105D4013FC9D114
:101AC000019C0AF10C001FE0009E83F0004202F02E
:101AD000004320F000402EF0004726F00046184456
:101AE0001F443344CCE90007CCF80830BFF35F8FC4
:101AF000019C22F080620AF1080000BF51E8003F1B
:101B000041E80023002BF9D150E8001F013140E8E3
:101B10000012002AF8D1002C029C18BF00F004F833
:101B2000204603B0BDE8F08F2DE9F04381B040F2CC
:101B30008064C2F200042078002840F096800120E2
:101B40002070A56905E000BFBFF32F8F00220D466E
:101B500042BB00F08FF8A84216D2EFF3108272B6A3
:101B6000A169A94204D05AB1A9420DD11AE000BF1F
:101B70002369A06101332361BFF35F8F002AF3D192
:101B800062B6A9420ED000BF54E8061FA942DBD1BD
:101B9000BFF35F8F44E80602002AD7D1BFF35F8FFF
:101BA0000122D4E74FF0805140F2002C4FF6017330
:101BB00001EAD00E4FF00709C2F2000CC0F6007324
:101BC00054E8011F4A1C44E80125002DF8D101F01A
:101BD0003F020CEB021801F47072414651F80C5FA1
:101BE0004EEA823606E000BFBFF32F8F0025002D9E
:101BF000154613D16A0110D405F0004751E8002FB3
:101C00003744AA4247EA0307EED141E80075002DA8
:101C1000ECD1BFF35F8F0125E9E700277A0105D4F6
:101C2000B9F10109CCD104F10C0017E087F00042B2
:101C300002F0004320F000401844C8E90003C8F84F
:101C4000083022F0806204F10800BFF35F8F00BF0C
:101C500051E8003F41E80023002BF9D150E8001F74
:101C6000013140E80012002AF8D1012001B0BDE89E
:101C7000F083000041F20400CEF2000000687047DB
:101C800040F20C00C2F20000006870474EF6FC50B3
:101C9000CEF20000016841F08071016041F2000164
:101CA000CEF20001086840F0010201200A6070478E
:101CB000B0B5044600F0E0F8054640F21400C2F268
:101CC00000000078611C18BF044400BF00F0D4F885
:101CD000401BA042FAD3B0BD2DE9F04F83B000F114
:101CE000200200F13E4741F60045009207F1FF77E0
:101CF000C4F2020508224FEAB726A84208BF07220D
:101D0000072E38BF4FEAB72200274FF0000A4FF0E6
:101D1000000801920AE000BF08F101080AF1020A76
:101D2000B8F1100F07F1040700F09D800D68012243
:101D300002FA08FC15EA0C09EED04D68032205F002
:101D4000030BABF10106012E02FA0AFE10D88668D9
:101D5000CC6826EA0E0604FA0AF434438460446828
:101D6000C5F3001524EA0C0605FA08F52E43466073
:101D7000BBF1030F1BD0C6688D6826EA0E0605FA74
:101D80000AF52E43BBF1020FC66010D16FF00302BB
:101D9000009D02EA580655F806C007F01C040F2201
:101DA0000B69A2402CEA0202A3401A43AA5102681E
:101DB0004B6822EA0E0203F0030606FA0AF63243E3
:101DC00013F4403F0260A7D0002243F6440302927E
:101DD000C4F202031A6843F6004442F480421A60D7
:101DE0001A68C4F2010402F480420292029A28F0B6
:101DF00003024FF6084C2244CFF6FF7C52F80C3019
:101E000007F00C060F25B540AB43019D05FA06F619
:101E1000334342F80C30A2684B6842EA090643F6A5
:101E20000C4CDD0258BF22EA0906A660C4F2010C80
:101E3000DCF800209D0242EA090658BF22EA0906A2
:101E4000CCF8006062689D0342EA090658BF22EAA6
:101E5000090666602268DB0342EA090658BF22EAE7
:101E60000906266058E703B0BDE8F08F002A08BFD6
:101E7000090481617047000040F2B060C2F20000C6
:101E80000068704740F2140040F2B061C2F20000F6
:101E9000C2F2000100780A68104408607047000030
:101EA00080B543F60040C4F20200016841F40071BD
:101EB0000160016841F480610160016841F4807152
:101EC0000160032000F0B8F80F2000F005F800F0E2
:101ED00059F8002080BD0000B0B586B0002543F65B
:101EE00044010195C4F202010A68044642F001026D
:101EF0000A60096801A801F0010101910199694690
:101F000000F05AF900F078F94DF683614000C4F210
:101F10001B31A0FB01014FF0FF3000EB914140F27B
:101F20009C100022C2F20000C4F2010240F2E7332A
:101F3000C0E90021C0E902530561856100F056FB4C
:101F400008B106B0B0BD40F29C10C2F2000000F033
:101F50007DFB0028F5D10546192000F02FF80F2C45
:101F60000CD819202146002200F03AF840F218005F
:101F7000C2F200000460284606B0B0BD012006B0E1
:101F8000B0BD000082B0002043F640010190C4F2D1
:101F900002014A6842F480424A604A6802F4804280
:101FA0000192019A0090086840F08050086008682B
:101FB00000F080500090009802B07047002848BFA1
:101FC000704700F01F01012202FA01F11C2202EA0F
:101FD000D0004EF20012CEF2000281507047000095
:101FE00010B54EF60C5CCEF2000CDCF80030C3F3FA
:101FF000022E8EF00704042C28BF0424BEF1030334
:102000004FF0FF3E0EFA04F438BF0023A14399407D
:102010000EFA03F39A43114300F1604200F00F03FC
:10202000090102F56442043B6344002848BF03F100
:102030000C02117010BD00004EF60C51CEF20001E2
:102040000A684FF6FF031A4060F30A2242F08060EC
:1020500040F0FD7008607047002804BF0120704701
:102060002DE9F04143F60808C4F202080446D8F806
:10207000F8030D4600F00700884207D288F8F853AD
:10208000D8F8F80300F00700A84276D1206881074D
:1020900017D5410705D5D8F8001041F4E051C8F82C
:1020A0000010010705D5D8F8001041F46041C8F8C8
:1020B0000010D8F80010A26821F0F0011143C8F810
:1020C0000010C0073FD1D8F8F80300F00700A8427D
:1020D00007D988F8F853D8F8F80300F00700A842A9
:1020E0004BD12068410707D5D8F80010E26821F4E9
:1020F000E0511143C8F80010000708D5D8F80000D7
:10210000216920F4604040EAC100C8F8000000F0F6
:1021100087F8D8F8001042F61E52C1F30311C0F63A
:102120000002515C40F20C0220FA01F140F218006A
:10213000C2F200000068C2F200021160FFF7CCFE9C
:102140000020BDE8F0816068811E022907D258F89E
:10215000081C89015CBF0120BDE8F08110E0012866
:1021600007D158F8081C89035CBF0120BDE8F08145
:1021700006E058F8081C890702D40120BDE8F08168
:10218000D8F8001021F003010843C8F80000FFF759
:1021900073FE064641F28837D8F80000616800F007
:1021A0000C00B0EB810F8ED0FFF766FE801BB842AB
:1021B000F2D90320BDE8F0810F22026043F6080245
:1021C000C4F20202136803F003034360136803F0D0
:1021D000F0038360136803F4E053C360D2F800C0D7
:1021E0004FF4E05303EADC030361D2F8F80300F094
:1021F000070008607047000040F20C0043F6080139
:10220000C2F20000C4F202010068096842F62E52D0
:10221000C1F34231C0F60002515CC8407047000073
:1022200010B543F60404C4F20204606800F00C0028
:1022300008280AD0042819BF42F20040C0F2F40076
:1022400047F64000C0F27D1010BD20682168236869
:10225000490247F64001C0F27D1100F03F02C3F38E
:1022600088105CBF42F20041C0F2F401A1FB000102
:102270000023FEF71BF821680222C1F3014102EBA3
:102280004101B0FBF1F010BD002804BF01207047F0
:102290002DE9F04182B00446007843F60006C007FD
:1022A000C4F2020649D0B06800F00C00042809D13D
:1022B0003068800341D5606800283ED1012002B01B
:1022C000BDE8F081B06800F00C00082802D1706809
:1022D0004002EDD465683068B5F5A02F05D0B5F59E
:1022E000803F09D140F480300CE040F48020306021
:1022F000306840F4803005E020F480303060306891
:1023000020F480203060FFF7B7FD002D054611D086
:102310003068800311D4FFF7AFFD401B6428F7D964
:1023200028E100BFFFF7A8FD401B64284FF0030021
:1023300000F2E08030688003F4D4207880071BD559
:10234000B06810F00C0F09D0B06800F00C0008283D
:1023500040F085807068400200F18180306880071D
:1023600003D5E068012840F09A803068216920F0A8
:10237000F80040EAC10030602078000734D42078AB
:10238000400746D4A5695DB3B06800F00C0008288A
:1023900040F09C80012D00F082807068E16900F4BB
:1023A00080028A427BD1216A00F03F028A4276D1C4
:1023B00047F6C071626A0140B1EB821F6FD1A16A1A
:1023C0004FF6FF73C903994300F44032A1F5803101
:1023D0008A4264D1E16A00F07060B0EB016F5ED1B7
:1023E000002002B0BDE8F081606900285BD00020C9
:1023F000C4F247200121C0F8801EFFF73DFD0546CD
:10240000706F8007BBD4FFF737FD401B0228F7D958
:10241000B0E0306C5FEAC0080AD400200190306C54
:1024200040F080503064306C00F080500190019892
:1024300047F20007C4F200073868C00526D43868A0
:1024400040F480703860FFF717FD05463868C00516
:102450001CD4FFF711FD401B0228F7D98AE0E06881
:10246000002840F20000C4F2472053D0012101604F
:10247000FFF702FD054600BF306880073FF575AFE6
:10248000FFF7FAFC401B0228F6D973E0A568306F0D
:10249000052D51D0012D56D140F0010059E0012009
:1024A00002B0BDE8F0810020C4F247200021C0F84E
:1024B000801EFFF7E1FC0546706F80077FF55FAF78
:1024C000FFF7DAFC401B0228F6D953E00027C4F2DC
:1024D000472700203866FFF7CFFC022D05460DD1B7
:1024E000306880015DD5FFF7C7FC401B02284FF024
:1024F0000300F5D902B0BDE8F08100BF306880016B
:102500007FF56EAFFFF7B8FC401B02284FF00300C9
:10251000F4D9EFE700210160FFF7AEFC054600BFEC
:10252000306880077FF528AFFFF7A6FC401B022824
:102530004FF00300F4D9DDE740F004003067306F5E
:1025400040F0010005E020F001003067306F20F01E
:1025500004003067FFF790FC002D054641F28837F4
:1025600013D000BF306F800712D4FFF785FC401BEB
:10257000B842F7D9032002B0BDE8F081FFF77CFC38
:10258000401BB8424FF00300B4D8306F8007F5D439
:10259000B8F1000F3FF5F6AE306C20F0805030649B
:1025A000F0E604F11C052FCD084340EA8210D90360
:1025B0004FF6FF729143A1F5803140EA0560084370
:1025C000706001203866FFF757FC044630688001D0
:1025D0003FF506AFFFF750FC001B02284FF0030049
:1025E000F4D987E77047000070470000002804BF57
:1025F0000120704710B5044690F83D0028B900202E
:1026000084F83C00204600F01FF8022084F83D00CA
:102610002068211D00F008FA012084F8460084F8A3
:102620003E0084F83F0084F8400084F8410084F8BC
:10263000420084F8430084F8440084F8450084F89C
:102640003D00002010BD00007047000090F83D10D4
:1026500001291CBF01207047022180F83D1000684D
:1026600041F2FF72C168C4F20002904241F00101E0
:10267000C1600DDC40F2FF71C4F20001884215DC3C
:10268000B0F1804F29D040F20041C4F2000122E0B5
:1026900040F2FF31C4F20101884212DC41F6000130
:1026A000C4F20001884218D0002112E040F6000177
:1026B000C4F20001884210D040F60041C4F200018B
:1026C00009E044F20001C4F20101884205D040F261
:1026D0000041C4F20101884206D1816801F007017E
:1026E000062904BF00207047016841F00101016024
:1026F000002070477047000070B504460068C56848
:102700000669B10716D515F0020113D06FF002016A
:102710000161012121778069800703D02046FFF7FE
:10272000E9FF05E0204600F08DF8204600F08CF827
:1027300000202077700718D515F0040015D0206808
:102740006FF00401016102212177806910F4407F5C
:1027500003D02046FFF7CEFF05E0204600F072F8D8
:10276000204600F071F800202077300717D515F0CB
:10277000080014D020686FF008010161042121775E
:10278000C069800703D02046FFF7B4FF05E020466C
:1027900000F058F8204600F057F800202077F006A7
:1027A00018D515F0100015D020686FF010010161E8
:1027B00008212177C06910F4407F03D02046FFF73D
:1027C00099FF05E0204600F03DF8204600F03CF877
:1027D00000202077F00718BF15F0010002D1300665
:1027E00009D412E020686FF001010161204600F079
:1027F0002DF8300609D515F0800006D020686FF05E
:10280000800101612046FFF7EDFE700609D515F045
:10281000400006D020686FF040010161204600F0C2
:102820001FF8B00658BF70BD15F0200008D0216811
:102830006FF0200220460A61BDE87040FFF7D4BE69
:1028400070BD000070470000704700000068002164
:10285000C4F20101884218BF7047FFF713BB0000A4
:1028600070470000FEE7000010B50024C4F2020427
:10287000204610210122FFF7F9FAC820FFF718FAC5
:10288000204610210022FFF7F1FA204620210122E4
:10289000FFF7ECFAC820FFF70BFA204620210022B0
:1028A000FFF7E4FA204640210122FFF7DFFAC820B3
:1028B000FFF7FEF9204640210022FFF7D7FA204615
:1028C00080210122FFF7D2FAC820FFF7F1F9204654
:1028D00080210022BDE81040FFF7C8BA70B586B06D
:1028E000002543F630000595CDE90355CDE90155A6
:1028F0000095C4F202000168002441F080010160EB
:102900000168C4F2020401F0800100910099009571
:102910000168002241F00101016000684FF4F87184
:1029200000F001000090009820464FF4F876FFF781
:102930009DFA0120CDE9020501A9204601960495E2
:10294000FFF7CAF906B070BDFEE70000FEE7000021
:1029500070470000704700007047000070B592B0EB
:1029600006AC20463021FDF7DAFD002543F6400095
:102970000595CDE90355CDE901550095C4F2020056
:102980000168022641F080510160006800F080502B
:102990000090009847F200000095C4F20000016822
:1029A00041F480410160006800F48040009000988C
:1029B000012006904FF4803007904FF480000D9076
:1029C00019200E904FF4A870CDE90F060420119045
:1029D00020460C96FFF758FC08B172B6FEE70F20B0
:1029E000CDE901064FF4A05004904FF480500590BB
:1029F00001A805210395FFF72FFB10B172B600BFA8
:102A0000FEE712B070BD00004EF68850CEF2000016
:102A1000016841F4700101607047000040F29C10B1
:102A2000C2F20000FFF768BEB0B540F6FF3E056891
:102A3000C4F2000E40F2004C7045C4F2010C0FDCF1
:102A4000B0F1804F19D040F20043C4F20003984225
:102A500013D040F60003C4F2000398420DD011E0F9
:102A600040F60043C4F20003984206D0604504D00B
:102A70000023C4F20103984204D14B6825F0700290
:102A800043EA020541F6FF73C4F2000398420FDCEB
:102A9000704521DCB0F1804F41D040F20043C4F2D8
:102AA000000398423BD040F60003C4F2000334E038
:102AB00043F6FF73C4F2010398421EDC42F20003A6
:102AC000C4F2000398422AD00023C4F201039842C2
:102AD00025D0604523D027E040F60043C4F2000330
:102AE00098421CD041F60003C4F20003984216D06D
:102AF00041F60043C4F200030FE044F20003C4F2C5
:102B0000010398420BD044F60003C4F2010398423B
:102B100005D044F20043C4F20103984204D1CB68CB
:102B200025F4407243EA02050A688C684B69C46266
:102B300040F480648262644504BF096901630268ED
:102B400025F0800142F00402194302600122426133
:102B50000160B0BDFEE7000048F20401411A002008
:102B600011F1030F38BF4FF0FF30704748F20401F6
:102B7000411A002011F1030F38BF4FF0FF307047AA
:102B800048F20101411A0020032938BF0120704793
:102B900010B301783A291FD110B542F65851C0F64A
:102BA00000010446FDF7E4FCC8B142F65F51C0F6EF
:102BB00000012046FDF7DCFCA0B142F65051C0F602
:102BC00000012046FDF7D4FC01464FF0FF300029FC
:102BD00008BF48F2030010BD4FF0FF30704748F2C5
:102BE000010010BD48F2020010BD00004FF0FF30A0
:102BF00070470000B0B5144648F2030290420BD073
:102C000048F20202904209D134B14D1E15F8010F6D
:102C100000F044F8013CF9D10020B0BD4FF0FF3086
:102C2000B0BD00000F200121FEF714FEFEF77CFF6F
:102C3000FFF736F9FFF792FEFFF750FE42F66754B2
:102C400040F21006C0F60004C2F2000612A50AE027
:102C50004EF6207021467222FEF77CFA306800287A
:102C60001CBF013830604FF46F4021466822FEF7E8
:102C700071FAFFF7F9FD31680029E9D02846FDF720
:102C80008DFBFEF75BFAC820FFF712F8FEF74EFA4D
:102C9000C820FFF70DF8DBE725640A00B0B540F265
:102CA000AC64C2F200042168072984BF4FF0FF30F2
:102CB000B0BD40F2A4634A1CC2F200030A2822609D
:102CC00058541CBF082AB0BD4FF6006340F2A461FF
:102CD000C0F20203C2F2000105461846FEF702FBED
:102CE000284600212160B0BD8A68002A02DC00224B
:102CF000FDF720BE521E8A604A68C0B2531C4B606A
:102D000010707047F1EE100A4FF6FF71C0F2C0313B
:102D100020EA010040F04070E1EE100A7047000028
:102D2000000000000000010203040607080900007B
:102D30000000010203040000010001014000000046
:102D40000002002000060020800600200000000095
:102D50003A535444455252003A535444494E003A6F
:102D60005354444F5554002E2E2F436F72652F53EA
:102D700072632F6D61696E2E63000000C02D000824
:102D80000000002040000000EC010008002E0008B8
:102D900040000020781200000C0200080000000033
:102DA0000000000000000000000000000000000023
:102DB0000000000000000000000000000000000013
:102DC0000000000000000000000000000024F400EB
:102DD00002000000010000001000000000000000E0
:102DE00000000000000000000000000000000000E3
:102DF00000000000000000000000000000000000D3
:040000050800018965
:00000001FF
