:020000040800F2
:10000000F8120020110300080545000825420008E9
:1000100001450008D91F00087D4D000800000000C0
:10002000000000000000000000000000794500080A
:10003000DD1F00080000000075450008D1450008DC
:100040002B0300082B0300082B0300082B030008D8
:100050002B0300082B0300082B0300082B030008C8
:100060002B0300082B0300082B0300082B030008B8
:100070002B0300082B0300082B0300082B030008A8
:100080002B0300082B0300082B0300082B03000898
:100090002B0300082B0300082B0300082B03000888
:1000A0002B0300082B0300082B0300082B03000878
:1000B000AD460008BD4600082B0300082B030008CE
:1000C0002B0300082B0300082B0300082B03000858
:1000D0002B0300082B0300082B0300082B03000848
:1000E0002B0300082B0300082B0300082B03000838
:1000F0002B0300082B0300082B0300082B03000828
:100100002B0300082B0300082B0300082B03000817
:100110002B0300082B0300082B0300082B03000807
:100120002B0300082B0300082B0300082B030008F7
:100130002B03000800000000000000002B03000853
:100140002B0300082B0300082B0300082B030008D7
:100150002B0300082B0300082B0300082B030008C7
:100160002B0300082B0300082B0300082B030008B7
:100170002B0300082B030008000000000000000013
:100180002B0300082B03000800F002F800F0B0F881
:1001900014A696E8000CB244B344DA4501D100F04D
:1001A000A7F8BAE80F000FA696E83000A5EB040503
:1001B00004EB0607AAEB0704A7F101074FEA1515A0
:1001C0004FEA3414A4F10104AC4201D300F090F8DA
:1001D00013F0010F18BFFB1A43F0010300F001F800
:1001E000DBE71847FC5A00001C5B0000103A24BFF4
:1001F00078C878C1FAD8520724BF30C830C144BF8C
:1002000004680C6070470000704700000023002461
:1002100000250026103A28BF78C1FBD8520728BF16
:1002200030C148BF0B6070476E2900F061827029B1
:1002300000F09783662905F09284652905F08F8484
:10024000672905F08C84612905F08B8403681B0AFB
:1002500028BF41F08001692900F00E82642900F076
:100260000B82752900F008826F2900F02583782918
:1002700000F06383E92900F0BF82E42900F0BC822A
:10028000F52900F0B982EF2900F02283F82900F067
:1002900062830368DB0928BF41F08001632901F014
:1002A000AD80732901F0B280E32901F0BD80F3290C
:1002B00001F0C280002070471FB505F043FC9DE8A7
:1002C000030001F06FFC01F0ADF9040000200021F3
:1002D00005F022FC401C60600020002105F006FCB7
:1002E000E06001F0B1F81FBD10B501F016F910BDC6
:1002F00001F06AF91146FFF7DFFF04F07DFF01F01E
:1003000021FC03B4FFF7F0FF03BC01F0C9FD0000BE
:100310000948804709480047FEE7FEE7FEE7FEE799
:10032000FEE7FEE7FEE7FEE7FEE7FEE704480549D5
:10033000054A064B704700009946000889010008ED
:10034000F8060020F8120020F80A0020F80A002021
:1003500053EA020C00F069802DE9F04B4FF00006E3
:10036000002B1FBFB3FA83F503FA05F424FA05F650
:100370005E4012BF1643B2FA82F502FA05F4C5F1E7
:1003800020051EBF22FA05FC44EA0C04203556EA7B
:10039000044C4FEA144418BF641C4FF000084FF09F
:1003A0000009904271EB030C39D3002919BFB1FA4F
:1003B00081F701FA07F6B0FA80F700FA07F6C7F1FD
:1003C00020071EBF20FA07FC46EA0C062037B6FBC2
:1003D000F4FCA7EB0507103F07F01F0BCBF120063D
:1003E0002CFA06F60CFA0BFB44BFB3460026202F6E
:1003F000A4BF5E464FF0000B5BEA060C08BF4FF04F
:10040000010B19EB0B0948EB0608ABFB027C06FB62
:1004100002CC0BFB03CCC01B71EB0C01C1E70B46FC
:10042000024641464846BDE8F08B13B5084318BF65
:100430004FF0FF300146AFF30080BDE81C4070472D
:100440000FB4044910B503AA029800F065F910BC76
:100450005DF814FB94000020032A40F2308010F075
:10046000030C00F0158011F8013BBCF1020F62444F
:1004700098BF11F801CB00F8013B38BF11F8013BE0
:10048000A2F1040298BF00F801CB38BF00F8013B8D
:1004900011F0030300F03483083AC0F0088051F8EB
:1004A000043B083A51F804CBA0E80810F5E7121D08
:1004B0005CBF51F8043B40F8043BAFF30080D20727
:1004C00024BF11F8013B11F801CB48BF11F8012BF3
:1004D00024BF00F8013B00F801CB48BF00F8012B16
:1004E00070474FF0000200B51346944696462039F7
:1004F00022BFA0E80C50A0E80C50B1F12001BFF4DD
:10050000F7AF090728BFA0E80C5048BF0CC05DF842
:1005100004EB890028BF40F8042B08BF704748BF90
:1005200020F8022B11F0804F18BF00F8012B704704
:1005300030B44FF0013C50F8042B51F8043BCCFA96
:1005400052F4D51A20D1FCB950F8042B51F8043BD1
:10055000CCFA52F4D51A17D1B4B950F8042B51F88B
:10056000043BCCFA52F4D51A0ED16CB950F8042BD6
:1005700051F8043BCCFA52F4D51A05D1002CDAD04C
:1005800030BC4FF00000704729BAB1FA81F111F088
:100590001801D1F120008440F2D1CA40CB4012F0C2
:1005A000FF0213F0FF0330BCD01A7047704770474A
:1005B000704770B5044685690068C10601D53026CC
:1005C00000E02026C00707D070BDD4E901213046E5
:1005D0009047206A401C20626D1EF6D570BD70B534
:1005E000044685690078C00707D170BDD4E90121B0
:1005F00020209047206A401C20626D1EF6D570BDF9
:1006000009684A0501D540B27047C905FCD500B25A
:10061000704709684A0501D5C0B27047C905FCD5C5
:1006200080B2704770B50C460546012A05D028787F
:10063000800600D5EA69002302E0012305E05B1C87
:10064000934202D2E05C0028F9D1A869E618C01AEA
:10065000A861286A184428622846FFF7AAFF04E028
:10066000D5E9012114F8010B9047B442F8D328468C
:10067000FFF7B5FF70BD00002DE9F04106460024EC
:1006800010687529314616A510D0FFF7B9FF00286C
:1006900002DA404213A507E031688A0701D512A5A6
:1006A00002E0490704D511A5012401E0FFF7B1FFDD
:1006B00000210A2206F1240709E0B0FBF2FCB0FB9E
:1006C000F2F302FB1C00303078541846491C002815
:1006D000F3D123462A463046BDE8F04100F087BA00
:1006E000000000002D0000002B0000002000000092
:1006F00011680268006A530501D508700AE0D30545
:1007000001D5088006E0130603D5C217C1E900022F
:1007100000E0086001207047074B70B50D467B4430
:1007200000F04FFE0446284600F08AFE10B14FF05C
:10073000FF3070BD204670BDAD5300002DE9FF5F56
:1007400015468A460446DFF8AC80F8440027D8E90D
:1007500000103E46CDE9001010E03AF816106A4647
:1007600002A800F00DFF411C07D02178890603D5AF
:10077000E269391891420DD80744761C207880062A
:1007800002D5E069B84205DDAE42E6DB3AF8160074
:100790000028E2D1A069C01BA0612046FFF709FF35
:1007A000D8E90010CDE90010002017E03AF8181041
:1007B0006A4602A800F0E4FEB0F1FF3F81460BD08C
:1007C00000250DF1080B05E0D4E901211BF8050017
:1007D00090476D1C4D45F7D308F10100B0428046AB
:1007E000E4DB206A384420622046FFF7F8FEBDE8CB
:1007F000FF9F00001A5400002DE9F0418046D21DF1
:1008000022F007020025D2E90002F52915A614D02E
:10081000011E72F1000106DA0023D0EB030063EB46
:10082000020211A608E0D8F800108B0701D50FA628
:1008300002E0490701D50EA601251146002408F162
:10084000240704E000F08EF930323A55641C50EA77
:100850000102F7D12B46324621464046BDE8F04121
:1008600000F0C5B9000000002D0000002B000000C2
:100870002000000030B4002100F1240408E002F060
:100880000705D208303542EA4372DB086554491C3B
:1008900052EA0305F3D10468002310A2250708D506
:1008A00004F020040C4304D0C46901230CA2641E8C
:1008B000C46130BC00F09BB910B5044621461068F5
:1008C000FFF7A7FE02462046BDE810400023D1E70F
:1008D000D21D22F00701D1E90023CBE70000000080
:1008E00030000000F0B40D460188090502D5214C06
:1008F0007C4402E01F4C7C440E34002100F12406AD
:1009000008E002F00F071209E75D42EA03721B09D3
:100910007754491C52EA0307F3D1027800231207E7
:1009200004D5702D06D009B1022311342246F0BC43
:1009300000F05DB901231034F8E770B504460D46A8
:1009400021461068FFF765FE024629462046BDE8AD
:1009500070400023C6E7D21D22F00703D3E900232D
:10096000C0E70368126843F0200303600823C361F3
:100970000023B7E77C5200002DE9F05F894604466A
:100980004FF0000ADFF874B1FB44C0F820A0204605
:10099000E1688847002874D0252806D0D4E90121D1
:1009A0009047206A401C2062F1E700265F462046FF
:1009B000E16888472028054607DB312D05D27819E4
:1009C00010F8200C08B10643F1E7B00701D526F076
:1009D0000406C4F81CA00027C4F818A02A2D09D0CA
:1009E000284605F06DF838B304EB8708303DC8F8A9
:1009F000185019E059F8041B204604EB8702916156
:100A0000E1688847012F054618D1E069002820DAFF
:100A100026F020061DE0D8F8180000EB800005EB5A
:100A200040003038C8F818002046E168884705467D
:100A300005F046F80028EED1012F0AD02E2D08D15E
:100A40002046E16888477F1C0546022F46F02006B5
:100A5000C4DBA069002803DA404246F00106A06129
:100A6000F00701D026F010066C2D0BD0682D09D0B0
:100A70004C2D39D06A2D35D0742D35D07A2D33D008
:100A800016E038E0E1682F4620468847B842054620
:100A900009D16C2F26D04FF48060E16806432046D0
:100AA0008847054604E06C2F1AD04FF48070064347
:100AB0000DB3A5F14100192802D8203546F400668F
:100AC0004A462946204626604E46FFF7ADFB80B1D8
:100AD00001280BD0F61D26F0070000F1080956E7A3
:100AE0004020E4E78020D8E70020D6E706F104099B
:100AF0004DE7284652E7206ABDE8F09F0C520000FF
:100B000010B5203AC0F00B80B1E81850A0E818509A
:100B1000B1E81850A0E81850203ABFF4F5AF5FEAEA
:100B2000027C24BFB1E81850A0E8185044BF18C98F
:100B300018C0BDE810405FEA827C24BF51F8043B36
:100B400040F8043B08BF7047D20728BF31F8023B8A
:100B500048BF11F8012B28BF20F8023B48BF00F81E
:100B6000012B704730B5B0F10A0271F100034FEA72
:100B7000900E4EEA817EB0EB0E0061EB91014FEAE0
:100B8000101E4EEA017E10EB0E0041EB11114FEAF0
:100B9000102E4EEA016E10EB0E0041EB11214FEAD0
:100BA000104E4EEA014E10EB0E0041EB1141401881
:100BB00041F100014FEAD00040EA41704FEAD10113
:100BC0004FEA810444EA907410EB800544EB010481
:100BD0006D1944EB0404521BA3414FF0000348BFBE
:100BE0000A3200D530BD401C41F1000130BD2DE975
:100BF000F0470D4699469246044600F124080168E4
:100C0000880604D5E06921F01001216000E0012090
:100C1000A84201DD471B00E00027A1697A1902EB19
:100C20000900081AA0612078C00602D42046FFF708
:100C3000C0FC002608E0D4E901211AF8060090471C
:100C4000206A401C761C20624E45F4DB2078C006EA
:100C50000AD52046FFF7ADFC06E0D4E9012130209B
:100C60009047206A401C2062381EA7F10107F4DC7F
:100C700007E0D4E9012118F805009047206A401CDC
:100C80002062281EA5F10105F3DC2046FFF7A7FC32
:100C90002078000602D50220BDE8F0870120FBE79E
:100CA0002DE9FF4F0C461E464FF0FF378BB0D2E9BF
:100CB0000001DDF860800A908A46C1F30A5505B943
:100CC0003D46002108464FF00000BAF1000F00F445
:100CD000400005DA00EB80004FF4400101EA5000CB
:100CE0004FEA9059B9F1010F00DDB9460A9850EA70
:100CF0004A000ED044F61050A5F2FF3545432F149C
:100D0000B8F1000F1ED07542291E1EDDC9F1000288
:100D10001CE0B8F1010F4FF0000001D0302103E0DA
:100D2000F24305E02154401CB042FBDB3046002278
:100D3000002121540B99C1F80880C1E900200FB0AF
:100D4000BDE8F08FBD1B6D1CDEE74A4600DA694244
:100D500006A800F0D3FC06AB93E8070003AB83E8DA
:100D6000070050460A9904F0CBFA8DE80700A0F579
:100D700000501F3800900398002D0ADD42F21F0139
:100D80004A460844002303A90390684604F034FD52
:100D900009E0A0F500504A461F38002303A903903C
:100DA000684604F03EFD8DE807000004000C03D007
:100DB0004FF0FF30410800E01046B8F1000F03D0BB
:100DC0000022009215461EE0751E05D4FFF7CAFEEC
:100DD000303262556D1EF9D5B3460122084302D068
:100DE00000227F1C04E02078302801D100227F1EE1
:100DF000002A099784D01DE0112D07DAFFF7B2FE13
:100E0000303262556D1C50EA0102F5D1084302D020
:100E10000098C8B10EE00021681E05E0235C625C0A
:100E200063542254401E491C8142F7DBAB46A81B89
:100E3000401E0990002004F80B000B98099AC0F896
:100E40000880C0E9002B7AE711264FF0000857E729
:100E50002DE9F04F88460446D21D22F0070191B0DB
:100E6000D1E90001CDE90A0104F012FE02460B9817
:100E7000C00F01D02D2007E02068810701D52B206D
:100E800002E0202101EAC000032A099001D0072ACC
:100E900005DB03464146204600F0F0FB0BE12078DD
:100EA000800601D5E06900E00620B8F1650F8146B3
:100EB00006D0B8F1660F18D0B8F1670F70D131E0E5
:100EC0000020B9F1110F009001DB112301E009F1BD
:100ED00001030AAA01A90CA8FFF7E2FEDDE90C70E4
:100EE000002609F10105834647E001204B460090AA
:100EF0004FF000470AAA01A90CA8FFF7D1FEDDE9CF
:100F00000DB00C995D46002610B909F101000D18CD
:100F1000B9EB050003D4C0F1FF3609F10105A5EBDB
:100F200009002BE0B9F1010F01DA4FF001090020AF
:100F3000B9F1110F0090484601DD112300E003468E
:100F40000AAA01A90CA8FFF7ABFEDDE90C704D461B
:100F500000268346207800070AD4AB4500DA5D46B8
:100F600001A8012D04DD411911F8011C302907D019
:100F70004F4502DA17F1040F04DA012082460FE030
:100F80006D1EEEE7002F02DCED1B3E4403E0781CF3
:100F9000A84200DD7D1CB81B00F1010A4FF000479C
:100FA0002078000703D4AA4501DB4FF0FF3A002167
:100FB000B7F1004F0DF143088DF8431024D0022003
:100FC0002B23002F01DA7F422D230A21021EA0F1DC
:100FD000010000DC5FB197FBF1FC97FBF1F201FB34
:100FE0001C7C17460CF1300C08F801CDEEE7A8F197
:100FF000010003702188090501D5452100E0652124
:10100000A0F1010800F8011C09980FA9A1EB08073D
:10101000FF1D00B10120411901EBEA70A1693844BC
:10102000081A401EA0612078C00602D42046FFF7AF
:10103000C0FA099828B1D4E901219047206A401CE0
:1010400020622078C00622D52046FFF7B2FA1EE0C3
:10105000002E04DBB34502DD01A8805D00E03020F6
:10106000D4E901219047206A401C2062761CAAF135
:1010700001005FEA000A0AD100F0D4FAC0680168F2
:10108000405CD4E901219047206A401C2062281E60
:10109000A5F10105DCDC07E0D4E9012118F8010B1A
:1010A0009047206A401C2062381EA7F10107F3DC3C
:1010B0002046FFF794FA032011B041E62DE9F04FE6
:1010C00004460D46D21D22F0070089B0D0E90097F2
:1010D0004846394604F0DCFC0246F80F01D02D23C7
:1010E00007E02068810701D52B2302E0202101EAD7
:1010F000C0038DF820300BB1012000E00020032A4E
:10110000824601D0072A04DB2946204600F0B6FAC1
:101110003FE12078800601D40D2500E0E569C7F3A2
:101120000A560D2D49DA00214FEA175B08464FF0A9
:101130000000002F00F4400007DA00EB80004FF4BD
:10114000400100EBD07001EA60008115012901DD4A
:101150004FF0FF3100224FEA850CBCF1180F06D387
:101160001346ACF118004FF08052C24003E04FF438
:10117000801323FA0CF30CF10C0CBCF1200F04D3F8
:10118000ACF1200C09FA0CF001E007FA0CF0002990
:101190004FF0004801DD18B90FE00ED140450CD3E7
:1011A00019EB02095F4121B9404502D19F4329EA69
:1011B0000209BBEB175F00D0761C2088000502D522
:1011C0007B48784402E07A487844193808AA3023EA
:1011D00002F80A30037C0AF10101002E0AF1020A2A
:1011E00053546A4602DC4FF0300101E04FF0310108
:1011F0004FF001088DF8001002D0A6F2FF3603E090
:1012000059EA470100D06B4E002D02DC2178090716
:1012100004D54FF002082E218DF80110C44600219C
:101220000BE0C7F303433F01C35C491C6D1E02F88A
:101230000830052908F1010801DA002DF1DC002150
:101240000CE000EB1973491C1B786D1E082902F88D
:1012500008304FEA091908F1010801DA002DF0DC25
:1012600021688B0602D516E0A8F10108E04505DDEE
:1012700002EB080313F8013C302BF5D0B8F1000F56
:1012800009DD02EB080313F8013C2E2B03D10907FB
:1012900001D4A8F10108002D05DD3E2102F8081057
:1012A0006D1E08F10108407C002E02F8080008F1CC
:1012B000010804DA2D20764202F8080002E02B2013
:1012C00002F808000A214FF47A70864208F10108FA
:1012D0000BDB96FBF0F3303302F8083096FBF0F3AB
:1012E00008F1010800FB136601E0642E0CDB6420AA
:1012F00096FBF0F3303302F8083096FBF0F308F178
:10130000010800FB136601E00A2E06DB96FBF1F0F4
:10131000303002F8080008F1010896FBF1F001FBFB
:101320001060303002F80800A16908F1010808EBEC
:10133000050202EB0A00081AA0612078C00602D458
:101340002046FFF736F9216A08AE01EB0A00206259
:1013500004E0D4E9012116F8010B9047BAF1010A23
:10136000F7D22078C00602D52046FFF722F96E4654
:1013700009E016F8010B3E280FD0D4E9012190476F
:10138000206A401C2062B8F10108F2D22046FFF723
:1013900026F909B00320BDE8F08F206A28442062B6
:1013A00003E0D4E90121302090476D1EEBD3F8E72C
:1013B000F649000002FCFFFF01694A1C026108783F
:1013C000704700B58FB0CDE9013100210591054985
:1013D0007944CDE9031011466846FFF7CDFA0FB006
:1013E00000BD0000E5FFFFFF10B5436913B1AFF387
:1013F000008001E0FFF716F9012010BD127800F11E
:1014000024010A7000224A700122EDE711684FF0B2
:10141000FF32E9E710B5436913B1AFF3008001E093
:10142000FFF78CF9012010BD128800F1240182849D
:101430000022C2840122EDE711684FF0FF32E9E794
:10144000007B00F08000704710B542485421FFF740
:1014500048F841485421FFF744F840485421FFF729
:1014600040F83F493B483C4A3F4B08603D490A60D1
:101470003A491960531C0365481C10650120086532
:101480003B48344A39A1784400F0BEFA20B93848C4
:1014900078440A3800F05FFB37482F4A35A178447A
:1014A00000F0B2FA20B9344878440A3800F053FB0F
:1014B00032482A4A2FA1784400F0A6FA20B92F48D2
:1014C00078440A3800F047FB40232248DC00002122
:1014D000224600F076FA20B125487844543800F0CE
:1014E0003AFB1D4822464023002100F06AFA20B151
:1014F00021487844543800F02EFB18482246102327
:10150000002100F05EFA002806D01C487844BDE8AF
:101510001040563800F01FBB10BD104870B5006D6C
:1015200020F001040B4800F0E7FA0B4800F0E4FA61
:101530000A4800F0E1FA09E0206D20F0010520469C
:1015400000F0DAFA204600F071F82C46002CF3D1B6
:1015500070BD00004000002094000020E800002042
:10156000000000200400002008000020720000009D
:101570000A48000077000000F9470000D247000049
:101580002DE9F04116460C46054600F043F8036885
:1015900093F80101012807D0FF2C12D8185D80B103
:1015A00001202C70BDE8F081D3F8070132462146B6
:1015B00003F20713C7182846BC46BDE8F0410023D4
:1015C00060474FF0FF30EDE7754600F0CBFAAE46CE
:1015D00005006946534620F00700854618B020B53F
:1015E000FEF7A4FEBDE820404FF000064FF00007D4
:1015F0004FF000084FF0000BAC46ACE8C009ACE877
:10160000C009ACE8C009ACE8C00921F007018D466B
:101610007047000010B500F005F8001D10BD00BFB8
:10162000F9440000004870475C01002070B5044692
:10163000051F00F09BFA0068002C14BF446870BDC1
:10164000002C18BFAC423CBF20466468F8D3016848
:101650000A18AA4218BF456003D12A6805461144FA
:10166000016028684119A1421CBF6C6070BD6168AF
:10167000696021680844286070BD00002DE9F041D0
:101680001F46044603260168072A01F4006004DBB4
:1016900008B116A505E016A503E008B115A500E000
:1016A00015A521F010002060A069C01EA0610FB137
:1016B000401EA0612046FEF77CFF4FB1D4E9012116
:1016C00038469047206A401C2062C01C206206E019
:1016D000206AFAE7D4E9012115F8010B9047761E3C
:1016E000F8D22046FEF77BFFBDE8F0814E414E0068
:1016F0006E616E00494E4600696E66002DE9F04746
:10170000814616468AB0354878440DC88DE80D00EC
:1017100032487844801C03AC0DC884E80D0041F6C3
:101720009B300844372190FBF1F290FBF1F5A5F1D5
:10173000800501FB12041B3C02D56442012000E03D
:101740000020DFF898A080460027FA44AAF1BE0ADC
:101750000EE0E0070AD03246684607EB4701012356
:101760000AEB810104F05DF88DE8070064107F1C2E
:10177000002CEED1194F7F44AE3F19E0E80715D099
:1017800007EB04100DF1180A90E80E008AE80E002D
:10179000C068F04201D1981908903246012306A989
:1017A00003A804F03EF803AB83E807006D10641C47
:1017B000002DE3D14FF0010332466946B8F1000F26
:1017C00003A802D004F018F801E004F02AF8C9E9EF
:1017D0000001C9F808200AB0BDE8F08740450000C4
:1017E0002DE9F05F054617460C46C86820F4201026
:1017F00040F48000C860800602D5084600F00FFB68
:10180000E06841F282014FF0FF3A0140022903D023
:10181000204600F0A1FAB9E000F42041B1F5004FF4
:101820000FD1C00306D56168E06A884200D8084637
:10183000606006E02069E0626060606903F026FB9A
:10184000A061A0680022EEB200280DDAE1688B05E5
:101850000AD4C043A06041F490302260E060606828
:10186000411C61600670AAE0E0689146226040F485
:101870000050E060206978BB606903F02DFB04F143
:1018800024054FF00108A8B1A08910F4407F08D0CA
:10189000E06900F0B6F9206118B1E06840F400603A
:1018A00017E0C4F81C802561E06820F4407040F423
:1018B00080600EE0E06900F0A4F900282061F0D01B
:1018C000E06840F4006010F4407FE06002D140F432
:1018D0008070E06020696060E06825696FF0010B4E
:1018E000C1051ED56168E06A884200D80846411BE0
:1018F00004D02246284600F039FAE8BB1FB1E56261
:10190000C4E9015959E0681CE0626060E069401E6A
:10191000A060E06840F48030E06030462E70BDE8A2
:10192000F09F17B100F480320AE06068411C6160EA
:101930000670E0680A2E40F48030E06006D0002295
:10194000E16A6068814203D90B4602E00122F7E7B1
:101950000346B4F80CC05B1B5FEA4C5C04D4D4F8BB
:101960001CC09C4500DD02B3814200D80146002B1B
:10197000A1EB0008E56200E008E0C4E9015907DDD9
:1019800022461946284600F0F1F908B15046C6E74C
:10199000B8F1000F09D0A169E5626560A1EB08000C
:1019A000A061E06840F01000E06047B16168A069A4
:1019B000E562491B08446560A0615846AFE73046C0
:1019C000ADE770B5C468A50713D0650211D4B2F5B0
:1019D000807F09D0B2F5007F06D0B2F5806F08D1C4
:1019E000012300F1240106E05D1E6FF07F46B54241
:1019F00001D3012070BD0161C361416024F47061B5
:101A00001143C160002070BD2DE9F0410C4616461F
:101A1000070047D0104600F06FF82078611C61285D
:101A20000AD0722802D077283CD102E00125002498
:101A300005E00225042402E0082448F2020511F81A
:101A4000010B2B2806D0622809D011F8010C74284C
:101A50000AD00BE045F0030544F00204EFE745F03F
:101A6000040544F00104EAE744F010043846214636
:101A700003F056FA411C15D00021316171604FF41A
:101A80000071F560F1617061200704D530460222D3
:101A9000002100F0E5F8306D40F00100306530467F
:101AA000BDE8F0810020FBE72DE9F0410D46064638
:101AB000104C206DC10704D0410804D020F001046F
:101AC000F7E722460EE0542000F09BF807000ED006
:101AD000206D47F001010843542120653846FEF788
:101AE00000FD3A4629463046BDE8F0418CE700202B
:101AF000D6E70000400000202DE9F04704464FF0F3
:101B0000FF380026C568D4E90497A80718D02046F6
:101B100000F062F9384603F093F9002800DA4646EF
:101B2000280502D54846FFF781FD4C212046FEF7E7
:101B3000D8FC206D20F0010020653046BDE8F0871C
:101B40004046FBE710B50446AFF300802046BDE8F1
:101B50001040FEF7D6BB10B500F088F9BDE8104084
:101B600000F07EB9004870473C01002000487047F3
:101B700044010020704770477047704738B50446ED
:101B80000A4600206946AFF30080002808BF38BD30
:101B900002460099204600F08FF9012038BD01204F
:101BA00000F0DEB9F8B5AFF30080054600200C4622
:101BB0000C2000BF0646A819A0420DD9324669463E
:101BC0000020AFF30080070008BF00F0C9F90098BB
:101BD000A04218BF0546C419FFF7C8FF05600746B5
:101BE000F01D20F007004619284600F05FF9B442C6
:101BF00008BFF8BDA21B31463868BDE8F84000F0C8
:101C00005BB970B50646FFF7B1FF056806F10B003A
:101C100020F00704B4429CBF002070BD2B466A68C8
:101C2000BAB11068A04210D304F1080188423CBF49
:101C30005068586007D35168101941601168091B3A
:101C4000016058601460101D70BD13465268002A70
:101C5000E7D121462846FFF791FF0028DED170BD6D
:101C60002DE9F041044616460D464769007B800782
:101C70002ED0384603F030F950BB3EB3012E02D0CF
:101C8000022E25D104E0204600F030F905441DE085
:101C9000384603F0FBF8E168002841F01001E160EC
:101CA00005DA204600F058F80120BDE8F081C903AC
:101CB0000BD56268E16A914200D81146A2691144CD
:101CC0002269891A814200DD08460544002D01DAA7
:101CD0000220EAE7E16A6068E268814206D2910385
:101CE000E06203D522F4003141F01002A66900271A
:101CF000AE4213DCE16A814201D90B4600E00346A3
:101D000003EB060C2369ACEB030CAC4506DD81420A
:101D100001D98C4600E084469C4505D1A760276028
:101D200042F02000A5620DE0AD1BE669AE1B8142CA
:101D3000A66000D90846C01A281A206058196060A9
:101D400022F0200003490840E060002084F8487039
:101D5000ABE70000BFCFD7FFC16821F4001141F00D
:101D60008001C16000218160016070472DE9F74F5B
:101D700015460C464FF0FF3B3848D768D2F814A000
:101D8000074209D05046A96903F00CF9002819DB75
:101D90003248C0430740EF604FF000496FF0004801
:101DA0004C4501D3464600E0264600993B46504646
:101DB000324603F021F9A96920F00042B21A114419
:101DC000A96128B12846FFF7C7FF5846BDE8FE8F36
:101DD000A41BE5D10020F9E770B504460569C06A87
:101DE0006168884200D80846E16821F42011E1606A
:101DF000C90312D5A84208D02246411B2846FFF746
:101E0000B5FF10B14FF0FF3070BD0020E562C4E9AE
:101E10000150E06820F48030E060002070BD10B513
:101E20000446C06820F02000E060A16AA0698842F2
:101E30000DD02046FFF7D0FFE06820F4405040F07E
:101E40001000E060A06AA0612069E062606044F276
:101E50004001E0688843E06010BD0000100002000F
:101E6000002801D000F01CB87047000010B50146F2
:101E700002A000F05CF8012010BD00005349475259
:101E8000545245443A2052656469726563743A203D
:101E900063616E2774206F70656E3A200000000049
:101EA00001491820ABBEFEE72600020000210160B8
:101EB000416070470C207047034640688C460028FC
:101EC00018BF88423CBF03464068F8D318681844DE
:101ED000884207D00CF1030020F00700001D411AD2
:101EE000521A0146081D0A60FFF7A0BB10B5014653
:101EF000C268900703D0900607D5886A0AE000F010
:101F00003FF801210160881E10BD8B6948681844A4
:101F10000B69C01A91F848301BB191F84910401A6A
:101F200010BD1103FCD50028FADD401E10BD70B5B0
:101F300005460C460A2000E06D1C00F018F835B18B
:101F400028780028F8D102E0641C00F010F814B1E1
:101F500020780028F8D1BDE870400A2000F007B8CA
:101F600010B500F011F8BDE81040FFF779BF08B5D3
:101F700069468DF800000320ABBE08BD7047000025
:101F8000004870473C01002010B5012805D0002111
:101F900003A0FFF7CCFF012010BD09A1F8E7000066
:101FA00053494752544D454D3A204F7574206F6642
:101FB0002068656170206D656D6F727900000000AA
:101FC0003A2048656170206D656D6F727920636F8E
:101FD0007272757074656400FFE7FEE77047000079
:101FE00072B6FFE7FEE7000082B0019040F2C060E9
:101FF000C2F20000007818B9FFE7002000900EE060
:102000000199C1F3C62240F24060C2F20000805C38
:10201000C1F30221C84000F001000090FFE70098E2
:1020200002B0704780B586B040F2C060C2F20000D6
:1020300080690390FFE700F0F7FA04900498039991
:1020400088422CD2FFE7EFF31080059005980290AC
:1020500072B640F2C060C2F200008069019001983F
:10206000039988420ED1FFE7049840F2C061C2F2A2
:1020700000018861086901300861BFF35F8F0120AA
:10208000009002E000200090FFE7029810B9FFE7FF
:1020900062B6FFE7009808B9FFE701E00CE0FFE750
:1020A000049A40F2C060C2F20000183003A902F0A6
:1020B000DFFF0028BFD0FFE7049806B080BD000016
:1020C00080B588B00590049103920598FFF78CFFC6
:1020D00018B9FFE7012006901CE0FFF7A3FF02906C
:1020E000BDF814000590EFF305800790079A059856
:1020F00040F40021002A18BF08460590059840F0DA
:1021000040700299049A039B00F0CAF8019001986C
:102110000690FFE7069808B080BD000080B58CB03F
:10212000099008910792089820B1FFE70798812845
:1021300003D3FFE700200A90AFE00998FFF754FFB0
:1021400018B9FFE701200A90A7E0FFF76BFF0590A1
:10215000BDF824000990EFF305800B900B9A0998C5
:1021600040F40021002A18BF0846099008980690FC
:10217000079850B9FFE70998059900231A4600F01F
:102180008FF8019001980A9087E0079808281BD8DB
:10219000FFE70020029003900699079A02A8FEF735
:1021A0005BF9079800F00701099840EA014009909F
:1021B000099840F040700599029A039B00F070F86E
:1021C000019001980A9068E000F04CFA01464FF443
:1021D000E02000EA014004900699086849680391EC
:1021E00002900698083006900798083807900499DE
:1021F000099808430990099840F080700599029A5F
:10220000039B00F04DF80190019818B9FFE70020FA
:102210000A9042E004984FF6017108430990FFE7E5
:10222000079809281CD3FFE70699086849680391B5
:102230000290069808300690079808380790099889
:102240000599029A039B00F02BF801900998013040
:102250000990019818B9FFE700200A901DE0DFE718
:102260000020029003900699079A02A8FEF7F4F85E
:10227000099820F47F4009900799099840EA0120C5
:102280000990099840F000700599029A039B00F0AC
:1022900007F8019001980A90FFE70A980CB080BDFA
:1022A00080B58CB00A900991089207930720059099
:1022B000FFE70598002863D0FFE700F0DDF9049000
:1022C000049800F03F0140F24020C2F2000000EB11
:1022D0000110069004994FF4700000EA81300190DB
:1022E0000A9801990843099A4FF0805101EAD201F6
:1022F0000843089A4FF0005101EA92010843079AF7
:102300004FF0804101EA5201084340F00060039021
:1023100006980C30039901F09BFF03909DF80F0085
:102320004007002827D5FFE7039880F0004003907E
:10233000039800F000400290099820F000400299B4
:10234000084306990860089820F000400299084365
:1023500006994860079820F00040029908430699C2
:10236000886006980C30039902F0DCFC01F066FFEF
:1023700001200B9009E0FFE705980138059098E7E8
:1023800001F052FF00200B90FFE70B980CB080BDCE
:1023900087B00590049103920498FE2804D8FFE7C3
:1023A0000398FF2803D3FFE70020069036E00020C3
:1023B00002900190FFE7019803282CD8FFE70598C9
:1023C0000199C840C007F0B1FFE704980090FFE70B
:1023D00000980399884215D8FFE7009901F0070299
:1023E000012000FA02F3029800EBD10240F24061B2
:1023F000C2F20001885C18438854FFE7009801305E
:102400000090E5E7FFE7029820300290FFE701988F
:1024100001300190CFE701200690FFE7069807B052
:102420007047000080B58AB00990089140F2C06101
:10243000C2F2000101910020087040F24060C2F237
:1024400000008021FEF74DF845F67440C0F600000C
:10245000182102F08FFE01460198ADF81A10006AAB
:1024600042F26B71CEF2A51188420FD0FFE740F225
:10247000C061C2F2000142F26B70CEF2A510086298
:10248000BDF81A0048800120C8611CE040F2C0601D
:10249000C2F200004088BDF81A1088420AD0FFE757
:1024A000BDF81A0040F2C061C2F20001488001206C
:1024B000C86107E040F2C061C2F20001C8690130A2
:1024C000C861FFE7FFE740F2C060C2F20000C069E8
:1024D000012812D1FFE740F2C061C2F200010020E2
:1024E000487048608860C86040F24020C2F2000036
:1024F0004FF48061FDF7F5FF20E000200290FFE738
:1025000002983F2819D8FFE7029940F24020C2F212
:10251000000000EB011007900798C07B40070028DF
:1025200006D5FFE70799C86820F04060C860FFE75C
:10253000FFE7029801300290E2E7FFE740F2C06057
:10254000C2F20000C069012817D1FFE700F078F857
:102550000490049820B1FFE700F06CF8059002E0C9
:1025600000200590FFE7059840F2C061C2F200012B
:10257000486100208861086103E000F061F8049080
:10258000FFE7049838B3FFE709980021FE22009284
:10259000FFF7FEFE0F20EF221146FFF7F9FE009A2B
:1025A00004201146FFF7F4FEFFF73CFD039003996A
:1025B00040F2C060C2F200004369C2694FF6007089
:1025C000C0F20030FFF76CFE089818B1FFE700F08A
:1025D00005F8FFE7FFE704980AB080BD80B584B036
:1025E00040F2C060C2F20000007818B1FFE701209D
:1025F000039015E040F2C061C2F200010120019099
:102600000870FFF70FFD029002994FF60170C0F2BB
:10261000003000231A46FFF743FE01980390FFE7BE
:10262000039804B080BD000041F20400CEF2000027
:102630000068704740F20C00C2F20000006870476A
:102640004EF6FC51CEF20001086840F08070086040
:1026500041F20001CEF20001086840F0010008607C
:102660000120704780B540F2C060C2F20000013026
:1026700002F054FD80BD000080B540F2C060C2F29F
:102680000000043002F024FD80BD000080B584B05D
:10269000039000F025FA0290039801900198013010
:1026A00048B1FFE740F21000C2F200000178019843
:1026B00008440190FFE7FFE700F012FA0299401A80
:1026C0000199884201D2FFE7F6E704B080BD00001F
:1026D0008EB00D900C9100200A90099008900B90FC
:1026E000FFE70B980F2800F2CC81FFE70B99012040
:1026F00088400A900C9800680A9908400990099847
:102700000A99884240F0B881FFE70C98406800F0D1
:102710000300012807D0FFE70C98406800F0030091
:1027200002282FD1FFE70D98806808900B98410090
:10273000032000FA01F10898884308900C98C068BB
:102740000B99490000FA01F108980843089008988D
:102750000D9988600D98406808900B99012000FA47
:1027600001F10898884308900C984068C0F3001065
:102770000B9900FA01F108980843089008980D9900
:102780004860FFE70C98406800F00300032818D069
:10279000FFE70D98C06808900B984100032000FAED
:1027A00001F10898884308900C9880680B994900BB
:1027B00000FA01F108980843089008980D99C8603C
:1027C000FFE70C98406800F00300022826D1FFE7DD
:1027D0000D980B996FF0030202EA51010844006A58
:1027E00008900B9800F0070081000F2000FA01F11B
:1027F0000898884308900C9800690B9901F007012C
:10280000890000FA01F108980843089008980D998A
:102810000B9B02EA530211440862FFE70D9800681F
:1028200008900B984100032000FA01F108988843B2
:1028300008900C98406800F003000B99490000FADA
:1028400001F108980843089008980D9908600C98C1
:1028500080798007002800F00E81FFE7FFE7002065
:10286000079043F64400C4F20200016841F480413D
:102870000160006800F4804007900798FFE70B981C
:1028800020F0030043F60801C4F20101405808900B
:102890000B9800F0030081000F2000FA01F1089866
:1028A000884308900D980021C4F20201884203D1A8
:1028B000FFE7002006905EE00D9840F20041C4F270
:1028C0000201884203D1FFE70120059050E00D98F6
:1028D00040F60001C4F20201884203D1FFE7022062
:1028E000049042E00D9840F60041C4F20201884293
:1028F00003D1FFE70320039034E00D9841F200017B
:10290000C4F20201884203D1FFE70420029026E0CE
:102910000D9841F20041C4F20201884203D1FFE761
:102920000520019018E00D9841F60001C4F2020163
:10293000884203D1FFE7062000900AE00D9941F696
:102940000042C4F202020820914208BF0720009012
:10295000FFE700980190FFE701980290FFE70298D7
:102960000390FFE703980490FFE704980590FFE7C2
:1029700005980690FFE70698C0B20B9901F0030195
:10298000890000FA01F108980843089008980B990B
:1029900021F0030143F60802C4F20102885043F615
:1029A0000840C4F20100006808900999089888431B
:1029B00008900C988079C006002805D5FFE7099992
:1029C000089808430890FFE7089843F60841C4F2C6
:1029D0000101086043F60C40C4F201000068089051
:1029E00009990898884308900C98807980060028F7
:1029F00005D5FFE70999089808430890FFE708986C
:102A000043F60C41C4F20101086043F60440C4F2ED
:102A100001000068089009990898884308900C986C
:102A200080798007002805D5FFE7099908980843B1
:102A30000890FFE7089843F60441C4F201010860DA
:102A400043F60040C4F20100006808900999089814
:102A5000884308900C988079C00728B1FFE709994E
:102A6000089808430890FFE7089843F60041C4F22D
:102A700001010860FFE7FFE7FFE70B9801300B90CB
:102A80002FE60EB07047000083B00290ADF806103C
:102A9000029840690090009ABDF8060002EA000121
:102AA000904340EA01400299886103B070470000FA
:102AB00082B00190ADF802108DF801209DF8010060
:102AC00028B1FFE7BDF802000199886105E0BDF873
:102AD0000200000401998861FFE702B0704700001E
:102AE00040F2F060C2F200000068704740F210004F
:102AF000C2F20000027840F2F061C2F20001086800
:102B0000104408607047000080B543F60041C4F2ED
:102B10000201086840F400700860086840F48060B2
:102B20000860086840F480700860032000F08AF8AC
:102B30000F2000F005F800F03BF8002080BD0000F9
:102B400080B582B0009040F20C00C2F20000006834
:102B500040F21001C2F200010A784FF47A71B1FB21
:102B6000F2F1B0FBF1F000F07BFD20B1FFE70120B6
:102B70008DF8070018E000980F280DD8FFE700999E
:102B80004FF0FF30002200F043F8009840F21401AB
:102B9000C2F20001086003E001208DF8070003E0A5
:102BA00000208DF80700FFE79DF8070002B080BD08
:102BB00082B0FFE70020019043F64400C4F2020017
:102BC000016841F480410160006800F48040019098
:102BD0000198FFE7FFE70020009043F64000C4F2B1
:102BE0000200016841F080510160006800F08050EF
:102BF00000900098FFE702B07047000080B582B0F7
:102C00008DF807009DF9070002F0BAF802B080BD08
:102C100080B586B08DF817000491039200200290D1
:102C200002F0C6F802909DF91700019002980499ED
:102C3000039A01F069FC0146019802F0C1F806B060
:102C400080BD000080B582B00190019802F0DAF8F2
:102C500002B080BD80B584B002900191029820B985
:102C6000FFE701208DF80F0021E1019843F60041B4
:102C7000C4F20201096801F00701884212D9FFE796
:102C8000019943F60040C4F202000170006800F0B0
:102C900007000199884204D0FFE701208DF80F005A
:102CA00005E1FFE702980078800700282AD5FFE7B2
:102CB000029800784007002809D5FFE743F608018D
:102CC000C4F20201086840F4E0500860FFE702988F
:102CD00000780007002809D5FFE743F60801C4F291
:102CE0000201086840F460400860FFE743F608010D
:102CF000C4F20201086820F0F000029A92681043C2
:102D00000860FFE702980078C00700286ED0FFE750
:102D100002984068012811D1FFE743F60000C4F291
:102D20000200006800F400310020B0EB514F04D1E4
:102D3000FFE701208DF80F00B9E02CE00298406811
:102D4000022805D0FFE702984068032811D1FFE769
:102D500043F60000C4F20200006800F00071002099
:102D6000B0EB516F04D1FFE701208DF80F009EE01A
:102D700010E043F60000C4F20200006800F0020117
:102D80000020B0EB510F04D1FFE701208DF80F00B8
:102D90008DE0FFE7FFE743F60801C4F2020108688F
:102DA00020F00300029A526810430860FFF798FE73
:102DB0000090FFE743F60800C4F20200006800F04C
:102DC0000C0002994968B0EB810F0ED0FFE7FFF7C6
:102DD00087FE0099401A41F28931884204D3FFE707
:102DE00003208DF80F0062E0E4E7FFE7019843F667
:102DF0000041C4F20201096801F00701884212D2C1
:102E0000FFE7019943F60040C4F202000170006838
:102E100000F007000199884204D0FFE701208DF8F7
:102E20000F0044E0FFE702980078400700280CD527
:102E3000FFE743F60801C4F20201086820F4E050FD
:102E4000029AD26810430860FFE7029800780007F2
:102E500000280DD5FFE743F60801C4F20201086817
:102E600020F46040029A126940EAC2000860FFE75D
:102E700000F022F843F60801C4F202010968C9B261
:102E80000A0945F66441C0F60001895CC84040F279
:102E90000C01C2F20001086040F21400C2F200000E
:102EA0000068FFF74DFE00208DF80F00FFE79DF84A
:102EB0000F0004B080BD000080B586B000200590F2
:102EC00004900390029043F60800C4F202000068E8
:102ED00000F00C000146019140B1FFE70198042881
:102EE0000AD0FFE7019808280CD04FE042F20040DA
:102EF000C0F2F40002904FE047F64000C0F27D10AF
:102F0000029049E043F60400C4F20200016801F0B7
:102F10003F01059100684002002813D5FFE743F602
:102F20000400C4F202000068C0F3881047F64001B4
:102F3000C0F27D11A0FB0101059A0023FDF708FAFC
:102F4000049012E043F60400C4F202000068C0F3EB
:102F5000881042F20041C0F2F401A0FB0101059A81
:102F60000023FDF7F5F90490FFE743F60400C4F2EF
:102F70000200006800F44031022000EBD1300390E1
:102F800004980399B0FBF1F0029005E042F2004092
:102F9000C0F2F4000290FFE7029806B080BD000086
:102FA00080B586B00490049820B9FFE701208DF821
:102FB000170050E304980078C007002800F0A580AF
:102FC000FFE743F60800C4F20200006800F00C00BE
:102FD000042813D0FFE743F60800C4F2020000689B
:102FE00000F00C0008281ED1FFE743F60400C4F2ED
:102FF000020000684002002815D5FFE743F60000F4
:10300000C4F20200006800F400310020B0EB514F20
:1030100008D0FFE70498406820B9FFE701208DF849
:10302000170018E370E0FFE704984068B0F5803FB0
:1030300009D1FFE743F60001C4F20201086840F439
:103040008030086020E004984068B0F5A02F0DD1D2
:10305000FFE743F60001C4F20201086840F4802053
:103060000860086840F4803008600CE043F6000116
:10307000C4F20201086820F480300860086820F477
:1030800080200860FFE7FFE7FFE704984068E8B1A9
:10309000FFE7FFF725FD0390FFE743F60000C4F2CA
:1030A0000200006800F400310020B0EB514F0CD159
:1030B000FFE7FFF715FD0399401A652804D3FFE7E2
:1030C00003208DF81700C6E2E7E71CE0FFF708FDD4
:1030D0000390FFE743F60000C4F20200006800F42A
:1030E00000310020B0EB514F0CD0FFE7FFF7F8FCA8
:1030F0000399401A652804D3FFE703208DF81700D1
:10310000A9E2E7E7FFE7FFE7FFE704980078800719
:10311000002840F19680FFE743F60800C4F2020061
:10312000006810F00C0F13D0FFE743F60800C4F25C
:103130000200006800F00C0008282CD1FFE743F6DD
:103140000400C4F2020000684002002823D4FFE714
:1031500043F60000C4F20200006800F00201002003
:10316000B0EB510F09D0FFE70498C068012804D0E4
:10317000FFE701208DF817006DE243F60001C4F26D
:103180000201086820F0F800049A126940EAC200BF
:103190000860FFE754E00498C06870B3FFE70021BF
:1031A000C4F2472101200860FFF79AFC0390FFE773
:1031B00043F60000C4F20200006800F002010020A3
:1031C000B0EB510F0CD1FFE7FFF78AFC0399401ACF
:1031D000032804D3FFE703208DF817003BE2E7E75D
:1031E00043F60001C4F20201086820F0F800049AD6
:1031F000126940EAC200086021E00021C4F24721C0
:1032000000200860FFF76CFC0390FFE743F6000026
:10321000C4F20200006800F002010020B0EB510F80
:103220000CD0FFE7FFF75CFC0399401A032804D396
:10323000FFE703208DF817000DE2E7E7FFE7FFE760
:10324000FFE704980078000700284BD5FFE70498B3
:10325000406918B3FFE740F68061C4F247210120BE
:103260000860FFF73DFC0390FFE743F67400C4F2EB
:103270000200006800F002010020B0EB510F0CD1F9
:10328000FFE7FFF72DFC0399401A032804D3FFE75B
:1032900003208DF81700DEE1E7E722E040F68061C9
:1032A000C4F2472100200860FFF71AFC0390FFE7F3
:1032B00043F67400C4F20200006800F0020100202E
:1032C000B0EB510F0CD0FFE7FFF70AFC0399401A4F
:1032D000032804D3FFE703208DF81700BBE1E7E7DD
:1032E000FFE7FFE7049800784007002840F1CE8010
:1032F000FFE700208DF8070043F64000C4F202000B
:103300000068C000002815D4FFE7FFE70020009008
:1033100043F64000C4F20200016841F080510160B0
:10332000006800F0805000900098FFE701208DF8C1
:103330000700FFE747F20000C4F200000068C00584
:10334000002822D4FFE747F20001C4F20001086818
:1033500040F480700860FFF7C3FB0390FFE747F27B
:103360000000C4F200000068C00500280CD4FFE78C
:10337000FFF7B6FB0399401A032804D3FFE70320A5
:103380008DF8170067E1EAE7FFE7FFE70498806838
:10339000012809D1FFE743F67001C4F20201086871
:1033A00040F0010008601FE00498806805280DD1F6
:1033B000FFE743F67001C4F20201086840F0040020
:1033C0000860086840F0010008600CE043F67001F6
:1033D000C4F20201086820F001000860086820F0CB
:1033E00004000860FFE7FFE7FFE704988068F8B192
:1033F000FFE7FFF775FB0390FFE743F67000C4F2A9
:103400000200006800F002010020B0EB510F0ED165
:10341000FFE7FFF765FB0399401A41F289318842C3
:1034200004D3FFE703208DF8170014E1E5E71EE061
:10343000FFF756FB0390FFE743F67000C4F202006B
:10344000006800F002010020B0EB510F0ED0FFE742
:10345000FFF746FB0399401A41F28931884204D3B1
:10346000FFE703208DF81700F5E0E5E7FFE79DF89B
:103470000700012809D1FFE743F64001C4F2020129
:10348000086820F080500860FFE7FFE70498806933
:10349000002800F0DC80FFE743F60800C4F20200D9
:1034A000006800F00C00082800F08580FFE7049811
:1034B000806902285CD1FFE76021C4F24721002027
:1034C0000860FFF70DFB0390FFE743F60000C4F22E
:1034D0000200006800F000710020B0EB516F0CD0CA
:1034E000FFE7FFF7FDFA0399401A032804D3FFE72B
:1034F00003208DF81700AEE0E7E70499C869D1F81A
:1035000020C04B6A8A6A40EA0C0040EA8310D2036A
:103510004FF6FF739A43A2F580321043C96A40EA1E
:10352000016043F60401C4F2020108606021C4F2A4
:10353000472101200860FFF7D3FA0390FFE743F625
:103540000000C4F20200006800F000710020B0EB3F
:10355000516F0CD1FFE7FFF7C3FA0399401A032814
:1035600004D3FFE703208DF8170074E0E7E721E0BC
:103570006021C4F2472100200860FFF7B1FA0390F0
:10358000FFE743F60000C4F20200006800F000719B
:103590000020B0EB516F0CD0FFE7FFF7A1FA0399C1
:1035A000401A032804D3FFE703208DF8170052E0E8
:1035B000E7E7FFE74AE004988069012804D1FFE7C4
:1035C00001208DF8170046E043F60400C4F2020023
:1035D0000068029004988069012831D0FFE70298C2
:1035E00000F480000499C969884229D1FFE7029854
:1035F00000F03F000499096A884221D1FFE7029850
:1036000047F6C07108400499496AB0EB811F17D191
:10361000FFE7029800F440300499896AC9034FF625
:10362000FF729143A1F58031884209D1FFE70298EA
:1036300000F070600499C96AB0EB016F04D0FFE735
:1036400001208DF8170006E0FFE7FFE7FFE7002005
:103650008DF81700FFE79DF8170006B080BD000049
:1036600080B582B00190019800F088FF02B080BD63
:1036700081B0009001B0704781B0009001B07047F8
:1036800085B003900291FFE7039890F83C00012871
:1036900004D1FFE702208DF813007EE0039901209A
:1036A00081F83C00FFE7FFE70399022081F83D0025
:1036B0000398006840680190039800688068009053
:1036C000019820F070000190029801680198084369
:1036D00001900198039909684860039800680021E7
:1036E000C4F2010188423CD0FFE703980068B0F1C2
:1036F000804F36D0FFE70398006840F20041C4F2E3
:10370000000188422DD0FFE70398006840F60001D1
:10371000C4F20001884224D0FFE70398006840F615
:103720000041C4F2000188421BD0FFE70398006803
:1037300040F20041C4F20101884212D0FFE7039831
:10374000006844F20001C4F20101884209D0FFE799
:103750000398006841F60001C4F2000188420ED1CE
:10376000FFE7009820F080000090029841680098E0
:10377000084300900098039909688860FFE703995F
:10378000012081F83D00FFE70399002081F83C000B
:10379000FFE700208DF81300FFE79DF8130005B048
:1037A0007047000080B582B00090009820B9FFE714
:1037B00001208DF807003FE0009890F83D0040B9E7
:1037C000FFE70099002081F83C00009800F038F8ED
:1037D000FFE70099022081F83D00009951F8040BA1
:1037E00000F074FF0099012081F84600FFE700997E
:1037F000012081F83E00009981F83F00009981F88E
:103800004000009981F84100FFE7FFE7009901209F
:1038100081F84200009981F84300009981F8440042
:10382000009981F84500FFE70099012081F83D00EB
:1038300000208DF80700FFE79DF8070002B080BD6B
:1038400080B586B0059005980068B0F1804F1BD117
:10385000FFE7FFE70020049043F64000C4F20200B7
:10386000016841F001010160006800F0010004906E
:103870000498FFE71C20029000221146FFF7C8F9C8
:103880000298FFF7BBF924E00598006840F2004178
:10389000C4F2000188421BD1FFE7FFE7002003903C
:1038A00043F64000C4F20200016841F002010160E9
:1038B000006800F0020003900398FFE71D200190CC
:1038C00000221146FFF7A4F90198FFF797F9FFE7E7
:1038D000FFE706B080BD000083B00190019890F82A
:1038E0003D00012804D0FFE701208DF80B006AE0BD
:1038F0000199022081F83D0001980168C86840F0F4
:103900000100C860019800680021C4F201018842EA
:103910003CD0FFE701980068B0F1804F36D0FFE758
:103920000198006840F20041C4F2000188422DD0A5
:10393000FFE70198006840F60001C4F200018842E8
:1039400024D0FFE70198006840F60041C4F200016E
:1039500088421BD0FFE70198006840F20041C4F2A2
:103960000101884212D0FFE70198006844F200018B
:10397000C4F20101884209D0FFE70198006841F6CE
:103980000001C4F20001884212D1FFE701980068EB
:10399000806800F0070000900098062807D0FFE735
:1039A00001980168086840F001000860FFE706E040
:1039B00001980168086840F001000860FFE70020F6
:1039C0008DF80B00FFE79DF80B0003B07047000077
:1039D00080B586B00490039100208DF80B00FFE7BE
:1039E000049890F83C00012804D1FFE702208DF8EC
:1039F0001700ABE00499012081F83C00FFE7FFE7E6
:103A00000499022081F83D000498006880680190C4
:103A1000019820F077000190019820F47F400190F8
:103A2000019804990968886003980068009000284C
:103A300072D0FFE7009810286ED0FFE7009820288A
:103A40006AD0FFE70098302866D0FFE7009840284A
:103A500055D0FFE70098502837D0FFE7009860283E
:103A600040D0FFE7009870280BD0FFE70098B0F532
:103A7000805F05D0FFE70098B0F5005F16D052E0F8
:103A800055E004980068039B5A689968DB6800F069
:103A90000BFF0498006880680190019840F077005F
:103AA0000190019804990968886040E004980068D2
:103AB000039B5A689968DB6800F0F6FE0498016879
:103AC000886840F48040886031E004980068039A78
:103AD0005168D26801F0D4F804980068502100F0D1
:103AE000FDFE24E004980068039A5168D26801F052
:103AF000EFF804980068602100F0F0FE17E00498E9
:103B00000068039A5168D26801F0BAF80498006816
:103B1000402100F0E3FE0AE0049800680399096878
:103B200000F0DCFE03E001208DF80B00FFE70499B4
:103B3000012081F83D00FFE70499002081F83C0056
:103B4000FFE79DF80B008DF81700FFE79DF81700C1
:103B500006B080BD81B0009001B0704780B584B0E0
:103B6000039003980068C068029003980068006999
:103B700001909DF804008007002824D5FFE79DF8F8
:103B80000800800700281DD5FFE7039801686FF043
:103B90000200086103990120087703980068806992
:103BA000800720B1FFE70398FFF7D4FF06E00398F2
:103BB00000F016F9039800F00BFAFFE703990020D4
:103BC0000877FFE7FFE79DF804004007002825D5A8
:103BD000FFE79DF80800400700281ED5FFE703987F
:103BE00001686FF0040008610399022008770398C8
:103BF0000068806910F4407F04D0FFE70398FFF766
:103C0000A9FF06E0039800F0EBF8039800F0E0F954
:103C1000FFE7039900200877FFE7FFE79DF804001E
:103C20000007002824D5FFE79DF8080000070028BA
:103C30001DD5FFE7039801686FF00800086103993C
:103C40000420087703980068C069800720B1FFE767
:103C50000398FFF77FFF06E0039800F0C1F8039890
:103C600000F0B6F9FFE7039900200877FFE7FFE7C8
:103C70009DF80400C006002825D5FFE79DF8080040
:103C8000C00600281ED5FFE7039801686FF01000FA
:103C9000086103990820087703980068C06910F448
:103CA000407F04D0FFE70398FFF754FF06E0039836
:103CB00000F096F8039800F08BF9FFE703990020D5
:103CC0000877FFE7FFE79DF80400C00778B1FFE73A
:103CD0009DF80800C00748B1FFE7039801686FF03E
:103CE00001000861039800F05DFAFFE7FFE79DF827
:103CF00004000006002810D5FFE79DF80800000624
:103D0000002809D5FFE7039801686FF0800008617B
:103D10000398FFF7ADFCFFE7FFE79DF804004006BE
:103D2000002810D5FFE79DF808004006002809D5B7
:103D3000FFE7039801686FF040000861039800F006
:103D40006DFAFFE7FFE79DF804008006002810D514
:103D5000FFE79DF808008006002809D5FFE70398D3
:103D600001686FF0200008610398FFF785FCFFE70A
:103D7000FFE704B080BD000080B588B00790002048
:103D8000069005900490039002900798006840F216
:103D90000041C4F20001884220D1FFE7FFE7002084
:103DA000019043F63000C4F20200016841F00101C5
:103DB0000160006800F0010001900198FFE7C02059
:103DC00002900220039000210491059106900020AA
:103DD000C4F2020002A9FEF77BFCFFE708B080BD39
:103DE00081B0009001B0704780B586B00490039117
:103DF000029200208DF80700FFE7049890F83C003D
:103E0000012804D1FFE702208DF8170089E004990A
:103E1000012081F83C00FFE7FFE7029800900C28A2
:103E200000F270800099DFE801F0076D6D6D206D84
:103E30006D6D3A6D6D6D530004980068039900F044
:103E400063FD04980168886940F00800886104985F
:103E50000168886920F00400886103980269049869
:103E6000016888691043886150E0049800680399EC
:103E700000F0C0FD04980168886940F40060886122
:103E800004980168886920F4806088610398026959
:103E900004980168886940EA0220886136E0049845
:103EA0000068039900F020FE04980168C86940F09A
:103EB0000800C86104980168C86920F00400C8615E
:103EC0000398026904980168C8691043C8611DE03D
:103ED00004980068039900F081FE04980168C8699D
:103EE00040F40060C86104980168C86920F48060EB
:103EF000C8610398026904980168C86940EA022011
:103F0000C86103E001208DF80700FFE7FFE704998F
:103F1000002081F83C00FFE79DF807008DF81700AE
:103F2000FFE79DF8170006B080BD000080B582B0A5
:103F30000090009820B9FFE701208DF807003FE0CE
:103F4000009890F83D0040B9FFE70099002081F803
:103F50003C00009800F038F8FFE70099022081F853
:103F60003D00009951F8040B00F0B0FB00990120CE
:103F700081F84600FFE70099012081F83E00009992
:103F800081F83F00009981F84000009981F84100D4
:103F9000FFE7FFE70099012081F84200009981F8CE
:103FA0004300009981F84400009981F84500FFE73B
:103FB0000099012081F83D0000208DF80700FFE7FF
:103FC0009DF8070002B080BD81B0009001B070473D
:103FD00081B0009001B0704780B58CB00A90099113
:103FE000099828B9FFE70A9890F83E0007901CE06E
:103FF0000998042805D1FFE70A9890F83F00069039
:1040000010E00998082805D1FFE70A9890F84000C9
:10401000059004E00A9890F841000590FFE70598A4
:104020000690FFE706980790FFE70798012804D05D
:10403000FFE701208DF82F00AFE0099828B9FFE7CE
:104040000A99022081F83E001EE00998042806D152
:10405000FFE70A99022081F83F00049012E00998D6
:10406000082806D1FFE70A99022081F84000039052
:1040700005E00A99022081F841000390FFE70398C8
:104080000490FFE70498FFE70A9800680999012265
:10409000019200F0EDFB01980A9909680022C4F230
:1040A0000102914202900CD0FFE70A9800684FF697
:1040B0000041CBF6FE710844B0FA80F0400902904E
:1040C000FFE70298C00738B1FFE70A980168486C1B
:1040D00040F400404864FFE70A9800680021C4F2F9
:1040E000010188423CD0FFE70A980068B0F1804F98
:1040F00036D0FFE70A98006840F20041C4F20001A0
:1041000088422DD0FFE70A98006840F60001C4F20B
:104110000001884224D0FFE70A98006840F6004179
:10412000C4F2000188421BD0FFE70A98006840F201
:104130000041C4F20101884212D0FFE70A980068EA
:1041400044F20001C4F20101884209D0FFE70A9855
:10415000006841F60001C4F20001884212D1FFE775
:104160000A980068806800F0070008900898062800
:1041700007D0FFE70A980168086840F0010008606E
:10418000FFE706E00A980168086840F0010008604F
:10419000FFE700208DF82F00FFE79DF82F000CB0FF
:1041A00080BD000080B582B0019045F6B541C0F6F3
:1041B00000014EF62070A822FDF782FF01980068EA
:1041C000B0F1804F1FD1FFE70020C4F202001021A0
:1041D000FEF75AFC40F29C10C2F200000168013167
:1041E000016000680A280DDBFFE745F6A340C0F632
:1041F0000000FCF725F940F29C11C2F200010020FA
:104200000860FFE7FFE745F6B541C0F600014FF44F
:104210006F40B322FDF754FF02B080BD81B0009023
:1042200001B07047FFE7FEE780B540F2C060C2F220
:1042300000000C3000F04CFF80BD000080B540F263
:10424000C060C2F20000083000F042FF80BD0000F4
:1042500089B007900691079800680590FFE79DF8E0
:1042600017004007002803D5FFE70020089032E040
:104270000698059901F00041084340F080600490E1
:10428000FFE7079B049803900599DDF80CC053E8FD
:10429000000F084503D143E800C2002AF7D100907F
:1042A000401AB0FA80F04009BFF35F8F01460191D8
:1042B00018B9FFE700980590FFE7019800F00100AA
:1042C0008DF80B009DF80B00C0070028C7D0FFE752
:1042D00004980890FFE7089809B0704780B58AB045
:1042E000002009900890079006900590FFE70020B5
:1042F000049043F63000C4F20200016841F08001EE
:104300000160006800F0800004900498FFE7FFE778
:104310000020039043F63000C4F20200016841F02F
:1043200001010160006800F0010003900398FFE7BD
:104330000020C4F20200029010210091002201929C
:10434000FEF7B6FB009A01990298059201220692A7
:104350000791089105A9FEF7BBF90AB080BD0000DE
:1043600080B588B0002101910791069105910491D3
:104370000391029140F2A010C2F200004FF080427F
:10438000026042F2CF024260816040F2E732C260D6
:1043900001618161FFF706FA18B1FFE7FDF720FE22
:1043A000FFE74FF48050049040F2A010C2F20000EA
:1043B00004A9FFF70DFB18B1FFE7FDF711FEFFE7BA
:1043C00000200290039040F2A010C2F2000002A967
:1043D000FFF756F918B1FFE7FDF702FEFFE740F2DD
:1043E000A010C2F20000FFF777FA18B1FFE7FDF75F
:1043F000F7FDFFE708B080BD80B590B000210291C5
:104400000F910E910D910C910B910A9109910891C8
:104410000791069105910491039140F2E810C2F2D0
:10442000000040F20042C4F20002026053224260E7
:10443000816040F2E732C260016180218161FFF753
:10444000B1F918B1FFE7FDF7CBFDFFE74FF480505E
:104450000C9040F2E810C2F200000CA9FFF7B8FA85
:1044600018B1FFE7FDF7BCFDFFE740F2E810C2F22C
:104470000000FFF75BFD18B1FFE7FDF7B1FDFFE7B7
:1044800000200A900B9040F2E810C2F200000AA946
:10449000FFF7F6F818B1FFE7FDF7A2FDFFE7602090
:1044A0000390002204920592079240F2E810C2F2B3
:1044B000000003A9FFF798FC18B1FFE7FDF790FD96
:1044C000FFE740F2E810C2F2000003A90422FFF760
:1044D0008BFC18B1FFE7FDF783FDFFE740F2E81022
:1044E000C2F2000001900021FFF776FD019804213F
:1044F000FFF772FD0198FFF73FFC10B080BD000090
:10450000FFE7FEE7FFE7FEE788B007900691059218
:10451000079800F0070004900498C0F107000528F0
:1045200003D3FFE70420019004E00498C0F10700E2
:104530000190FFE70198039004980430062803D8FF
:10454000FFE70020009003E0049803380090FFE7A5
:104550000098029006980399012202FA01F10139AC
:104560000840029B984005999A40013A114008433F
:1045700008B07047704700007047000080B582B0F7
:10458000009000980138B0F1807F03D3FFE701204D
:10459000019019E0009801384EF21401CEF20001AA
:1045A00008604FF0FF300F2100F00AFC4EF21801B6
:1045B000CEF20001002008604EF21002CEF200029E
:1045C000072111600190FFE7019802B080BD000053
:1045D00080B5FEF78BFA80BD80B594B008A8302175
:1045E000FBF77FFF00200790069005900490039052
:1045F000FFE70020029043F64000C4F20200016889
:1046000041F080510160006800F0805002900298F3
:10461000FFE7FFE70020019047F20000C4F200002E
:10462000016841F480410160006800F4804001901D
:104630000198FFE7012008904FF480300990022094
:104640000E904FF480010F91192110914FF4A87131
:10465000119112900420139008A8FEF7A1FC18B144
:10466000FFE7FDF7BDFCFFE70F2003900220049059
:10467000002005904FF4A05006904FF48050079012
:1046800003A80521FEF7E6FA18B1FFE7FDF7A8FC3D
:10469000FFE714B080BD00004EF68851CEF2000155
:1046A000086840F4700008607047000080B540F270
:1046B000A010C2F20000FFF751FA80BD80B540F2B1
:1046C000E810C2F20000FFF749FA80BD83B0029003
:1046D000019102980068009002980021C4F2010143
:1046E000884225D0FFE70298B0F1804F20D0FFE745
:1046F000029840F20041C4F20001884218D0FFE75E
:10470000029840F60001C4F20001884210D0FFE791
:10471000029840F60041C4F20001884208D0FFE749
:10472000029840F20041C4F2010188420AD1FFE739
:10473000009820F0700000900198416800980843AC
:104740000090FFE702980021C4F20101884255D091
:10475000FFE70298B0F1804F50D0FFE7029840F297
:104760000041C4F20001884248D0FFE7029840F6B9
:104770000001C4F20001884240D0FFE7029840F6F1
:104780000041C4F20001884238D0FFE7029840F2AD
:104790000041C4F20101884230D0FFE7029844F2A0
:1047A0000001C4F20101884228D0FFE7029844F2D8
:1047B0000041C4F20101884220D0FFE7029844F68C
:1047C0000001C4F20101884218D0FFE7029841F6C7
:1047D0000001C4F20001884210D0FFE7029841F6C0
:1047E0000041C4F20001884208D0FFE7029842F27B
:1047F0000001C4F2000188420AD1FFE7009820F4CA
:10480000407000900198C168009808430090FFE74D
:10481000009820F0800001994969084300900198B0
:1048200080680299C86201980068029988620298BB
:104830000021C4F20101884208D0FFE7029840F24B
:104840000041C4F20101884205D1FFE701980069E7
:1048500002990863FFE70299086840F004000860C5
:1048600002990120486100980299086003B07047DE
:1048700084B0039002910192029800F01F01012080
:1048800088400090009A0399086A90430862019852
:10489000029901F01F0100FA01F20399086A10431E
:1048A000086204B07047000085B004900391029242
:1048B0000193049880680090009820F47F40009055
:1048C00003980299019A41EA0221014300980843A2
:1048D000009000980499886005B0704783B00290FA
:1048E0000191029880680090009820F0700000907C
:1048F00001980099084340F0070000900098029941
:10490000886003B07047000085B00490039104985C
:10491000006A01900499086A20F001000862049876
:1049200040680090049880690290029820F070001E
:104930000290029820F00300029003980168029808
:1049400008430290019820F00200019003988168CA
:1049500001980843019004980021C4F201018842A3
:1049600008D0FFE7049840F20041C4F201018842F8
:104970000ED1FFE7019820F0080001900398C1686C
:10498000019808430190019820F004000190FFE78E
:1049900004980021C4F20101884208D0FFE704987E
:1049A00040F20041C4F20101884213D1FFE70098B0
:1049B00020F480700090009820F40070009003981C
:1049C0004169009808430090039881690098084362
:1049D0000090FFE700980499486002980499886164
:1049E000039840680499486301980499086205B0E7
:1049F0007047000085B0049003910498006A01900C
:104A00000499086A20F01000086204984068009039
:104A1000049880690290029820F4E0400290029885
:104A200020F44070029003980168029840EA012047
:104A30000290019820F0200001900398816801986D
:104A400040EA0110019004980021C4F2010188425B
:104A500008D0FFE7049840F20041C4F20101884207
:104A60000FD1FFE7019820F0800001900398C16802
:104A7000019840EA01100190019820F04000019057
:104A8000FFE704980021C4F20101884208D0FFE743
:104A9000049840F20041C4F20101884215D1FFE7B9
:104AA000009820F480600090009820F4006000904E
:104AB00003984169009840EA810000900398816959
:104AC000009840EA81000090FFE700980499486050
:104AD0000298049988610398406804998863019852
:104AE0000499086205B0704785B00490039104985A
:104AF000006A01900499086A20F4807008620498A2
:104B0000406800900498C0690290029820F07000FC
:104B10000290029820F00300029003980168029826
:104B200008430290019820F4007001900398816876
:104B3000019840EA0120019004980021C4F201018B
:104B4000884208D0FFE7049840F20041C4F2010116
:104B500088420FD1FFE7019820F40060019003988C
:104B6000C168019840EA01200190019820F480601A
:104B70000190FFE704980021C4F20101884208D0A7
:104B8000FFE7049840F20041C4F20101884215D1C8
:104B9000FFE7009820F480500090009820F4005027
:104BA000009003984169009840EA01100090039832
:104BB0008169009840EA01100090FFE7009804998D
:104BC000486002980499C861039840680499C863D2
:104BD00001980499086205B07047000085B0049000
:104BE00003910498006A01900499086A20F48050A7
:104BF00008620498406800900498C0690290029886
:104C000020F4E0400290029820F440700290039853
:104C10000168029840EA01200290019820F40050B7
:104C2000019003988168019840EA0130019004984E
:104C30000021C4F20101884208D0FFE7049840F245
:104C40000041C4F2010188420BD1FFE7009820F433
:104C50008040009003984169009840EA81100090DC
:104C6000FFE700980499486002980499C861039886
:104C700040680499086401980499086205B0704777
:104C800085B00490039102920498006A0090049900
:104C9000086A20F001000862049880690190019878
:104CA00020F0F00001900299019840EA0110019073
:104CB000009820F00A0000900399009808430090A3
:104CC00001980499886100980499086205B07047BA
:104CD00085B00490039102920498006A00900499B0
:104CE000086A20F010000862049880690190019819
:104CF00020F4704001900299019840EA013001903F
:104D0000009820F0A00000900399009840EA01105C
:104D1000009001980499886100980499086205B090
:104D20007047000089B008900791079820F08060D4
:104D30000690089801900699059105990291BFF394
:104D40005F8F00680390FFE70399019BDDF808C0BF
:104D500053E8000F084503D143E800C2002AF7D109
:104D60000090411AB1FA81F1490901290390EBD170
:104D7000FFE70098049009B070470000FFE7FEE7E6
:104D800081B08DF803009DF9030000280ED4FFE7E1
:104D90009DF9031001F01F02012090404A094EF2D4
:104DA0000011CEF2000141F82200FFE701B0704788
:104DB0004EF60C50CEF200000068C0F3022070479F
:104DC00082B08DF8070000919DF9070000280AD4F1
:104DD000FFE7009800019DF907104EF20042CEF265
:104DE000000288540BE0009800019DF8071001F0C4
:104DF0000F014EF61452CEF200028854FFE702B0C3
:104E00007047000083B00290029800F00700009005
:104E10004EF60C51CEF200010868019001984FF651
:104E2000FF02104001900198009A40EA02200022FF
:104E3000C0F2FA52104301900198086003B0704725
:104E400083B001900198009048F2010188420CD093
:104E5000FFE7009848F20201884209D0FFE7009876
:104E600048F20301884206D008E00020029009E0E1
:104E70000020029006E00020029003E04FF0FF3097
:104E80000290FFE7029803B07047000083B00190E2
:104E90000198009048F2010188420CD0FFE7009889
:104EA00048F20201884209D0FFE7009848F2030166
:104EB000884206D008E00020029009E0002002901D
:104EC00006E00020029003E04FF0FF300290FFE781
:104ED000029803B07047000083B0019001980090E1
:104EE00048F2010188420CD0FFE7009848F2020125
:104EF000884209D0FFE7009848F20301884206D0B3
:104F000008E00120029008E00120029005E0012065
:104F1000029002E000200290FFE7029803B0704781
:104F200080B584B002900191029820B9FFE74FF05C
:104F3000FF30039033E0029800783A282BD1FFE746
:104F4000029845F6C841C0F60001FBF7F1FA20B916
:104F5000FFE748F20100039021E0029845F6D741AF
:104F6000C0F60001FBF7E4FA20B9FFE748F20200BF
:104F7000039014E0029845F6CF41C0F60001FBF71C
:104F8000D7FA20B9FFE748F20300039007E04FF09B
:104F9000FF30039003E04FF0FF300390FFE70398EA
:104FA00004B080BD84B0029001910298009048F254
:104FB000010188420CD0FFE7009848F202018842C4
:104FC0000AD0FFE7009848F20301884208D00BE0BE
:104FD0004FF0FF3003900BE04FF0FF30039007E0FD
:104FE0004FF0FF30039003E04FF0FF300390FFE7F6
:104FF000039804B07047000080B588B00690059112
:10500000049203930698019048F2010188420CD063
:10501000FFE7019848F2020188420AD0FFE70198B1
:1050200048F20301884218D01AE04FF0FF30079091
:105030001AE0FFE7049868B1FFE70598411C059165
:1050400000780290029800F01DF9FFE704980138FB
:105050000490EFE70020079006E00020079003E0AF
:105060004FF0FF300790FFE7079808B080BD0000C1
:1050700088B0079006910592079B069800900599C5
:1050800004910168DDF810C0BFF35F8F53E8000F93
:10509000084503D143E800C2002AF7D10190401A25
:1050A000B0FA80F04009BFF35F8F0146029120B94A
:1050B000FFE7019800990860FFE7029800F00100FF
:1050C0008DF80F009DF80F0000F0010008B0704748
:1050D00087B00690069801900121059105990291EB
:1050E00000680390FFE70399019B029801EB000C15
:1050F00053E8000F084503D143E800C2002AF7D166
:105100000090411AB1FA81F1490901290390EAD1CD
:10511000FFE700980490049807B0704786B00590A8
:105120000598019001218DF813109DF8131002913C
:1051300000780390FFE70399019B029801EB000CB4
:10514000C9B2D3E84F0F084503D1C3E842CF002AC4
:10515000F7D10090C9B2411AB1FA81F14909012988
:105160000390E8D1FFE700988DF812009DF8120037
:1051700006B0704784B0039002914FF6FF70ADF80F
:105180000600FFE7029890B3FFE70398411C0391E4
:105190000178BDF8060080EA0120ADF8060008207D
:1051A0000090FFE70098F0B1FFE7BDF806000004AB
:1051B00000280DD5FFE7BDF806004000ADF8060059
:1051C000BDF8060041F221014840ADF8060005E0B7
:1051D000BDF806004000ADF80600FFE7FFE70098C5
:1051E00001380090DEE7029801380290CAE7BDF866
:1051F000060004B07047000080B584B00020039022
:105200000F200121FDF70EF9FDF7E8F9FDF77CFC11
:10521000FFF7E2F9FFF762F8FFF7A2F8FFF7ECF803
:10522000FFE700200290FFE70298B0F57A7F0FDCDD
:10523000FFE7029840F2E811C2F2000109684863F2
:105240000A20FDF723FAFFE702980A300290EBE705
:1052500000200190FFE70198B0F57A7F11DCFFE7AD
:105260000198C0F57A7040F2E811C2F200010968B5
:1052700048630A20FDF70AFAFFE701980A30019017
:10528000E9E7CEE780B584B0029040F2EC60C2F26C
:1052900000000068082804D3FFE74FF0FF300390B8
:1052A0002BE0029940F2EC60C2F2000003685A1C45
:1052B000026040F2E462C2F20002D15400680828A1
:1052C00004D0FFE702980A2814D1FFE740F2EC600F
:1052D000C2F200000190026840F2E461C2F20001F3
:1052E0004FF60060C0F20200FCF718FF01990020A1
:1052F0000860FFE702980390FFE7039804B080BDC1
:105300005FEA400C08BF91F0000F4FEA8C234FEA90
:10531000C12243EA51514FEA1C5018BF00F5F0403A
:105320004FEA300018BF41F000415FEA6C5C00F0CA
:105330002980BCF1FF3F08BF40F080407047130C4C
:1053400006BF12044FF0100C4FF0000C130E04BFF8
:1053500012020CF1080C130F04BF12010CF1040C23
:10536000930F04BF92000CF1020CD30F04BF520044
:105370000CF1010C11464FF00002A0F11F00A0EB50
:105380000C00704711F0004F08BF704731F000412A
:105390003FF4D5AF0B0C06BF09044FF0100C4FF0D3
:1053A000000C0B0E04BF09020CF1080C0B0F04BF1C
:1053B00009010CF1040C8B0F04BF89000CF1020CE5
:1053C000CB0F04BF49000CF1010CCCF1200322FAF1
:1053D00003F341EA030102FA0CF2A0EB0C0000F126
:1053E0000100704723F07F4720F07F4C80EA0300E4
:1053F00000F00040ACEB070303F57C5303F1FF031F
:105400002DE9804909B44FEA144324EA03484FEADE
:10541000154B25EA0B4E0FF2042606EB13273E78B8
:1054200003FB0667C7F5000707FB06F64FEAD646FB
:1054300006F102064FEA543707FB066CCCF1005C1C
:105440004FEA1C472CEA074C0CFB06F507FB06F459
:1054500004EB15464FEA961649085FEA320234BF5C
:1054600000204FF000404FEAD13706FB07FC4FEA1F
:105470001C4C0CFB0BF7D21B03FB0CF761EB070179
:105480000CFB0EF7B0EB074072EB17420CFB08F772
:1054900034BFA2EB0742B2EB074261EB17414FEA80
:1054A0000C444FEA910706FB07FC4FEA1C4C0CFB2F
:1054B0000BF7B0EBC74072EB573203FB0CF734BF6E
:1054C000A2EBC742B2EBC74261EB57310CFB0EF7C0
:1054D000B0EBC70072EB57720CFB08F734BFA2EBBE
:1054E000C702B2EBC70261EB57714FEA816141EA33
:1054F00092114FEA826242EA90124FEA806004EB16
:10550000CC04039F4FEAD13706FB07FC4FEA1C4C43
:105510000CFB0BF7D21B03FB0CF761EB07010CFB39
:105520000EF7B0EB074072EB17420CFB08F734BFE5
:10553000A2EB0742B2EB074261EB17414FEA8C55F1
:1055400004EB9C244FEA910706FB07FC4FEA1C4C36
:105550000CFB0BF7B0EBC74072EB573203FB0CF7B9
:1055600034BFA2EBC742B2EBC74261EB57310CFB31
:105570000EF7B0EBC70072EB57720CFB08F734BFA5
:10558000A2EBC702B2EBC70261EB57714FEA816130
:1055900041EA92114FEA826242EA90124FEA806039
:1055A00015EB4C2544F100044FEAD13706FB07FC0C
:1055B0004FEA1C4C0CFB0BF7D21B03FB0CF761EB07
:1055C00007010CFB0EF7B0EB074072EB17420CFB28
:1055D00008F734BFA2EB0742B2EB074261EB174179
:1055E0004FEA813141EA92414FEA823242EA9042E7
:1055F0004FEA80304FEA0C7615EB1C1544F100049D
:1056000048EA03434EEA0B484FF0000EB2EB080C99
:1056100071EB030724BF624639464EEB0E0E4FF086
:10562000000B0018524149414BEB0B0BB2EB080C3D
:1056300071EB03077BF1000B24BF624639464EEB4A
:105640000E0E4FF0000B0018524149414BEB0B0B73
:10565000B2EB080C71EB03077BF1000B24BF624631
:1056600039464EEB0E0E51EA020718BF46F001060E
:1056700016EB0E7655F1000254F1000103D5BDE89A
:105680008901BDE80088BDE88901BDE80048B61978
:10569000524141EB0101A3F10103704780807F7EFD
:1056A0007D7C7B7A79787776767574737271717098
:1056B0006F6E6E6D6C6C6B6A6A696868676666654A
:1056C0006464636362616160605F5F5E5E5D5D5CD8
:1056D0005C5B5B5A5A595958585757565655555549
:1056E0005454535352525251515050504F4F4F4EA9
:1056F0004E4D4D4D4C4C4C4B4B4B4A4A4A494949F7
:105700004848484747474746464645454544444438
:105710004443434343424242424141419C46002B61
:1057200030D477002BD04FEA37071CB503B44FF0C5
:1057300010004FF01001BAF1000F06D0BCF1000FBD
:10574000DCBF40F0080040F008014FF000000FBC43
:10575000BDE810400BF1010BBBF1010F08BF5FEA80
:10576000170722BF12F1010211F101014FF00041B0
:1057700043F1000300F0004043EA00007047F9D312
:105780005708D0E746EA06464FEA164613F1400F9F
:105790001FDD13F1200FDFBF16430A46002120331F
:1057A0005B42BED0C3F1200746EA06464FEA1646E2
:1057B00002FA07F746EA070622FA03F2C3F12007C6
:1057C00001FA07F742EA070221FA03F14FF000035A
:1057D000A7E746EA020646EA06464FEA164646EAC2
:1057E0000106BCBF46EA0646360C4FF000034FF0F8
:1057F00000024FF0000194E72DE9804C70B49A4606
:10580000934691E8380007C831EA400C48BF34EAB3
:10581000430C03D5FFF7E6FDFFF780FFF0BCBDE8C2
:10582000008C2DE9804C70B49A46934691E838007C
:1058300007C810F0804F08BF13F0804F03D100F06D
:1058400005F8FFF76BFFF0BCBDE8008C20F07F4748
:1058500023F07F4C80EA030000F0004007EB0C03CC
:10586000A3F57C53A3F1FE0392F0000F00F0B38088
:1058700095F0000F00F077802DE901494FEA1140C3
:1058800021EA00484FEA144624EA064700FB06FCDA
:1058900008FB06F607FB08F818EB06484CEB164C1D
:1058A00000FB07F718EB07484CEB17404FEA124B89
:1058B00022EA0B4E4FEA154625EA06470BFB06FC8B
:1058C0000EFB06F607FB0EFE1EEB064E4CEB164CCF
:1058D0000BFB07F71EEB074E4CEB174B18EB0B08B7
:1058E00040F1000018EB0E0B58EB000840F10000EF
:1058F0008F1A4FF000014FF000063CBFC943661BF2
:1059000014BFB5EB040C00213CBFC943F61B4FEAA2
:10591000174427EA04454FEA1C472CEA074C04FBCE
:10592000076205FB07F70CFB05F616EB074642EB93
:10593000174204FB0CFC16EB0C4642EB1C421BEB23
:10594000060658EB020241414EEA8E0E46EA9E06DA
:1059500001D5BDE80189B619524141EB0101A3F11E
:105960000103BDE801894FEA144524EA05464FEAE0
:10597000114721EA074C05FB07F406FB07F70CFB70
:1059800006F111EB074144EB174405FB0CFC11EB4E
:105990000C4144EB1C444FEA124722EA074C05FB3A
:1059A00007F206FB07F70CFB06F616EB074642EB81
:1059B000174205FB0CFC16EB0C4642EB1C456A1823
:1059C00054F1000148BF7047B619524141EB010143
:1059D000A3F10103704795F0000F37D04FEA114251
:1059E00021EA02464FEA144724EA074C02FB07F17A
:1059F00006FB07F70CFB06F414EB074441EB1741D9
:105A000002FB0CFC14EB0C4441EB1C414FEA154724
:105A100025EA074C02FB07F506FB07F70CFB06F629
:105A200016EB074645EB174502FB0CFC16EB0C4644
:105A300045EB1C42121951F1000148BF7047B619DD
:105A4000524141EB0101A3F1010370474FEA1445B4
:105A500024EA05464FEA114721EA074C05FB07F106
:105A600006FB07F70CFB06F212EB074241EB17416E
:105A700005FB0CFC12EB0C4251EB1C414FF00006F5
:105A800048BF7047921841EB0101A3F10103704731
:105A900003B401984100009850EAC12018BF0420C7
:105AA0004A0D18BF40F0010040F2FF72B2EB515FA7
:105AB00008BF40F00200012808BF052002B070476F
:105AC00030380A2801D201207047002070478A68C8
:105AD000002A02DC0022FBF783BE521E8A604A685D
