:020000040800F2
:10000000B80600209D010008CD190008FB18000863
:10001000C9190008A9020008B91F00080000000063
:10002000000000000000000000000000D3190008DC
:10003000D703000800000000D1190008D5190008F6
:10004000B7010008B7010008B7010008B7010008B0
:10005000B7010008B7010008B7010008B7010008A0
:10006000B7010008B7010008B7010008B701000890
:10007000B7010008B7010008B7010008B701000880
:10008000B7010008B7010008B7010008B701000870
:10009000B7010008B7010008B7010008B701000860
:1000A000B7010008B7010008B7010008B701000850
:1000B000B7010008B7010008B7010008B701000840
:1000C000B7010008B7010008B7010008B701000830
:1000D000B7010008A91F0008B7010008B701000810
:1000E000B7010008B7010008B7010008B701000810
:1000F000B7010008B7010008B7010008B701000800
:10010000B7010008B7010008B7010008B7010008EF
:10011000B7010008B7010008B7010008B7010008DF
:10012000B7010008B7010008AD020008B7010008D8
:10013000B70100080000000000000000B70100083F
:10014000B7010008B7010008B7010008B7010008AF
:10015000B7010008B7010008BD020008B701000898
:10016000B7010008B7010008B7010008B70100088F
:10017000B7010008B70100080000000000000000FF
:10018000B7010008B7010008DFF80CD000F07AF8DA
:1001900000480047B1230008B80600200648804701
:1001A00006480047FEE7FEE7FEE7FEE7FEE7FEE75C
:1001B000FEE7FEE7FEE7FEE7911A00088901000866
:1001C0002DE9F05F0546002092469B46884606468C
:1001D000814640241BE0284641464746224600F01F
:1001E00041F853465A46C01A914110D31146184659
:1001F000224600F028F82D1A67EB01084F462246E8
:100200000120002100F01FF817EB00094E41201ECD
:10021000A4F10104DFDC484631462A464346BDE8E6
:10022000F09FD2B201E000F8012B491EFBD27047CB
:100230000022F6E710B513460A4604461946FFF7B2
:10024000F0FF204610BD202A04DB203A00FA02F11C
:10025000002070479140C2F1200320FA03F31943B4
:1002600090407047202A04DB203A21FA02F0002156
:10027000704721FA02F3D040C2F1200291400843B6
:1002800019467047064C074D06E0E06840F0010350
:1002900094E8070098471034AC42F6D3FFF778FF94
:1002A0007C2400089C24000800BFFEE710B502482B
:1002B00000F000F910BD00005802002010B50248FF
:1002C00000F0F8F810BD0000F801002001460878A1
:1002D00010381823B0FBF3F20848805CC865032A85
:1002E00005D908686FF30900001D886503E00868F8
:1002F0006FF309008865886D704700003C24000892
:10030000014600208A6A8B69CBB932B1012A0DD02F
:10031000022A03D0032A10D10EE000BFCB6A03F0FB
:100320008073B3F1807F00D1012007E0CB6AB3F185
:10033000C07F00D1012001E000E000BF34E08B6904
:10034000B3F5005F1AD132B1012A07D0022A03D0D7
:10035000032A11D10AE000BF01200EE0CB6A03F0AE
:100360008073B3F1807F00D1012006E0CB6AB3F146
:10037000C07F00D1012000E000BF15E032B1012AAA
:1003800005D0022A04D0032A0CD103E000BF00BF2D
:10039000012008E0CB6A03F08073B3F1807F00D1C5
:1003A000012000E000BF00BF704730B5046824683A
:1003B00024F4802405682C60046863608468402C01
:1003C00004D10468A2600468E16003E00468A160ED
:1003D0000468E26030BD704772B600BFFEE770B5DA
:1003E0000446A56D00F054FB064694F8350002283B
:1003F00008D08020606500BF002084F8340000BF72
:10040000012070BD2068006820F016002168086097
:100410002068406920F0800021684861206C08B99C
:10042000A06C28B12068006820F0080021680860EE
:100430002068006820F001002168086010E000F0EA
:1004400027FB801B05280BD920206065032084F83A
:10045000350000BF002084F8340000BF0320D0E73F
:100460002068006800F001000028E8D194F85C10D2
:100470003F208840A860012084F8350000BF00209C
:1004800084F8340000BF00BFBBE7014691F8350097
:10049000022803D08020486501207047052081F89C
:1004A00035000868006820F001000A68106000202C
:1004B000F3E70000F8B50446002000908C4800687F
:1004C0004FF41651B0FBF1F7A56D2E6894F85C104F
:1004D00008208840304098B12068006800F004008F
:1004E00070B12068006820F004002168086094F86A
:1004F0005C1008208840A860606D40F001006065D5
:1005000094F85C1001208840304068B12068406950
:1005100000F0800040B194F85C1001208840A86091
:10052000606D40F00200606594F85C100420884023
:10053000304068B12068006800F0020040B194F8D3
:100540005C1004208840A860606D40F00400606585
:1005500094F85C1010208840304078B32068006820
:1005600000F0080050B394F85C1010208840A86098
:100570002068006800F4802080B12068006800F4E2
:10058000002028B9206CC8B12046216C884715E0AE
:10059000A06C98B12046A16C88470FE020680068E5
:1005A00000F4807028B92068006820F008002168F5
:1005B0000860206C10B12046216C884794F85C10CC
:1005C000202088403040002865D02068006800F076
:1005D000100000285FD094F85C1020208840A860AC
:1005E00094F83500052828D12068006820F016000E
:1005F000216808602068406920F080002168486117
:10060000206C08B9A06C28B12068006820F00800B0
:100610002168086094F85C103F208840A8600120A1
:1006200084F8350000BF002084F8340000BF206D3E
:1006300010B12046216D8847F8BD2068006800F49D
:10064000802080B12068006800F4002028B9606C28
:1006500010B12046616C88471DE0E06BD8B12046A0
:10066000E16B884717E02068006800F4807068B983
:100670002068006820F0100021680860012084F8DC
:10068000350000BF002084F8340000BFE06B10B1DB
:100690002046E16B8847606D38B3606D00F0010063
:1006A000F0B1052084F835002068006820F00100D2
:1006B0002168086000BF0098401C0090B84200D933
:1006C00005E02068006800F001000028F3D100BFB9
:1006D000012084F8350000BF002084F8340000BFFA
:1006E000E06C10B12046E16C884700BFA4E7000031
:1006F000180000202DE9F0410446002500F0C8F95B
:10070000074614B90120BDE8F081606A00B100BF5E
:10071000022084F8350000BF002084F8340000BFB8
:100720002068006820F00100216808600AE000F0FD
:10073000AFF9C01B052805D920206065032084F887
:100740003500E0E72068006800F001000028EED1E5
:100750002068056821480540D4E901010843E168A3
:1007600008432169084361690843A1690843E169B5
:100770000843216A08430543606A042803D1D4E989
:100780000B0108430543206805602068456925F092
:100790000705606A0543606A04280DD1A06A054315
:1007A000E06A48B12046FFF7ABFD28B14020606504
:1007B000012084F83500A6E7206845612046FFF750
:1007C00085FD064694F85C103F208840B06000200C
:1007D0006065012084F83500002094E73F8010F028
:1007E0002DE9F04704460D4616461F464FF0000817
:1007F000D4F8589000BF94F83400012802D10220A8
:10080000BDE8F087012084F8340000BF94F835007B
:10081000012825D1022084F83500002060653B4680
:10082000324629462046FFF7C0FD94F85C103F2071
:100830008840C9F808002068006840F01600216868
:100840000860206C28B12068006840F0080021682A
:1008500008602068006840F001002168086006E038
:1008600000BF002084F8340000BF4FF0020840466B
:10087000C6E7000070B5044600F00AF906462546B2
:10088000681C10B104480078054400BF00F000F96E
:10089000801BA842FAD370BD14000020F8B50246B0
:1008A0000B460025002400200021D6E0012606FA90
:1008B00001F51E6806EA0504AC4274D11E7906F003
:1008C0000306012E04D01E7906F00306022E13D172
:1008D00090684F000326BE40B0434F00DE68BE4024
:1008E00030439060506801268E40B0431E79C6F3B5
:1008F00000168E40304350601E7906F00306032E2A
:1009000009D0D0684F000326BE40B0434F009E6818
:10091000BE403043D0601E7906F00306022E13D18C
:10092000CF0802F1200656F827004E07F70E0F26D3
:10093000BE40B0434F07FF0E1E69BE403043CF0894
:1009400002F1200646F8270010684F000326BE403B
:10095000B0431E7906F003064F00BE4030431060DE
:100960005E6806F44036002E76D000BF0026009662
:100970003C4E366846F480463A4F3E603E46366806
:1009800006F48046009600BF00BF374E8F0856F829
:1009900027008E07370F0F26BE40B043334EB242BA
:1009A00002D1002624E057E0314EB24201D10126A7
:1009B0001EE0304EB24201D1022619E02E4EB24264
:1009C00001D1032614E02D4EB24201D104260FE0DE
:1009D0002B4EB24201D105260AE02A4EB24201D185
:1009E000062605E0284EB24201D1072600E008267F
:1009F0008F073F0FBE4030431B4E8F0846F827003D
:100A0000224E3068A0435E6806F4801606B120438B
:100A10001E4E3060361D3068A0435E6806F4001636
:100A200006B12043194E361D3060184E361F30680F
:100A3000A0435E6806F4003606B12043134E361F0D
:100A40003060361F3068A0435E6806F4803606B119
:100A500020430E4E083E3060491C1029FFF426AF9B
:100A6000F8BD000044380240083801400000024050
:100A70000004024000080240000C02400010024046
:100A80000014024000180240001C0240083C0140D3
:100A900001480068704700000C000020034800680F
:100AA0000349097808440149086070470C00002098
:100AB0001400002010B50D48006840F400700B4988
:100AC00008600846006840F48060086008460068D6
:100AD00040F480700860032000F0A6F80F2000F0BA
:100AE00007F800F02BF8002010BD0000003C024089
:100AF00070B504460E4800784FF47A71B1FBF0F0FF
:100B00000C490968B1FBF0F5284600F02FFC08B14C
:100B1000012070BD102C07D200222146501E00F08B
:100B200045F80548046001E00120F2E70020F0E705
:100B300014000020180000201000002008B500BF9D
:100B4000002000900E48006840F480400C49086086
:100B50000846006800F48040009000BF00BF00BF5E
:100B600000200090081F006840F08050091F0860B6
:100B70000846006800F08050009000BF00BF08BD2C
:100B8000443802400146084600280DDB00BF00BF84
:100B900000F01F0301229A4043099B0003F1E02368
:100BA000C3F8002100BF00BF00BF70472DE9F05F10
:100BB00080460D461646002701F014FA07463946CE
:100BC0002A46334601F00700C0F1070ABAF1040FC4
:100BD00002D94FF0040A01E0C0F1070AD14600F142
:100BE000040ABAF1070F02D24FF0000A01E0A0F1A7
:100BF000030AD4464FF0010A0AFA09FAAAF1010AD7
:100C00000AEA020A0AFA0CFA4FF0010B0BFA0CFB83
:100C1000ABF1010B0BEA030B4AEA0B0421464046F9
:100C200001F0E8F9BDE8F09F00BF00F00702064BB5
:100C300019684FF6FF031940044B0B4343EA0221A6
:100C4000014B196000BF70470CED00E00000FA0591
:100C500070B504460D460CB9012070BD58480068B7
:100C600000F00700A84209D255490D7008460068F7
:100C700000F00700A84201D00120EEE7207800F044
:100C8000020002281DD1207800F00400042805D1BC
:100C90004C48006840F4E0504A490860207800F071
:100CA0000800082805D14748006840F460404549DD
:100CB00008604448006820F0F000A16808434149FA
:100CC0000860207800F00100A8B36068012807D10F
:100CD0003C4808380068C0F34040B8B90120BCE780
:100CE0006068022802D06068032807D135480838B8
:100CF0000068C0F3406048B90120AEE731480838C9
:100D00000068C0F3400008B90120A6E72D4800683C
:100D100020F00300616808432A490860FFF7B8FE25
:100D2000064609E0FFF7B4FE801B41F28831884295
:100D300002D9032091E707E02248006800F00C0088
:100D40006168B0EB810FEDD11D48006800F007002D
:100D5000A84209D91A490D700846006800F007003A
:100D6000A84201D0012078E7207800F00400042890
:100D700007D11448006820F4E050E16808431149A5
:100D80000860207800F00800082808D10D480068A5
:100D900020F46040216940EAC1000A49086000F07F
:100DA0003FF808490968C1F30311074A515CC8407C
:100DB0000649086006480068FFF79AFE00204CE7E5
:100DC000003C02400838024044240008180000207B
:100DD0001000002001480068704700001800002043
:100DE00000B5FFF7F7FF04490968C1F38221034A00
:100DF000515CC84000BD000008380240542400087F
:100E000000B5FFF7E7FF04490968C1F34231034A1F
:100E1000515CC84000BD000008380240542400085E
:100E20002DE9F047002400250026A146254800684A
:100E300000F00C0020B1042805D008283AD105E0C4
:100E4000DFF8849039E0DFF8849036E01D48001F19
:100E5000006800F03F041B48001F006800F4800099
:100E600078B11A481749091F0968C1F38811A0FB16
:100E700001700146224600233846FFF7A1F90546D6
:100E80000EE011480F49091F0968C1F38811A0FB42
:100E900001700146224600233846FFF791F90546C6
:100EA0000848001F0068C0F30140401C4600B5FB25
:100EB000F6F902E0DFF8109000BF00BF4846BDE839
:100EC000F0870000083802400024F40040787D01DB
:100ED000F8B504460CB90120F8BD207800F00100F7
:100EE000002874D0F948006800F00C0004280DD0E8
:100EF000F648006800F00C00082813D1F348001FE2
:100F0000006800F48000B0F5800F0BD1EF4808387E
:100F10000068C0F34040002859D06068002856D1CE
:100F20000120D9E700BF6068B0F5803F08D1E748ED
:100F30000838006840F48030E449083908601EE051
:100F40006068B0F5A02F0DD1E0480838006840F483
:100F50008020DE49083908600846006840F4803087
:100F600008600CE0D9480838006820F48030D74980
:100F7000083908600846006820F48020086000BF37
:100F8000606890B1FFF784FD054606E0FFF780FD3D
:100F9000401B642801D903209EE7CC48083800682C
:100FA000C0F340400028F1D011E0FFF771FD054685
:100FB00006E0FFF76DFD401B642801D903208BE795
:100FC000C24808380068C0F340400028F1D12078BA
:100FD00000F0020002285FD1BC48006800F00C005D
:100FE00058B1BA48006800F00C0008281CD1B74876
:100FF000001F006800F48000B0B9B44808380068E9
:10100000C0F3400020B1E068012801D0012063E76F
:10101000AE480838006820F0F800216940EAC100B5
:10102000AA490839086037E0E06800B30120A84900
:101030000860FFF72DFD054606E0FFF729FD401B80
:10104000022801D9032047E7A04808380068C0F308
:1010500040000028F1D09D480838006820F0F800D2
:10106000216940EAC10099490839086014E000206C
:1010700097490860FFF70CFD054606E0FFF708FDFD
:10108000401B022801D9032026E790480838006851
:10109000C0F340000028F1D1207800F008000828B3
:1010A0002CD16069A8B101208A490860FFF7F0FCE3
:1010B000054606E0FFF7ECFC401B022801D903209F
:1010C0000AE782486C300068C0F340000028F1D085
:1010D00014E000207F490860FFF7DAFC054606E0CF
:1010E000FFF7D6FC401B022801D90320F4E677481D
:1010F0006C300068C0F340000028F1D1207800F087
:101100000400042870D1002770483830006800F0CF
:10111000805090B900BF002000906C4838300068C3
:1011200040F080506949383108600846006800F096
:101130008050009000BF00BF01276748006800F49E
:101140008070B0B96448006840F4807062490860FB
:10115000FFF79EFC054606E0FFF79AFC401B0228BD
:1011600001D90320B8E65C48006800F480700028CC
:10117000F2D000BFA068012808D154486830006848
:1011800040F001005149683108601DE0A068052861
:101190000DD14E486830006840F004004B4968317A
:1011A00008600846006840F0010008600CE047480D
:1011B0006830006820F00100444968310860084642
:1011C000006820F00400086000BFA068A8B1FFF725
:1011D0005FFC054609E0FFF75BFC401B41F28831EC
:1011E000884202D9032077E626E038486830006854
:1011F000C0F340000028EED013E0FFF749FC05469D
:1012000008E0FFF745FC401B41F28831884201D9D4
:10121000032061E62D4868300068C0F340000028D4
:10122000EFD1012F07D129483830006820F08050D5
:1012300026493831086000BFA069002845D02348FE
:10124000006800F00C0008285DD0A069022845D194
:1012500000201F490866FFF71BFC054606E0FFF764
:1012600017FC401B022801D9032035E6174808382F
:101270000068C0F340600028F1D1D4E907010843B9
:10128000616A40EA81110122A06AC2EB500041EA82
:1012900000412C20005D41EA00600C49091F0860F4
:1012A00001200B490866FFF7F3FB054606E0FFF750
:1012B000EFFB401B022801D903200DE60348083844
:1012C0000068C0F340600028F1D049E008380240CF
:1012D00000004742800E4742007000400020214934
:1012E0000866FFF7D5FB054606E0FFF7D1FB401B7C
:1012F000022801D90320EFE51B480068C0F34060D5
:101300000028F2D12CE0A069012800D1E4E51648BC
:10131000001D0668A069012820D006F48001E0695C
:1013200081421BD106F03F01206A814216D147F667
:10133000C0703040616AB0EB811F0FD106F44031BC
:101340000122A06AC2EB5000B1EB004F06D106F0BB
:1013500070612C20005DB1EB006F01D00120BBE576
:101360000020B9E5000047420038024070B504464D
:101370002546681EB0F1807F01D301200FE0681E72
:101380004FF0E02148610F214FF0FF3000F032FEB6
:1013900000204FF0E021886107200861002070BD27
:1013A000704770472DE9F84F0446206805682068AB
:1013B000C668206847694FF00009CA4605F00F0962
:1013C000B9F1000F0AD105F0200038B106F0200075
:1013D00020B1204600F023FCBDE8F88FB9F1000FE2
:1013E0007CD007F0010018B906F49070002875D081
:1013F00005F0010030B106F4807018B1606C40F067
:101400000100606405F0040030B107F0010018B17C
:10141000606C40F00200606405F0020030B107F03B
:10142000010018B1606C40F00400606405F0080031
:1014300048B106F0200010B907F0010018B1606C47
:1014400040F008006064606C002846D005F0200081
:1014500028B106F0200010B1204600F0E0FB206823
:101460004069C0F3801A606C00F0080010B9BAF14E
:10147000000F2DD0204600F079FB2068406900F075
:101480004000402820D100BF00BF2168143151E83E
:10149000001F21F040002168143141E80002002AB9
:1014A000F3D100BFE06B50B17F48E16B0865E06BA2
:1014B000FEF7EBFF88B1E06B016D88470DE0204639
:1014C000FFF76FFF09E009E02046FFF76AFF04E03D
:1014D0002046FFF766FF002060647DE7206B01284F
:1014E00078D105F01000002874D006F01000002814
:1014F000FAD000BF002000902068006800902068AB
:101500004068009000BF00BF2068406900F04000C4
:10151000402870D1E06B006840681FFA80F8B8F18D
:10152000000F58D0A08D404555DDA4F82E80E06B0B
:10153000C069B0F5807F43D000BF00BF21680C3187
:1015400051E8001F21F4807021680C3141E800024D
:10155000002AF3D100BF00BF00BF2168143151E859
:10156000001F21F001002168143141E80002002A27
:10157000F3D100BF00BF00BF2168143151E8001F44
:1015800021F040002168143141E80002002AF3D123
:1015900000BF202084F842000020206300BF00BF6D
:1015A00021680C3151E8001F21F0100021680C3136
:1015B00041E80002002AF3D100BFE06BFEF70FFF05
:1015C00002206063A08DE28D801A81B22046FFF771
:1015D000E7FE0EE052E0A08D40450AD1E06BC06905
:1015E000B0F5807F05D102206063A18D2046FFF712
:1015F000D7FEF1E6FFE7A08DE18D401A1FFA80F8D3
:10160000E08DD0B3B8F1000F37D000BF00BF216824
:101610000C3151E8001F21F4907021680C3141E831
:101620000002002AF3D100BF00BF00BF21681431BF
:1016300051E8001F21F001002168143141E8000247
:10164000002AF3D100BF202084F84200002020634C
:1016500000BF00BF21680C3151E8001F21F01000CD
:1016600021680C3141E80002002AF3D100BF0220BA
:10167000606341462046FFF793FEADE605F080002B
:1016800030B106F0800018B1204600F05DFCA3E602
:1016900005F0400030B106F0400018B1204600F0DF
:1016A0009BFA99E600BF97E6A51A000810B5044614
:1016B0000CB9012010BDA06900B100E000BF94F892
:1016C000410028B9002084F84000204600F02AF8A4
:1016D000242084F841002068C06820F4005021686C
:1016E000C860204600F01AFB2068006920F4904092
:1016F000216808612068406920F02A00216848615B
:101700002068C06840F400502168C8600020606410
:10171000202084F8410084F842000020606300BF6C
:10172000C8E7000010B586B00446142101A8FEF7F2
:101730007FFD3D492068884274D100BF00200090A1
:101740003A48006840F010003849086008460068D0
:1017500000F01000009000BF00BF00BF002000900C
:1017600032481438006840F00100304914390860EC
:101770000846006800F00100009000BF00BF4FF471
:10178000C06001900220029000200390032004908A
:101790000720059001A92648FFF780F8254826492B
:1017A00008604FF0006048604021234881600021BC
:1017B000C1604FF480610161002141618161C161BB
:1017C00001624162FEF796FF08B1FEF705FE00BF19
:1017D0001948A063846300BF164878381749086029
:1017E0004FF000604860002114488160C1604FF4F0
:1017F00080610161002141618161C16101624162D9
:10180000FEF778FF08B1FEF7E7FD00BF0B48E06385
:10181000846300BF002201212520FFF7C7F925209E
:10182000FFF7B0F906B010BD001001404438024087
:1018300000000240B8640240F80100205802002075
:1018400070470000F7B50446154694F8410020287B
:101850003ED1019800B10DB90120FEBD0198206272
:10186000A584E58400206064212084F841001948A3
:10187000A16BC8631848A16B08641848A16BC864C1
:101880000020A16B086501AE23681A1D31682B4644
:10189000A06BFEF7A5FF30B110206064202084F813
:1018A00041000120D9E76FF040002168086000BFC7
:1018B00000BF2168143151E8001F41F08000216809
:1018C000143141E80002002AF3D100BF0020C4E730
:1018D0000220C2E7071B00085F1B0008B71A0008B8
:1018E000034A0168914202D10121024A11707047F6
:1018F0000010014008000020704700BFFEE7000014
:1019000008B500BF002000900E48006840F4800039
:101910000C4908600846006800F48000009000BF91
:1019200000BF002211463A20FFF740F93A20FFF7A6
:1019300029F9002211464620FFF738F94620FFF723
:1019400021F908BD3038024008B500BF00200090E2
:101950000E48006840F080000C49086008460068A6
:1019600000F08000009000BF00BF00BF002000908A
:101970000846006840F0010008600846006800F072
:101980000100009000BF00BF08BD000030380240D9
:1019900010B50B480B4908604FF4E1304860002156
:1019A00008488160C16001610C21416100218161B1
:1019B000C161FFF77BFE08B1FEF70EFD10BD000010
:1019C00000100140B001002000BFFEE700BFFEE7AD
:1019D0007047704710B5FFF761F810BD00B593B0C0
:1019E000302107A8FEF724FC142102A8FEF720FCF2
:1019F00000BF002001902448006840F08050224938
:101A000008600846006800F08050019000BF00BFE9
:101A100000BF002001901D48006840F480401B4931
:101A200008600846006800F48040019000BF00BFD5
:101A3000012007900004089002200D9041050E91AE
:101A400019210F914FF4A8711091022111910421D5
:101A5000129107A8FFF73CFA08B1FEF7BDFC0F2072
:101A6000029002200390002004904FF4A0500590B3
:101A70004FF480500690052102A8FFF7E9F808B15D
:101A8000FEF7AAFC13B000BD4038024000700040D1
:101A90000348006840F47000014908607047000086
:101AA00088ED00E070B50446A56B0020E885284667
:101AB000FFF777FC70BD70B506460025B46B206853
:101AC0004069C0F3C01594F84100212805D125B123
:101AD0000020E084204600F08FF820684069C0F3C1
:101AE000801594F84200222805D125B10020E08518
:101AF000204600F03BF8606C40F010006064204627
:101B0000FFF74FFC70BD70B50546AC6B28680068E8
:101B100000F48070F8B90020E08400BF00BF2168A5
:101B2000143151E8001F21F080002168143141E890
:101B30000002002AF3D100BF00BF00BF21680C31B2
:101B400051E8001F41F0400021680C3141E80002DB
:101B5000002AF3D102E02046FFF7C2FE70BD70B547
:101B60000446A56B2846FFF7C7FE70BD00BF00BF47
:101B700002680C3252E8002F22F4907102680C3295
:101B800042E80013002BF3D100BF00BF00BF026882
:101B9000143252E8002F22F001010268143242E8A8
:101BA0000013002BF3D100BF016B01290ED100BF40
:101BB00000BF02680C3252E8002F22F010010268C8
:101BC0000C3242E80013002BF3D100BF202180F833
:101BD000421000210163704710B504462068C068B8
:101BE00020F040002168C860202084F84100204691
:101BF000FFF776FE002010BD00BF00BF02680C3268
:101C000052E8002F22F0C00102680C3242E80013B3
:101C1000002BF3D100BF202180F841107047F8B5A8
:101C200004460025002694F84200222873D1A068BB
:101C3000B0F5805F0BD1206948B9A66A206840687A
:101C4000C0F308003080A06A801CA06214E0A56A7E
:101C5000A068B0F5805F03D0A06828B9206918B9E2
:101C600020684068287004E02068406800F07F0029
:101C70002870A06A401CA062E08D401E80B2E08502
:101C8000002846D12068C06820F020002168C86084
:101C90002068C06820F480702168C86020684069AE
:101CA00020F0010021684861202084F842000020D3
:101CB0006063206B012826D10020206300BF00BF95
:101CC00021680C3151E8001F21F0100021680C310F
:101CD00041E80002002AF3D100BF2068006800F04C
:101CE000100010280AD100BF002000902068006872
:101CF000009020684068009000BF00BFA18D204682
:101D0000FFF74EFB02E02046FFF79AFD0020F8BDEA
:101D100001E00020FBE70220F9E700002DE9F84F81
:101D200004462068006920F44050E16808432168B7
:101D300008612169A068084361690843E1690843B3
:101D400000902068C06849F20C61884300990843FC
:101D50002168C8602068406920F44070A169084388
:101D60002168486176492068884203D07549206817
:101D7000884203D1FFF744F8814602E0FFF730F8CC
:101D80008146E069B0F5004F6CD102206168A0FB8C
:101D9000015003461920A9FB007001462A46384627
:101DA000FEF70EFA6421B0FBF1F04FEA001A0220B0
:101DB0006168A0FB01510B461920A9FB00712A465E
:101DC0003846FEF7FDF9834602206168A0FB01500A
:101DD00003461920A9FB00712A463846FEF7F0F9A0
:101DE0006421B0FBF1F000EBC00101EB0010ABEBA4
:101DF0008000322101EBC0006421B0FBF1F000F063
:101E0000F8000AEB400A02206168A0FB015003467B
:101E10001920A9FB007001462A463846FEF7D0F982
:101E2000834602206168A0FB015003461920A9FBEC
:101E300000712A463846FEF7C3F96421B0FBF1F081
:101E400000EBC00101EB0010ABEB8000322101EB95
:101E5000C0006421B0FBF1F000F00700504421689D
:101E600088606AE004206168A0FB015003461920E5
:101E7000A9FB007001462A463846FEF7A1F98246C2
:101E800004206168A0FB015003461920A9FB0070E3
:101E900001462A463846FEF793F96421B0FBF1F07B
:101EA00000EBC00101EB0010AAEB8000322101EB36
:101EB00000106421B0FBF1F000F0F00A042061682A
:101EC000A0FB017003461920A9FB00513A462846A1
:101ED000FEF776F96421B0FBF1F00AEB001A04205A
:101EE0006168A0FB01510B461920A9FB00712A462D
:101EF0003846FEF765F9834604206168A0FB01506F
:101F000003461920A9FB007001462A463846FEF711
:101F100057F96421B0FBF1F000EBC00101EB0010B8
:101F2000ABEB8000322101EB00106421B0FBF1F03B
:101F300000F00F00504421688860BDE8F88F000071
:101F40000010014000140140014691F84100212891
:101F500028D18868B0F5805F0BD1086948B90A6A52
:101F60001088C0F308000B685860086A801C08627B
:101F700005E00B6A581C086218780B685860C88C1A
:101F8000401E80B2C88458B90868C06820F080003C
:101F90000B68D8600868C06840F040000B68D860E3
:101FA000002070470220FCE710B50248FFF7FAF95D
:101FB00010BD0000B001002000BFFEE74100080294
:101FC00018BF04200A0E18BF40F001004FF07F42F6
:101FD00032EA010108BF40F00200012808BF0520D5
:101FE0007047000002480068C0F3022070470000FC
:101FF0000CED00E010B5002804DB0A07130E054ABB
:10200000135406E00A07140E034A00F00F031B1FC7
:10201000D45410BD00E400E018ED00E000B510EE6F
:10202000101A2DED028B81B0524A6846B2EB410F77
:102030002ED94FF0E640B0EB410F94BF00204FF097
:10204000FF3000900098B0EE408A00286ADB10F064
:10205000010F4BD068EE080A9FED471A9FED470A23
:1020600000EE810A9FED461A10F0020F00EE801A72
:10207000B7EE000A00EE810A02BF01B0BDEC028B90
:1020800000BD00BF01B0B1EE400ABDEC028B00BD47
:102090003C4B21F00042934241D911F0004FDFED5B
:1020A0003A0A20EE201ADFED390A19BF31EE601A24
:1020B00071EE200A31EE201A71EE600ABDEEE01AD0
:1020C00011EE100A9FED321A00F0030000EEC10A73
:1020D0009FED301A009000EEC10A9FED2F1A00EE1E
:1020E000C10A9FED2E1A00EEC10AABE728EE080ADE
:1020F0009FED2B1ADFED2B0A10F0020F40EE410A84
:102100009FED291A00EE201A61EE000AB0EE480A8F
:1021100008EE200AB6D101B0BDEC028B00BD00F084
:1021200059F88FE718EE100A4000B0F17F4F0DD23A
:1021300018EE100AFFF742FF042808BF00F042F82B
:10214000B0EE480A01B0BDEC028B00BD09D1012000
:1021500000F0FAF801B0BDEC028B5DF804EB00F082
:1021600029B801B0B0EE480ABDEC028B5DF804EB73
:1021700000F01CB8B61F927EB93AB2BACA9F2A3D87
:10218000DDFFFFBE490E494683F9223F0000004BA8
:102190000000C93F00A0FD390020A2331A61342C91
:1021A000336D4C39DA82083CA0AA2ABE30EE000A10
:1021B00070470000DFED020A80EEA00A70470000C1
:1021C000000000009FED020A20EE000A70470000A8
:1021D000000000102DE9F0014FF07F42B2EB410FFB
:1021E0009FBF4FF0FF310160BDE8F00170474FF035
:1021F000004242EA0123C1F3C752783A551112F066
:102200001F0C434CCCF120067C44C1F3C752A2F111
:1022100078024FEA621204EB820254F8254008BFAC
:10222000D2E9015612D0556804FA0CF425FA06F7E3
:102230003C43976805FA0CF527FA06F8D26807FAC6
:102240000CFCF24045EA08054CEA0206A4FB034CEC
:10225000A5FB0352A6FB03631D449D4234BF012628
:1022600000261319334416B1934202D903E0934276
:1022700001D2012200E00022624402F1200C920609
:10228000DC0C42EA443200EE102A5B03DFED210A47
:10229000F8EEC01A00EE103A4FEA9C1C11F0004F05
:1022A000B8EE400AC0F800C020EE201A00EE105A26
:1022B000DFED190AB8EE400A20EE200A71EE810A1D
:1022C00070EE800A10EE902A02F500626FF30B02A6
:1022D00000EE902A70EEE11A31EEC11ADFED101A0D
:1022E00030EE411A9FED0D0A20EE800A01EE210A20
:1022F0009FED0C1A00EE810A04BFBDE8F0017047A3
:10230000CCF180510160BDE8F001B1EE400A7047A8
:1023100050020000000000360000802C22AAFD2997
:10232000DB0FC92F0000C92F02E008C8121F08C127
:10233000002AFAD170477047002001E001C1121F46
:10234000002AFBD170470000014908607047000077
:102350001C00002001B52DED020B009901600EBD9F
:1023600010B52DED028B002417E000EE104AB8EEF8
:10237000C00ADFED0C0A20EE200ADFED0B0A80EE2A
:10238000201AB0EE418AB0EE480AFFF747FE074830
:1023900000EB840080ED000A641C642CE5DBBDECDE
:1023A000028B10BDDA0FC9400000C8422000002097
:1023B00008B5FEF77FFBFFF711FBFFF7C5FAFFF744
:1023C0009FFAFFF7E5FAFFF7CBFF17A00068009030
:1023D0001648009941601648D0ED000AB0EE600A38
:1023E0001248FFF7B7FF082210491248FFF72AFAF0
:1023F00019E011480078B0B1012412E00C4800EB5C
:102400008400D0ED000AB0EE600A0848FFF7A2FF92
:10241000082206490748FFF715FAC820FEF72AFAEE
:10242000641C642CEADBE4E70000807F00000020ED
:1024300020000020B0010020080000200006101637
:102440000006101600000000000000000102030456
:102450000607080900000000010203040000000054
:102460006E83F9A22915444ED15727FCC0DD34F5FF
:10247000999562DB4190433CAB6351FE9C2400087C
:10248000000000202000000028230008BC240008D1
:1024900020000020980600003823000800000000FB
:1024A000000000000000000000000000100000001C
:0C24B000010000000024F4000000000007
:040000050800018965
:00000001FF
